{
  "address": "0xB7f8BC63BbcaD18155201308C8f3540b07f84F5e",
  "abi": [
    {
      "inputs": [
        {
          "internalType": "address",
          "name": "_VRFCoordinator",
          "type": "address"
        },
        {
          "internalType": "address",
          "name": "_LinkToken",
          "type": "address"
        },
        {
          "internalType": "bytes32",
          "name": "_keyhash",
          "type": "bytes32"
        },
        {
          "internalType": "uint256",
          "name": "_fee",
          "type": "uint256"
        },
        {
          "internalType": "string[][][]",
          "name": "_hairs",
          "type": "string[][][]"
        },
        {
          "internalType": "string[][][]",
          "name": "_legs",
          "type": "string[][][]"
        },
        {
          "internalType": "string[][][]",
          "name": "_bodies",
          "type": "string[][][]"
        }
      ],
      "stateMutability": "nonpayable",
      "type": "constructor"
    },
    {
      "anonymous": false,
      "inputs": [
        {
          "indexed": true,
          "internalType": "address",
          "name": "owner",
          "type": "address"
        },
        {
          "indexed": true,
          "internalType": "address",
          "name": "approved",
          "type": "address"
        },
        {
          "indexed": true,
          "internalType": "uint256",
          "name": "tokenId",
          "type": "uint256"
        }
      ],
      "name": "Approval",
      "type": "event"
    },
    {
      "anonymous": false,
      "inputs": [
        {
          "indexed": true,
          "internalType": "address",
          "name": "owner",
          "type": "address"
        },
        {
          "indexed": true,
          "internalType": "address",
          "name": "operator",
          "type": "address"
        },
        {
          "indexed": false,
          "internalType": "bool",
          "name": "approved",
          "type": "bool"
        }
      ],
      "name": "ApprovalForAll",
      "type": "event"
    },
    {
      "anonymous": false,
      "inputs": [
        {
          "indexed": true,
          "internalType": "uint256",
          "name": "tokenId",
          "type": "uint256"
        },
        {
          "indexed": false,
          "internalType": "string",
          "name": "tokenURI",
          "type": "string"
        }
      ],
      "name": "CreatedSVG",
      "type": "event"
    },
    {
      "anonymous": false,
      "inputs": [
        {
          "indexed": true,
          "internalType": "uint256",
          "name": "tokenId",
          "type": "uint256"
        },
        {
          "indexed": false,
          "internalType": "uint256",
          "name": "randomNumber",
          "type": "uint256"
        }
      ],
      "name": "CreatedUnfinishedSVG",
      "type": "event"
    },
    {
      "anonymous": false,
      "inputs": [
        {
          "indexed": true,
          "internalType": "address",
          "name": "previousOwner",
          "type": "address"
        },
        {
          "indexed": true,
          "internalType": "address",
          "name": "newOwner",
          "type": "address"
        }
      ],
      "name": "OwnershipTransferred",
      "type": "event"
    },
    {
      "anonymous": false,
      "inputs": [
        {
          "indexed": true,
          "internalType": "bytes32",
          "name": "requestId",
          "type": "bytes32"
        },
        {
          "indexed": true,
          "internalType": "uint256",
          "name": "tokenId",
          "type": "uint256"
        }
      ],
      "name": "RequestedRandomNumber",
      "type": "event"
    },
    {
      "anonymous": false,
      "inputs": [
        {
          "indexed": true,
          "internalType": "address",
          "name": "from",
          "type": "address"
        },
        {
          "indexed": true,
          "internalType": "address",
          "name": "to",
          "type": "address"
        },
        {
          "indexed": true,
          "internalType": "uint256",
          "name": "tokenId",
          "type": "uint256"
        }
      ],
      "name": "Transfer",
      "type": "event"
    },
    {
      "inputs": [
        {
          "internalType": "uint256",
          "name": "",
          "type": "uint256"
        },
        {
          "internalType": "uint256",
          "name": "",
          "type": "uint256"
        },
        {
          "internalType": "uint256",
          "name": "",
          "type": "uint256"
        }
      ],
      "name": "alreadyMinted",
      "outputs": [
        {
          "internalType": "bool",
          "name": "",
          "type": "bool"
        }
      ],
      "stateMutability": "view",
      "type": "function"
    },
    {
      "inputs": [
        {
          "internalType": "address",
          "name": "to",
          "type": "address"
        },
        {
          "internalType": "uint256",
          "name": "tokenId",
          "type": "uint256"
        }
      ],
      "name": "approve",
      "outputs": [],
      "stateMutability": "nonpayable",
      "type": "function"
    },
    {
      "inputs": [
        {
          "internalType": "address",
          "name": "owner",
          "type": "address"
        }
      ],
      "name": "balanceOf",
      "outputs": [
        {
          "internalType": "uint256",
          "name": "",
          "type": "uint256"
        }
      ],
      "stateMutability": "view",
      "type": "function"
    },
    {
      "inputs": [
        {
          "internalType": "uint256",
          "name": "",
          "type": "uint256"
        },
        {
          "internalType": "uint256",
          "name": "",
          "type": "uint256"
        },
        {
          "internalType": "uint256",
          "name": "",
          "type": "uint256"
        }
      ],
      "name": "bodies",
      "outputs": [
        {
          "internalType": "string",
          "name": "",
          "type": "string"
        }
      ],
      "stateMutability": "view",
      "type": "function"
    },
    {
      "inputs": [],
      "name": "create",
      "outputs": [
        {
          "internalType": "bytes32",
          "name": "requestId",
          "type": "bytes32"
        }
      ],
      "stateMutability": "nonpayable",
      "type": "function"
    },
    {
      "inputs": [
        {
          "internalType": "uint256",
          "name": "tokenId",
          "type": "uint256"
        }
      ],
      "name": "finishMint",
      "outputs": [],
      "stateMutability": "nonpayable",
      "type": "function"
    },
    {
      "inputs": [
        {
          "internalType": "string",
          "name": "imageURI",
          "type": "string"
        }
      ],
      "name": "formatTokenURI",
      "outputs": [
        {
          "internalType": "string",
          "name": "",
          "type": "string"
        }
      ],
      "stateMutability": "view",
      "type": "function"
    },
    {
      "inputs": [
        {
          "internalType": "uint256",
          "name": "tokenId",
          "type": "uint256"
        }
      ],
      "name": "getApproved",
      "outputs": [
        {
          "internalType": "address",
          "name": "",
          "type": "address"
        }
      ],
      "stateMutability": "view",
      "type": "function"
    },
    {
      "inputs": [
        {
          "internalType": "uint256",
          "name": "",
          "type": "uint256"
        },
        {
          "internalType": "uint256",
          "name": "",
          "type": "uint256"
        },
        {
          "internalType": "uint256",
          "name": "",
          "type": "uint256"
        }
      ],
      "name": "hairs",
      "outputs": [
        {
          "internalType": "string",
          "name": "",
          "type": "string"
        }
      ],
      "stateMutability": "view",
      "type": "function"
    },
    {
      "inputs": [
        {
          "internalType": "address",
          "name": "owner",
          "type": "address"
        },
        {
          "internalType": "address",
          "name": "operator",
          "type": "address"
        }
      ],
      "name": "isApprovedForAll",
      "outputs": [
        {
          "internalType": "bool",
          "name": "",
          "type": "bool"
        }
      ],
      "stateMutability": "view",
      "type": "function"
    },
    {
      "inputs": [
        {
          "internalType": "uint256",
          "name": "",
          "type": "uint256"
        },
        {
          "internalType": "uint256",
          "name": "",
          "type": "uint256"
        },
        {
          "internalType": "uint256",
          "name": "",
          "type": "uint256"
        }
      ],
      "name": "legs",
      "outputs": [
        {
          "internalType": "string",
          "name": "",
          "type": "string"
        }
      ],
      "stateMutability": "view",
      "type": "function"
    },
    {
      "inputs": [],
      "name": "maxBodies",
      "outputs": [
        {
          "internalType": "uint256",
          "name": "",
          "type": "uint256"
        }
      ],
      "stateMutability": "view",
      "type": "function"
    },
    {
      "inputs": [],
      "name": "maxHairs",
      "outputs": [
        {
          "internalType": "uint256",
          "name": "",
          "type": "uint256"
        }
      ],
      "stateMutability": "view",
      "type": "function"
    },
    {
      "inputs": [],
      "name": "maxLegs",
      "outputs": [
        {
          "internalType": "uint256",
          "name": "",
          "type": "uint256"
        }
      ],
      "stateMutability": "view",
      "type": "function"
    },
    {
      "inputs": [],
      "name": "maxTokens",
      "outputs": [
        {
          "internalType": "uint256",
          "name": "",
          "type": "uint256"
        }
      ],
      "stateMutability": "view",
      "type": "function"
    },
    {
      "inputs": [],
      "name": "name",
      "outputs": [
        {
          "internalType": "string",
          "name": "",
          "type": "string"
        }
      ],
      "stateMutability": "view",
      "type": "function"
    },
    {
      "inputs": [],
      "name": "owner",
      "outputs": [
        {
          "internalType": "address",
          "name": "",
          "type": "address"
        }
      ],
      "stateMutability": "view",
      "type": "function"
    },
    {
      "inputs": [
        {
          "internalType": "uint256",
          "name": "tokenId",
          "type": "uint256"
        }
      ],
      "name": "ownerOf",
      "outputs": [
        {
          "internalType": "address",
          "name": "",
          "type": "address"
        }
      ],
      "stateMutability": "view",
      "type": "function"
    },
    {
      "inputs": [
        {
          "internalType": "bytes32",
          "name": "requestId",
          "type": "bytes32"
        },
        {
          "internalType": "uint256",
          "name": "randomness",
          "type": "uint256"
        }
      ],
      "name": "rawFulfillRandomness",
      "outputs": [],
      "stateMutability": "nonpayable",
      "type": "function"
    },
    {
      "inputs": [],
      "name": "renounceOwnership",
      "outputs": [],
      "stateMutability": "nonpayable",
      "type": "function"
    },
    {
      "inputs": [
        {
          "internalType": "bytes32",
          "name": "",
          "type": "bytes32"
        }
      ],
      "name": "requestIdToSender",
      "outputs": [
        {
          "internalType": "address",
          "name": "",
          "type": "address"
        }
      ],
      "stateMutability": "view",
      "type": "function"
    },
    {
      "inputs": [
        {
          "internalType": "bytes32",
          "name": "",
          "type": "bytes32"
        }
      ],
      "name": "requestIdToTokenId",
      "outputs": [
        {
          "internalType": "uint256",
          "name": "",
          "type": "uint256"
        }
      ],
      "stateMutability": "view",
      "type": "function"
    },
    {
      "inputs": [
        {
          "internalType": "address",
          "name": "from",
          "type": "address"
        },
        {
          "internalType": "address",
          "name": "to",
          "type": "address"
        },
        {
          "internalType": "uint256",
          "name": "tokenId",
          "type": "uint256"
        }
      ],
      "name": "safeTransferFrom",
      "outputs": [],
      "stateMutability": "nonpayable",
      "type": "function"
    },
    {
      "inputs": [
        {
          "internalType": "address",
          "name": "from",
          "type": "address"
        },
        {
          "internalType": "address",
          "name": "to",
          "type": "address"
        },
        {
          "internalType": "uint256",
          "name": "tokenId",
          "type": "uint256"
        },
        {
          "internalType": "bytes",
          "name": "_data",
          "type": "bytes"
        }
      ],
      "name": "safeTransferFrom",
      "outputs": [],
      "stateMutability": "nonpayable",
      "type": "function"
    },
    {
      "inputs": [
        {
          "internalType": "address",
          "name": "operator",
          "type": "address"
        },
        {
          "internalType": "bool",
          "name": "approved",
          "type": "bool"
        }
      ],
      "name": "setApprovalForAll",
      "outputs": [],
      "stateMutability": "nonpayable",
      "type": "function"
    },
    {
      "inputs": [
        {
          "internalType": "bytes4",
          "name": "interfaceId",
          "type": "bytes4"
        }
      ],
      "name": "supportsInterface",
      "outputs": [
        {
          "internalType": "bool",
          "name": "",
          "type": "bool"
        }
      ],
      "stateMutability": "view",
      "type": "function"
    },
    {
      "inputs": [
        {
          "internalType": "string",
          "name": "svg",
          "type": "string"
        }
      ],
      "name": "svgToImageURI",
      "outputs": [
        {
          "internalType": "string",
          "name": "",
          "type": "string"
        }
      ],
      "stateMutability": "pure",
      "type": "function"
    },
    {
      "inputs": [],
      "name": "symbol",
      "outputs": [
        {
          "internalType": "string",
          "name": "",
          "type": "string"
        }
      ],
      "stateMutability": "view",
      "type": "function"
    },
    {
      "inputs": [],
      "name": "tokenCounter",
      "outputs": [
        {
          "internalType": "uint256",
          "name": "",
          "type": "uint256"
        }
      ],
      "stateMutability": "view",
      "type": "function"
    },
    {
      "inputs": [
        {
          "internalType": "uint256",
          "name": "",
          "type": "uint256"
        }
      ],
      "name": "tokenIdToRandomNumber",
      "outputs": [
        {
          "internalType": "uint256",
          "name": "",
          "type": "uint256"
        }
      ],
      "stateMutability": "view",
      "type": "function"
    },
    {
      "inputs": [
        {
          "internalType": "uint256",
          "name": "tokenId",
          "type": "uint256"
        }
      ],
      "name": "tokenURI",
      "outputs": [
        {
          "internalType": "string",
          "name": "",
          "type": "string"
        }
      ],
      "stateMutability": "view",
      "type": "function"
    },
    {
      "inputs": [
        {
          "internalType": "address",
          "name": "from",
          "type": "address"
        },
        {
          "internalType": "address",
          "name": "to",
          "type": "address"
        },
        {
          "internalType": "uint256",
          "name": "tokenId",
          "type": "uint256"
        }
      ],
      "name": "transferFrom",
      "outputs": [],
      "stateMutability": "nonpayable",
      "type": "function"
    },
    {
      "inputs": [
        {
          "internalType": "address",
          "name": "newOwner",
          "type": "address"
        }
      ],
      "name": "transferOwnership",
      "outputs": [],
      "stateMutability": "nonpayable",
      "type": "function"
    },
    {
      "inputs": [],
      "name": "withdraw",
      "outputs": [],
      "stateMutability": "payable",
      "type": "function"
    }
  ],
  "transactionHash": "0xe3babe4792d7cb0cdce9f352ff018c877e49fe3d76c97dc4bb783885f802b324",
  "args": [
    "0xe7f1725E7734CE288F8367e1Bb143E90bb3F0512",
    "0x5FbDB2315678afecb367f032d93F642f64180aa3",
    "0x6c3699283bda56ad74f6b855546325b68d482e983852a7a82979cc4807b641f4",
    "100000000000000000",
    [
      [
        [
          "m78 28-13-1-2-1-1-3a42 42 0 0 0-4-11c-3-5-7-8-12-11-5-2-12-3-18-2-6 0-12 3-18 5C4 5-2 6-8 5s-10-4-16-7c-5-3-11-5-17-5-6 1-11 3-16 6s-8 7-10 12c-3 5-3 11 1 16 5 7 15 9 24 9l14-3 17-8 8-4c3-1 5-1 8 1l8 4 9 2 18-3c5-1 10-2 15-1 2 0 5 1 6 3-13 2-17 18-14 29 2 6 13 13 18 10 3-2 1-5 0-6-2-4-3-8 1-10 3-2 7 2 7 2 1 0 9-4 14-11 6 1 7-3 5-6-1-3-9-7-14-7Z",
          "#191847",
          ""
        ]
      ],
      [
        [
          "m70 54-3-1c-3 0-5 2-5 5s1 5 3 6l-3 3c-4 0-10-11-10-20 0-10 8-18 22-18 13 0 18 5 18 10-6 2-15 2-29 2v1l12 1 2 6c-3 0-5 2-7 5Z",
          "#191847",
          ""
        ]
      ],
      [
        [
          "m83 28-10-1 1-8-3-8-2-4-3-1h-7l-4-2a10 10 0 0 0-8 3l-1 1v1h-1l-5 5-1 6c0 3 2 9 5 12 2 2 4 4 7 4l-4 8a36 36 0 0 0-1 17l4 7 3 1 4 1c2 1 5 1 6-1l2-2v-1l-1-1c-2-1-3-3-3-6 0-2 1-5 3-6 3-1 6 0 8 2 1-4 3-8 7-9l12-4 3-2v-3c-2-2-8-8-11-9Z",
          "#191847",
          ""
        ]
      ],
      [
        [
          "m103 25-4-4h-2v-1l-2-3-5-2h-3l-2 1h-1c-2-2-4-2-6-2-3 0-5 0-7 2a13 13 0 0 0-2 2l-4-1-1 1h-2l-4-1-4 2-1 1-1 1-2-1h-2l-4 3a10 10 0 0 0-1 3h-1l-3 2-2 4a8 8 0 0 0-2 1c-2 1-4 3-4 5a10 10 0 0 0 0 7v1l-1 2v4a6 6 0 0 0 1 3h1l-1 2a17 17 0 0 0-1 3l1 4a4 4 0 0 0 2 2v6l3 3h8l1-1c2 2 4 2 6 1 3-1 5-2 6-4 1 1 4 1 5-1l1-2v-2l1-2v-2h-2l-2-1-1-4c-1-3-1-6 2-7l7-1 3 5h2l1-2 2-4 1-4 2-2 4-2 3-2 1-1 1 1 3 3 2 4 2 3h4l2-1v-3l-1-1-1-1 1-2 1-3v-2l-2-1 2-2c2-2 2-5 2-7Z",
          "#191847",
          ""
        ]
      ],
      [
        [
          "M71 64c-3 6-8 10-12 10-7 0-13-10-13-22v-1c-8 6-15 17-26 17-14 0-20-30 0-30 15 0 22 2 28 5l5-8 2-2 2-1a50 50 0 0 1 18-2 10 10 0 1 1 11 10l-12 2 1 5-1 6-3-2c-4 0-6 3-6 6 0 4 2 7 6 7Z",
          "#191847",
          ""
        ]
      ],
      [
        [
          "m45 39-2-3-1-3 1-7 5-2h4l3 2c0-2 0-5 2-7 1-2 3-3 5-3 2-1 4 0 6 1l2 1h2l1-1c2-2 5-2 7-2l3 3 2 2h1l2-1 2-1c2-1 3 0 4 1v2a155 155 0 0 1-1 5v1h2l2 1 1 1v2h5v2l-2 3-4 4c2 0 2 3 0 4l-2 1h-5c-2-1-5-2-6-4h-3l-4-1-1 5-3 1H62l11 3v2l-3 4c-2-2-5-4-7-3-3 1-6 5-4 8l5 3-2 5-2 2h-1l-1 1h-5c-2-1-1-4 0-5-2-1-5-1-4-4-4 0-13-6-8-11-3-1-5-5-3-8 1-3 4-4 7-4",
          "#191847",
          ""
        ]
      ],
      [
        [
          "M82 42c-4 2-6 5-9 9a6 6 0 0 0-8 6l2 4-5 6c-7-4-12-15-5-26 5-23 36-9 42-13 2 8-3 15-17 14Z",
          "#191847",
          ""
        ]
      ],
      [
        [
          "M60 70c-3-13-11-22-10-28 1-4 3-7 7-8 2-8 8-11 19-10 16 2 26 9 22 23-4 0-9-1-15 1-2 1-4 3-5 7h-3c-3-4-5-6-8-5s-4 4-2 9l-1 11h-4Z",
          "#191847",
          ""
        ]
      ],
      [
        [
          "M75 48c1 13 3 20 7 20 6 0 11-4 14-4 2 0 1 2 0 4-1 1-6 3-6 5s4 1 4 2c0 2 1 6-3 6s-15-1-17-7c-1-4-2-11-2-23h-1a6 6 0 0 0-4 10l-5 6c-7-4-12-15-5-27 2-5 6-8 11-10h11c7 0 13 2 15 3 0 7-2 9-12 9-3 1-5 3-7 6Z",
          "#191847",
          ""
        ]
      ],
      [
        [
          "M67 31c12-4 28 0 26 10-2 7-9 10-16 13-1-2-3-3-6-3s-6 3-6 6l1 3c-2 2-4 5-4 8-4 0-10-11-8-22h-2a15 15 0 1 1 15-15Z",
          "#191847",
          ""
        ]
      ],
      [
        [
          "m94 45-1-4-2-5-7-7c-5-4-11-6-16-5-3 0-6 1-8 3l-7 4c-3 0-6-2-9-4-2-2-5-3-9-4-5-1-10 1-14 6-4 4-7 11-4 17 0 2 1 3 2 3l2 3c1 1 0 3-1 4l-1 5 4 8c2 2 5 3 7 3l6 1 2-1 2 1c3 2 7 3 11 2l9-3c3-2 3-5 2-9 1 0 3 1 2-1l-2-1-2-1c-3-3 0-8 2-9 5-1 5 5 8 6 2 1 4 0 5-1l4-6 2-6c1 0 2-3 1-4l9 2 2 3 1 1v-1",
          "#191847",
          ""
        ]
      ]
    ],
    [
      [
        [
          "m134 0 49 124 33 105h13L179 0z",
          "#997659",
          ""
        ],
        [
          "M124 0c0 44-8 102-9 105l-84 69 9 10c65-38 99-60 102-65 4-7 19-77 31-119h-49Z",
          "#B28B67",
          ""
        ],
        [
          "m29 171-6 3-5 6 36 43c5-2 6-4 4-7l-4-7-8-27a1 1 0 0 0-1-1l-4 2-6-5-3-5a2 2 0 0 0-3-2Zm182 53-2 7 1 8h56c2-5 1-7-2-8l-8-1-26-12a1 1 0 0 0-2 1l-1 4-7 2-7-2a2 2 0 0 0-2 1Z",
          "#E4E4E4",
          ""
        ],
        [
          "m167 218 62-6L183 0h-55z",
          "#69A1AC",
          ""
        ],
        [
          "m43 159 41 48c43-47 68-77 75-91 7-15 13-53 19-116h-63l-6 87-66 72Z",
          "#89C5CC",
          ""
        ]
      ],
      [
        [
          "m130 0 74 124 56 105h12L179 0z",
          "#997659",
          ""
        ],
        [
          "m253 224-2 7 1 8h56c2-5 1-7-2-8l-8-1-26-12a1 1 0 0 0-2 1l-1 4-7 2-7-2a2 2 0 0 0-2 1Z",
          "#E4E4E4",
          ""
        ],
        [
          "m245 212 23-7A1754 1754 0 0 0 183 0h-65a1028 1028 0 0 0 127 212Z",
          "#DB2721",
          ""
        ],
        [
          "M125 0c-7 44-20 99-22 101-1 1-31 12-92 31l3 11c72-11 110-19 114-25 6-8 35-76 46-118h-49Z",
          "#B28B67",
          ""
        ],
        [
          "m33 123 4 17c54 5 87 1 99-10 12-12 26-55 42-130h-63c-9 61-15 93-16 96-1 2-23 11-66 27Z",
          "#FF4133",
          ""
        ],
        [
          "m14 128-7-1-7 2 10 56c5 0 7-1 7-4v-8l7-28a1 1 0 0 0-1-1l-5-1-3-7 1-6a2 2 0 0 0-2-2Z",
          "#E4E4E4",
          ""
        ]
      ],
      [
        [
          "m128 0 38 123 18 105h14L179 0z",
          "#997659",
          ""
        ],
        [
          "M115 0c2 68-1 102-1 109-1 6-9 45-27 121l15-6c29-69 39-104 42-113 4-10 13-46 27-111h-56Z",
          "#B28B67",
          ""
        ],
        [
          "m87 224-2 7 1 8h56c2-5 1-7-2-8l-8-1-26-12a1 1 0 0 0-2 1l-1 4-7 2-7-2a2 2 0 0 0-2 1Zm94 0-2 7 1 8h56c2-5 1-7-2-8l-8-1-26-12a1 1 0 0 0-2 1l-1 4-7 2-7-2a2 2 0 0 0-2 1Z",
          "#E4E4E4",
          ""
        ],
        [
          "m123 0 16 63h49l-7-63z",
          "#69A1AC",
          ""
        ],
        [
          "M114 0c-5 16-6 37-3 63h50l14-63h-61Z",
          "#89C5CC",
          ""
        ]
      ],
      [
        [
          "m128 0 48 127 34 94h19L183 0z",
          "#1F28CF",
          ""
        ],
        [
          "m116 0-1 105c-1 2-26 23-76 62l10 17c59-38 90-60 93-65 4-7 27-77 39-119h-65Z",
          "#2B44FF",
          ""
        ],
        [
          "m22 178 16-12 14 16c1 12 5 26 12 41l-3 2-25-29-6-11-2 1-6-8Zm186 61 1-21h21c10 7 23 13 39 17v4h-38l-13-2v2h-10Z",
          "#191847",
          ""
        ]
      ],
      [
        [
          "m128 0 36 127 27 94h19L182 0z",
          "#191847",
          ""
        ],
        [
          "M118 0c-1 66-3 101-4 107s-14 44-40 114h20l55-114c3-9 15-44 33-107h-64Z",
          "#2F3676",
          ""
        ],
        [
          "m72 239 1-21h21c10 7 23 13 39 17v4H95l-13-2v2H72Zm116 0 1-21h21c10 7 23 13 39 17v4h-38l-13-2v2h-10Z",
          "#191847",
          ""
        ]
      ],
      [
        [
          "M97 98c24 7 45 10 62 10 18 0 34-5 49-15-23-7-43-11-58-11s-33 6-53 16Z",
          "#1F28CF",
          ""
        ],
        [
          "M180 118v-1c-4-9-55-100-60-117h58c4 13 21 93 24 108 7 26 23 107 26 113 2 5-10 12-14 4a620 620 0 0 1-34-107Z",
          "#997659",
          ""
        ],
        [
          "M133 129c-24 6-109 17-115 18-6 2-12-10-4-13a620 620 0 0 1 105-26c-1-28-5-94-2-108h51l-26 124c-2 3-5 5-9 5Z",
          "#B28B67",
          ""
        ],
        [
          "m14 131-7-1-7 2 10 56c5 0 7-1 7-4v-8l7-28a1 1 0 0 0-1-1l-5-1-3-7 1-6a2 2 0 0 0-2-2Zm197 93-2 7 1 8h56c2-5 1-7-2-8l-8-1-26-12a1 1 0 0 0-2 1l-1 4-7 2-7-2a2 2 0 0 0-2 1Z",
          "#E4E4E4",
          ""
        ],
        [
          "M117 0c23-6 44-6 64 0 7 32 24 45 27 94-34 16-76-12-111 4-10-23 4-79 20-98Z",
          "#2B44FF",
          ""
        ]
      ],
      [
        [
          "M117 0c1 25 118 97 118 99 1 1-11 30-36 86l10 4c38-60 55-93 54-99-3-9-33-39-91-90h-55Z",
          "#B28B67",
          ""
        ],
        [
          "m202 172 16 6c35-39 49-72 47-88-2-12-32-41-90-90h-60c2 57 110 99 112 102 1 2-13 26-25 70Z",
          "#2F3676",
          ""
        ],
        [
          "m195 183-3 6-2 7 53 20c3-4 3-7 0-9l-7-3-21-20a1 1 0 0 0-1 0l-3 3h-8l-5-4a2 2 0 0 0-3 0Z",
          "#E4E4E4",
          ""
        ],
        [
          "M130 0 78 124 27 229h12L171 0z",
          "#997659",
          ""
        ],
        [
          "m27 224-2 7 1 8h56c2-5 1-7-2-8l-8-1-26-12a1 1 0 0 0-2 1l-1 4-7 2-7-2a2 2 0 0 0-2 1Z",
          "#E4E4E4",
          ""
        ],
        [
          "m32 207 27 5C79 182 166 58 175 0h-59C84 42 52 177 32 207Z",
          "#5C63AB",
          ""
        ]
      ],
      [
        [
          "m128 0 37 126 17 95h17L182 0z",
          "#997659",
          ""
        ],
        [
          "M112 0c2 66 1 101 1 107-1 6-4 46-26 116h18c29-67 39-107 42-116 4-9 14-44 28-107h-63Z",
          "#B28B67",
          ""
        ],
        [
          "M127 0c10 43 26 113 50 208h25c2-98-6-162-20-208h-55Z",
          "#69A1AC",
          ""
        ],
        [
          "M111 0c3 66-4 130-24 209h27c30-66 51-130 65-209h-68Z",
          "#89C5CC",
          ""
        ],
        [
          "m84 236 1-16c6 2 13 1 22-2 9 7 21 11 35 14a2 2 0 0 1 2 2l-1 5H86l-2-3Zm94 0 1-16c6 2 13 1 22-2 9 7 21 11 35 14a2 2 0 0 1 2 2l-1 5h-57l-2-3Z",
          "#191847",
          ""
        ]
      ]
    ],
    [
      [
        [
          "m191 92 32 24c8 2 16 5 21 8 2 2 3 4-2 4-6-1-12-1-13 1s3 4 1 7c-1 2-6-3-15-13l-31-13 7-18ZM68 93h21l-21 66c-2 6 3 15 5 20-7 3-6-9-15-5-8 4-14 11-23 5-1-1-2-3 1-5 7-5 18-14 19-17 2-4 7-25 13-64Z",
          "#B28B67",
          ""
        ],
        [
          "m128 5 8-1c32 28 46 81 85 109l-10 12c-68-9-85-74-83-120Z",
          "#E87613",
          ""
        ],
        [
          "M90 114h77c3 0 2-5 2-8-6-29-29-61-29-103l-22-3c-18 29-24 66-28 114Z",
          "#DDE3E9",
          ""
        ],
        [
          "M91 29c-4-1-6-3-8-7-8-14-5-22 3-25 9-2 17 3 31 3h2l6 1c20 67 26 112 17 134H82l-11 21H55c-2-50 10-92 36-127Z",
          "#FF9B21",
          ""
        ],
        [
          "M95 100c2 16 5 28 9 35H82l13-35Z",
          "",
          ""
        ]
      ],
      [
        [
          "m198 78 36-16c7-7 13-11 19-15 1 0 4 0 1 4-3 5-6 10-5 12 1 1 5 0 7 2 1 2-6 4-19 7l-27 20-12-14ZM52 82l20 4-33 61c-4 5 0 15 1 20-7 2-5-9-14-7-8 2-15 7-23 0-1-1-2-4 1-5 9-4 21-10 23-13s11-23 25-60Z",
          "#B28B67",
          ""
        ],
        [
          "m128 5 8-1c19 18 27 62 39 68 12 5 29 0 49-7l6 14c-18 19-57 36-72 26-25-15-31-69-30-100Z",
          "#DB2721",
          ""
        ],
        [
          "M90 114h77c3 0 2-5 2-8-6-29-29-61-29-103l-22-3c-18 29-24 66-28 114Z",
          "#DDE3E9",
          ""
        ],
        [
          "M82 84c-15 28-28 49-39 61l-16-3C37 78 67 31 117 0h8c20 68 26 113 17 135H73c1-16 5-34 9-51Z",
          "#FF4133",
          ""
        ]
      ],
      [
        [
          "m194 89 28 28c9 3 15 7 21 11 1 2 2 5-3 3-6-1-12-2-13 0s2 4 0 7c-1 1-6-4-13-15l-29-18 9-16ZM68 93h21l-21 66c-2 6 3 15 5 20-7 3-6-9-15-5-8 4-14 11-23 5-1-1-2-3 1-5 7-5 18-14 19-17 2-4 7-25 13-64Z",
          "#B28B67",
          ""
        ],
        [
          "m128 5 8-1c15 37 41 71 78 101l-28 34c-37-43-60-88-58-134Z",
          "#191847",
          ""
        ],
        [
          "M90 114h77c-18-43-27-80-27-111l-23-3C99 29 94 66 90 114Z",
          "#DDE3E9",
          ""
        ],
        [
          "M117 0h9l6 16 10 119H92l1 12H55C61 84 81 35 117 0Z",
          "#2F3676",
          ""
        ],
        [
          "M95 82c2 26 5 43 11 53H92c-1-18 0-36 3-53Z",
          "",
          ""
        ],
        [
          "m103 104 25-12v12z",
          "#FFF",
          ""
        ]
      ],
      [
        [
          "m190 89 31 25 21 10c1 2 2 4-3 4-6-1-12-2-13 0s3 4 1 7c-1 2-6-3-14-14l-31-15 8-17ZM54 78l17 2-30 66c-3 5 0 14 2 19-7 2-5-9-14-6-8 2-15 8-24 1-1 0-1-3 2-5 8-4 20-11 21-14 3-3 11-25 26-63Z",
          "#B28B67",
          ""
        ],
        [
          "m128 5 11-3c15 37 37 73 74 103l-9 16c-33-19-64-34-76-63-5-10-1-41 0-53Z",
          "#C5CFD6",
          ""
        ],
        [
          "M90 110c31 3 56 3 74 0 2 0 3-4 2-7-16-39-27-74-27-101h-16c-20 29-29 61-33 108Z",
          "#323337",
          ""
        ],
        [
          "M118 0h8c2 11 8 165 27 216H51c3-47 20-102 38-148-16 14-30 38-41 72l-19-5A209 209 0 0 1 117 0l1-1v1Z",
          "#DDE3E9",
          ""
        ]
      ],
      [
        [
          "m192 65 39-5 22-9c2 0 5 1 1 4-5 4-9 8-8 10 0 2 4 1 5 4 1 2-6 3-20 1l-32 13-7-18ZM68 74l22 1-38 84c-2 6 3 15 5 20-7 3-6-9-15-5-8 4-14 11-23 5-1-1-2-3 1-5 7-5 18-14 19-17l29-83Z",
          "#997659",
          ""
        ],
        [
          "m128 5 17 1c4 38 27 62 79 54l7 49c-48 7-91-13-99-65-3-13-4-27-4-39Z",
          "#AFB9C5",
          ""
        ],
        [
          "m119 0 26 6c0 45 15 73 22 106H97l-2 35H42C54 84 79 35 118 0h1Z",
          "#C5CFD6",
          ""
        ],
        [
          "M108 48c-2 28-1 49 3 64H97c2-22 5-44 11-64Z",
          "",
          ""
        ]
      ],
      [
        [
          "m159 43 34-19 17-16c2-1 5-1 2 4-2 5-5 10-4 11 2 2 5 0 7 2 1 2-5 5-18 8l-26 23-12-13Zm54 16 15-9c2-8 5-12 8-12 2-1-2 9 3 8 4 0 14-8 16-7 3 3 1 10-2 13-6 7-10 10-21 13-5 1-12 4-18 9l-1-15Z",
          "#997659",
          ""
        ],
        [
          "M142 38c12 0 28-2 45-13l7 15c-12 12-29 22-43 21-12 0-18-14-9-23Z",
          "#2026A2",
          ""
        ],
        [
          "M158 63c13 3 35-1 65-12 8 16 11 27 10 34-26 13-48 19-66 20 0 11-1 21-6 31-9 19-62 1-81 5-11-37 11-52 11-76 0-25 21-65 24-65h28c1 20 9 41 15 63Z",
          "#1F28CF",
          ""
        ]
      ],
      [
        [
          "m191 2 38-11c7-6 14-10 20-12 2 0 5 0 1 4-3 4-7 9-6 11s5 0 6 3c1 2-6 3-19 4l-30 17-10-16Zm-3 67 32 24c9 2 16 5 22 8 1 2 3 4-3 4-6-1-12-1-12 1-1 2 2 4 1 7-1 2-6-3-15-13l-32-13 7-18Z",
          "#B28B67",
          ""
        ],
        [
          "M139 6c17 32 42 57 78 83l-13 16c-41-15-62-25-73-55-3-8-4-32-6-45l14 1Z",
          "#2026A2",
          ""
        ],
        [
          "M90 114h77c-17-53-26-90-27-110l-2-2c-6 2-13 1-20-2-18 29-24 66-28 114Z",
          "#F2F2F2",
          ""
        ],
        [
          "M125 0c22 0 58 4 99-9l4 20c-31 20-63 36-91 34 13 51 12 94-15 94H81C75 95 92 34 108 3c0-1 2-3 5-3h12Z",
          "#1F28CF",
          ""
        ]
      ],
      [
        [
          "m111 2 1-2h1l28 4c0 16 13 31 21 43 12 20 34 42 20 71-13 27-46 31-99 13 0-14 11-28 12-46 0-16 3-66 16-83Z",
          "#C1DEE2",
          ""
        ],
        [
          "m146 111 4-20c14 17 23 26 25 26 5 0 8-3 9-2 1 4-3 15-11 17-4 1-10-7-13-10l-14-11Zm26-52c3 0 6 2 8 5s4 19 1 19c-4 0-19-6-19-10s10-6 10-9-4-5 0-5Z",
          "#B28B67",
          ""
        ],
        [
          "m138 125-1 3C94 97 94 60 107 19c-10 41-6 75 31 106Z",
          "",
          ""
        ]
      ],
      [
        [
          "m196 85 32 24c8 2 16 5 21 8 2 2 4 4-2 4-6-1-12-1-13 1 0 2 3 4 1 7-1 2-6-3-15-13l-31-13 7-18ZM52 75l17 4-33 64c-3 5 0 15 2 20-8 1-5-10-14-7-9 2-16 8-24 0 0 0-1-3 2-5 8-3 20-10 22-13 3-3 12-24 28-63Z",
          "#B28B67",
          ""
        ],
        [
          "M203 88c4-1 9 0 14 2a4 4 0 0 1 0 8l2 2-8 17c-33-17-65-30-80-58-5-9-3-41-3-53l10-4c15 31 35 60 65 86Z",
          "#69A1AC",
          ""
        ],
        [
          "M90 114c31 3 56 3 74 0 2-1 2-10 1-13-16-41-26-71-26-99h-16c-20 30-29 63-33 112Z",
          "#191847",
          ""
        ],
        [
          "m84 119-1-4v-3c1-2 2-4 4-4l1-4c2-13-1-25-1-37-16 14-31 37-43 71l-19-6 2-8c-2-1-5-7-3-7l6-3C47 62 76 24 115 0h11c-3 44 43 141 27 224-29 6-72-14-113 2 1-33 32-72 44-107Z",
          "#89C5CC",
          ""
        ],
        [
          "m119 1-5 16 10 12-9 9 23 39-28-39 9-9-9-11z",
          "",
          ""
        ],
        [
          "M131 92a4 4 0 1 1 0-8 4 4 0 0 1 0 8Zm5 23a4 4 0 1 1 0-8 4 4 0 0 1 0 8Zm1 23a4 4 0 1 1 0-8 4 4 0 0 1 0 8Z",
          "",
          ""
        ]
      ],
      [
        [
          "m199 92 29 28c8 4 15 7 20 12 1 1 3 4-3 3-6-2-12-3-13-1s2 5 1 7c-2 2-6-3-13-15l-30-17 9-17ZM61 67l22 1-27 84c-2 6 3 15 5 20-7 3-6-9-15-5-8 4-14 11-23 5-1-1-2-3 1-5 7-5 18-14 19-17 2-4 8-32 18-83Z",
          "#B28B67",
          ""
        ],
        [
          "m128 5 8-1c14 48 84 81 88 99 2 6-3 10 0 12l-12 8c-2-2-6 2-14-1-9-3-70-60-70-117Z",
          "#DB2721",
          ""
        ],
        [
          "M142 12c-1 63 36 80 28 105-7 21-72 44-83 23-5-8-7-18-7-29l-7 22c-3 10-14 12-14 16l-14-4c1-6-6-8-4-21 8-55 30-95 67-120v-5c0-2 2-4 4-4l27 2c2 0 4 2 4 4l-1 11Z",
          "#FF4133",
          ""
        ]
      ]
    ]
  ],
  "numDeployments": 4,
  "solcInputHash": "818fef3bfed3c9a32aae1c42db5ca641",
  "bytecode": "0x60e06040523480156200001157600080fd5b50604051620069183803806200691883398181016040528101906200003791906200084a565b82828289896040518060400160405280600881526020017f48756d6161616e730000000000000000000000000000000000000000000000008152506040518060400160405280600381526020017f484d4e00000000000000000000000000000000000000000000000000000000008152508160009080519060200190620000c0929190620002f4565b508060019080519060200190620000d9929190620002f4565b5050508173ffffffffffffffffffffffffffffffffffffffff1660a08173ffffffffffffffffffffffffffffffffffffffff1660601b815250508073ffffffffffffffffffffffffffffffffffffffff1660808173ffffffffffffffffffffffffffffffffffffffff1660601b81525050505082600890805190602001906200016492919062000385565b5080600a90805190602001906200017d92919062000385565b5081600990805190602001906200019692919062000385565b50600880549050600c81905550600980549050600d81905550600a80549050600e81905550505050620001de620001d26200022660201b60201c565b6200022e60201b60201c565b6000601081905550846014819055508360158190555080518251845162000206919062000a2e565b62000212919062000a2e565b60c081815250505050505050505062000c65565b600033905090565b6000600f60009054906101000a900473ffffffffffffffffffffffffffffffffffffffff16905081600f60006101000a81548173ffffffffffffffffffffffffffffffffffffffff021916908373ffffffffffffffffffffffffffffffffffffffff1602179055508173ffffffffffffffffffffffffffffffffffffffff168173ffffffffffffffffffffffffffffffffffffffff167f8be0079c531659141344cd1fd0a4f28419497f9722a3daafe3b4186f6b6457e060405160405180910390a35050565b828054620003029062000b0d565b90600052602060002090601f01602090048101928262000326576000855562000372565b82601f106200034157805160ff191683800117855562000372565b8280016001018555821562000372579182015b828111156200037157825182559160200191906001019062000354565b5b509050620003819190620003ec565b5090565b828054828255906000526020600020908101928215620003d9579160200282015b82811115620003d8578251829080519060200190620003c79291906200040b565b5091602001919060010190620003a6565b5b509050620003e8919062000472565b5090565b5b8082111562000407576000816000905550600101620003ed565b5090565b8280548282559060005260206000209081019282156200045f579160200282015b828111156200045e5782518290805190602001906200044d9291906200049a565b50916020019190600101906200042c565b5b5090506200046e919062000501565b5090565b5b808211156200049657600081816200048c919062000529565b5060010162000473565b5090565b828054828255906000526020600020908101928215620004ee579160200282015b82811115620004ed578251829080519060200190620004dc929190620002f4565b5091602001919060010190620004bb565b5b509050620004fd91906200054c565b5090565b5b808211156200052557600081816200051b919062000574565b5060010162000502565b5090565b508054600082559060005260206000209081019062000549919062000501565b50565b5b8082111562000570576000818162000566919062000597565b506001016200054d565b5090565b50805460008255906000526020600020908101906200059491906200054c565b50565b508054620005a59062000b0d565b6000825580601f10620005b95750620005da565b601f016020900490600052602060002090810190620005d99190620003ec565b5b50565b6000620005f4620005ee846200096b565b62000942565b9050808382526020820190508260005b858110156200063857815185016200061d888262000795565b84526020840193506020830192505060018101905062000604565b5050509392505050565b60006200065962000653846200099a565b62000942565b9050808382526020820190508260005b858110156200069d5781518501620006828882620007c2565b84526020840193506020830192505060018101905062000669565b5050509392505050565b6000620006be620006b884620009c9565b62000942565b9050808382526020820190508260005b85811015620007025781518501620006e7888262000806565b845260208401935060208301925050600181019050620006ce565b5050509392505050565b6000620007236200071d84620009f8565b62000942565b9050828152602081018484840111156200073c57600080fd5b6200074984828562000ad7565b509392505050565b600081519050620007628162000c17565b92915050565b600082601f8301126200077a57600080fd5b81516200078c848260208601620005dd565b91505092915050565b600082601f830112620007a757600080fd5b8151620007b984826020860162000642565b91505092915050565b600082601f830112620007d457600080fd5b8151620007e6848260208601620006a7565b91505092915050565b600081519050620008008162000c31565b92915050565b600082601f8301126200081857600080fd5b81516200082a8482602086016200070c565b91505092915050565b600081519050620008448162000c4b565b92915050565b600080600080600080600060e0888a0312156200086657600080fd5b6000620008768a828b0162000751565b9750506020620008898a828b0162000751565b96505060406200089c8a828b01620007ef565b9550506060620008af8a828b0162000833565b945050608088015167ffffffffffffffff811115620008cd57600080fd5b620008db8a828b0162000768565b93505060a088015167ffffffffffffffff811115620008f957600080fd5b620009078a828b0162000768565b92505060c088015167ffffffffffffffff8111156200092557600080fd5b620009338a828b0162000768565b91505092959891949750929550565b60006200094e62000961565b90506200095c828262000b43565b919050565b6000604051905090565b600067ffffffffffffffff82111562000989576200098862000bd7565b5b602082029050602081019050919050565b600067ffffffffffffffff821115620009b857620009b762000bd7565b5b602082029050602081019050919050565b600067ffffffffffffffff821115620009e757620009e662000bd7565b5b602082029050602081019050919050565b600067ffffffffffffffff82111562000a165762000a1562000bd7565b5b62000a218262000c06565b9050602081019050919050565b600062000a3b8262000acd565b915062000a488362000acd565b9250817fffffffffffffffffffffffffffffffffffffffffffffffffffffffffffffffff048311821515161562000a845762000a8362000b79565b5b828202905092915050565b600062000a9c8262000aad565b9050919050565b6000819050919050565b600073ffffffffffffffffffffffffffffffffffffffff82169050919050565b6000819050919050565b60005b8381101562000af757808201518184015260208101905062000ada565b8381111562000b07576000848401525b50505050565b6000600282049050600182168062000b2657607f821691505b6020821081141562000b3d5762000b3c62000ba8565b5b50919050565b62000b4e8262000c06565b810181811067ffffffffffffffff8211171562000b705762000b6f62000bd7565b5b80604052505050565b7f4e487b7100000000000000000000000000000000000000000000000000000000600052601160045260246000fd5b7f4e487b7100000000000000000000000000000000000000000000000000000000600052602260045260246000fd5b7f4e487b7100000000000000000000000000000000000000000000000000000000600052604160045260246000fd5b6000601f19601f8301169050919050565b62000c228162000a8f565b811462000c2e57600080fd5b50565b62000c3c8162000aa3565b811462000c4857600080fd5b50565b62000c568162000acd565b811462000c6257600080fd5b50565b60805160601c60a05160601c60c051615c6f62000ca96000396000818161183b01526118f50152600081816112f50152612d0401526000612cc80152615c6f6000f3fe6080604052600436106101f95760003560e01c80638da5cb5b1161010d578063bf01c3e3116100a0578063e5acad6b1161006f578063e5acad6b14610784578063e8315742146107c1578063e985e9c5146107ec578063efc81a8c14610829578063f2fde38b14610854576101f9565b8063bf01c3e3146106b4578063c0e316c1146106df578063c87b56dd1461071c578063d082e38114610759576101f9565b8063a22cb465116100dc578063a22cb465146105fa578063b4e69d7f14610623578063b88d4fde1461064e578063ba13569814610677576101f9565b80638da5cb5b1461053e57806394985ddd1461056957806395d89b41146105925780639c1cd795146105bd576101f9565b80632c1db47211610190578063624194c71161015f578063624194c7146104475780636352211e1461047057806370a08231146104ad578063715018a6146104ea57806371aee19314610501576101f9565b80632c1db472146103ac57806330d871c6146103d75780633ccfd60b1461041457806342842e0e1461041e576101f9565b80631821b3a0116101cc5780631821b3a0146102cc578063219c0eee1461030957806322881f881461034657806323b872dd14610383576101f9565b806301ffc9a7146101fe57806306fdde031461023b578063081812fc14610266578063095ea7b3146102a3575b600080fd5b34801561020a57600080fd5b5061022560048036038101906102209190613c26565b61087d565b60405161023291906147ae565b60405180910390f35b34801561024757600080fd5b5061025061095f565b60405161025d9190614852565b60405180910390f35b34801561027257600080fd5b5061028d60048036038101906102889190613cb9565b6109f1565b60405161029a9190614709565b60405180910390f35b3480156102af57600080fd5b506102ca60048036038101906102c59190613b5c565b610a76565b005b3480156102d857600080fd5b506102f360048036038101906102ee9190613ce2565b610b8e565b6040516103009190614852565b60405180910390f35b34801561031557600080fd5b50610330600480360381019061032b9190613bc1565b610c6c565b60405161033d9190614709565b60405180910390f35b34801561035257600080fd5b5061036d60048036038101906103689190613bc1565b610c9f565b60405161037a9190614bab565b60405180910390f35b34801561038f57600080fd5b506103aa60048036038101906103a59190613a56565b610cb7565b005b3480156103b857600080fd5b506103c1610d17565b6040516103ce9190614bab565b60405180910390f35b3480156103e357600080fd5b506103fe60048036038101906103f99190613c78565b610d1d565b60405161040b9190614852565b60405180910390f35b61041c610db0565b005b34801561042a57600080fd5b5061044560048036038101906104409190613a56565b610e7c565b005b34801561045357600080fd5b5061046e60048036038101906104699190613cb9565b610e9c565b005b34801561047c57600080fd5b5061049760048036038101906104929190613cb9565b611083565b6040516104a49190614709565b60405180910390f35b3480156104b957600080fd5b506104d460048036038101906104cf91906139f1565b611135565b6040516104e19190614bab565b60405180910390f35b3480156104f657600080fd5b506104ff6111ed565b005b34801561050d57600080fd5b5061052860048036038101906105239190613c78565b611275565b6040516105359190614852565b60405180910390f35b34801561054a57600080fd5b506105536112c9565b6040516105609190614709565b60405180910390f35b34801561057557600080fd5b50610590600480360381019061058b9190613bea565b6112f3565b005b34801561059e57600080fd5b506105a761138f565b6040516105b49190614852565b60405180910390f35b3480156105c957600080fd5b506105e460048036038101906105df9190613cb9565b611421565b6040516105f19190614bab565b60405180910390f35b34801561060657600080fd5b50610621600480360381019061061c9190613b20565b611439565b005b34801561062f57600080fd5b5061063861144f565b6040516106459190614bab565b60405180910390f35b34801561065a57600080fd5b5061067560048036038101906106709190613aa5565b611455565b005b34801561068357600080fd5b5061069e60048036038101906106999190613ce2565b6114b7565b6040516106ab91906147ae565b60405180910390f35b3480156106c057600080fd5b506106c961151f565b6040516106d69190614bab565b60405180910390f35b3480156106eb57600080fd5b5061070660048036038101906107019190613ce2565b611525565b6040516107139190614852565b60405180910390f35b34801561072857600080fd5b50610743600480360381019061073e9190613cb9565b611603565b6040516107509190614852565b60405180910390f35b34801561076557600080fd5b5061076e611755565b60405161077b9190614bab565b60405180910390f35b34801561079057600080fd5b506107ab60048036038101906107a69190613ce2565b61175b565b6040516107b89190614852565b60405180910390f35b3480156107cd57600080fd5b506107d6611839565b6040516107e39190614bab565b60405180910390f35b3480156107f857600080fd5b50610813600480360381019061080e9190613a1a565b61185d565b60405161082091906147ae565b60405180910390f35b34801561083557600080fd5b5061083e6118f1565b60405161084b91906147c9565b60405180910390f35b34801561086057600080fd5b5061087b600480360381019061087691906139f1565b611a1f565b005b60007f80ac58cd000000000000000000000000000000000000000000000000000000007bffffffffffffffffffffffffffffffffffffffffffffffffffffffff1916827bffffffffffffffffffffffffffffffffffffffffffffffffffffffff1916148061094857507f5b5e139f000000000000000000000000000000000000000000000000000000007bffffffffffffffffffffffffffffffffffffffffffffffffffffffff1916827bffffffffffffffffffffffffffffffffffffffffffffffffffffffff1916145b80610958575061095782611b17565b5b9050919050565b60606000805461096e90614efc565b80601f016020809104026020016040519081016040528092919081815260200182805461099a90614efc565b80156109e75780601f106109bc576101008083540402835291602001916109e7565b820191906000526020600020905b8154815290600101906020018083116109ca57829003601f168201915b5050505050905090565b60006109fc82611b81565b610a3b576040517f08c379a0000000000000000000000000000000000000000000000000000000008152600401610a3290614acb565b60405180910390fd5b6004600083815260200190815260200160002060009054906101000a900473ffffffffffffffffffffffffffffffffffffffff169050919050565b6000610a8182611083565b90508073ffffffffffffffffffffffffffffffffffffffff168373ffffffffffffffffffffffffffffffffffffffff161415610af2576040517f08c379a0000000000000000000000000000000000000000000000000000000008152600401610ae990614b4b565b60405180910390fd5b8073ffffffffffffffffffffffffffffffffffffffff16610b11611bed565b73ffffffffffffffffffffffffffffffffffffffff161480610b405750610b3f81610b3a611bed565b61185d565b5b610b7f576040517f08c379a0000000000000000000000000000000000000000000000000000000008152600401610b76906149eb565b60405180910390fd5b610b898383611bf5565b505050565b60098381548110610b9e57600080fd5b906000526020600020018281548110610bb657600080fd5b906000526020600020018181548110610bce57600080fd5b9060005260206000200160009250925050508054610beb90614efc565b80601f0160208091040260200160405190810160405280929190818152602001828054610c1790614efc565b8015610c645780601f10610c3957610100808354040283529160200191610c64565b820191906000526020600020905b815481529060010190602001808311610c4757829003601f168201915b505050505081565b60116020528060005260406000206000915054906101000a900473ffffffffffffffffffffffffffffffffffffffff1681565b60136020528060005260406000206000915090505481565b610cc8610cc2611bed565b82611cae565b610d07576040517f08c379a0000000000000000000000000000000000000000000000000000000008152600401610cfe90614b8b565b60405180910390fd5b610d12838383611d8c565b505050565b600e5481565b606060006040518060400160405280601a81526020017f646174613a696d6167652f7376672b786d6c3b6261736536342c00000000000081525090506000610d8384604051602001610d6f91906144b4565b604051602081830303815290604052611ff3565b90508181604051602001610d989291906144cb565b60405160208183030381529060405292505050919050565b610db8611bed565b73ffffffffffffffffffffffffffffffffffffffff16610dd66112c9565b73ffffffffffffffffffffffffffffffffffffffff1614610e2c576040517f08c379a0000000000000000000000000000000000000000000000000000000008152600401610e2390614aeb565b60405180910390fd5b610e346112c9565b73ffffffffffffffffffffffffffffffffffffffff166108fc479081150290604051600060405180830381858888f19350505050158015610e79573d6000803e3d6000fd5b50565b610e9783838360405180602001604052806000815250611455565b505050565b6000610ea782611603565b511115610ee9576040517f08c379a0000000000000000000000000000000000000000000000000000000008152600401610ee09061498b565b60405180910390fd5b8060105411610f2d576040517f08c379a0000000000000000000000000000000000000000000000000000000008152600401610f2490614a6b565b60405180910390fd5b6000601260008381526020019081526020016000205411610f83576040517f08c379a0000000000000000000000000000000000000000000000000000000008152600401610f7a9061492b565b60405180910390fd5b6000601260008381526020019081526020016000205490506000610fa682612192565b9050610fe76040518060400160405280600f81526020017f47656e657261746564205356473a200000000000000000000000000000000000815250826127b7565b6000610ff282610d1d565b90506110336040518060400160405280600b81526020017f496d616765205552493a20000000000000000000000000000000000000000000815250826127b7565b6110458461104083611275565b612853565b837fe6e1ae3c28fd225da5957e598f0f29b3ea720244d8fa8862aba7d2e7aac9cdec836040516110759190614852565b60405180910390a250505050565b6000806002600084815260200190815260200160002060009054906101000a900473ffffffffffffffffffffffffffffffffffffffff169050600073ffffffffffffffffffffffffffffffffffffffff168173ffffffffffffffffffffffffffffffffffffffff16141561112c576040517f08c379a000000000000000000000000000000000000000000000000000000000815260040161112390614a2b565b60405180910390fd5b80915050919050565b60008073ffffffffffffffffffffffffffffffffffffffff168273ffffffffffffffffffffffffffffffffffffffff1614156111a6576040517f08c379a000000000000000000000000000000000000000000000000000000000815260040161119d90614a0b565b60405180910390fd5b600360008373ffffffffffffffffffffffffffffffffffffffff1673ffffffffffffffffffffffffffffffffffffffff168152602001908152602001600020549050919050565b6111f5611bed565b73ffffffffffffffffffffffffffffffffffffffff166112136112c9565b73ffffffffffffffffffffffffffffffffffffffff1614611269576040517f08c379a000000000000000000000000000000000000000000000000000000000815260040161126090614aeb565b60405180910390fd5b61127360006128c7565b565b60606112a36010548360405160200161128f929190614651565b604051602081830303815290604052611ff3565b6040516020016112b391906146d2565b6040516020818303038152906040529050919050565b6000600f60009054906101000a900473ffffffffffffffffffffffffffffffffffffffff16905090565b7f000000000000000000000000000000000000000000000000000000000000000073ffffffffffffffffffffffffffffffffffffffff163373ffffffffffffffffffffffffffffffffffffffff1614611381576040517f08c379a000000000000000000000000000000000000000000000000000000000815260040161137890614b2b565b60405180910390fd5b61138b828261298d565b5050565b60606001805461139e90614efc565b80601f01602080910402602001604051908101604052809291908181526020018280546113ca90614efc565b80156114175780601f106113ec57610100808354040283529160200191611417565b820191906000526020600020905b8154815290600101906020018083116113fa57829003601f168201915b5050505050905090565b60126020528060005260406000206000915090505481565b61144b611444611bed565b8383612a3d565b5050565b600d5481565b611466611460611bed565b83611cae565b6114a5576040517f08c379a000000000000000000000000000000000000000000000000000000000815260040161149c90614b8b565b60405180910390fd5b6114b184848484612baa565b50505050565b600b83815481106114c757600080fd5b9060005260206000200182815481106114df57600080fd5b9060005260206000200181815481106114f757600080fd5b906000526020600020906020918282040191900692509250509054906101000a900460ff1681565b600c5481565b600a838154811061153557600080fd5b90600052602060002001828154811061154d57600080fd5b90600052602060002001818154811061156557600080fd5b906000526020600020016000925092505050805461158290614efc565b80601f01602080910402602001604051908101604052809291908181526020018280546115ae90614efc565b80156115fb5780601f106115d0576101008083540402835291602001916115fb565b820191906000526020600020905b8154815290600101906020018083116115de57829003601f168201915b505050505081565b606061160e82611b81565b61164d576040517f08c379a000000000000000000000000000000000000000000000000000000000815260040161164490614aab565b60405180910390fd5b600060066000848152602001908152602001600020805461166d90614efc565b80601f016020809104026020016040519081016040528092919081815260200182805461169990614efc565b80156116e65780601f106116bb576101008083540402835291602001916116e6565b820191906000526020600020905b8154815290600101906020018083116116c957829003601f168201915b5050505050905060006116f7612c06565b905060008151141561170d578192505050611750565b60008251111561174257808260405160200161172a9291906144cb565b60405160208183030381529060405292505050611750565b61174b84612c1d565b925050505b919050565b60105481565b6008838154811061176b57600080fd5b90600052602060002001828154811061178357600080fd5b90600052602060002001818154811061179b57600080fd5b90600052602060002001600092509250505080546117b890614efc565b80601f01602080910402602001604051908101604052809291908181526020018280546117e490614efc565b80156118315780601f1061180657610100808354040283529160200191611831565b820191906000526020600020905b81548152906001019060200180831161181457829003601f168201915b505050505081565b7f000000000000000000000000000000000000000000000000000000000000000081565b6000600560008473ffffffffffffffffffffffffffffffffffffffff1673ffffffffffffffffffffffffffffffffffffffff16815260200190815260200160002060008373ffffffffffffffffffffffffffffffffffffffff1673ffffffffffffffffffffffffffffffffffffffff16815260200190815260200160002060009054906101000a900460ff16905092915050565b60007f000000000000000000000000000000000000000000000000000000000000000060105410611957576040517f08c379a000000000000000000000000000000000000000000000000000000000815260040161194e906149cb565b60405180910390fd5b611965601454601554612cc4565b9050336011600083815260200190815260200160002060006101000a81548173ffffffffffffffffffffffffffffffffffffffff021916908373ffffffffffffffffffffffffffffffffffffffff1602179055506000601054905080601360008481526020019081526020016000208190555060016010546119e79190614d1a565b60108190555080827fce39cc4270cfd628caca43c3d4ccbbf3e948a8aadd24d313a5c3d24f8d2e959060405160405180910390a35090565b611a27611bed565b73ffffffffffffffffffffffffffffffffffffffff16611a456112c9565b73ffffffffffffffffffffffffffffffffffffffff1614611a9b576040517f08c379a0000000000000000000000000000000000000000000000000000000008152600401611a9290614aeb565b60405180910390fd5b600073ffffffffffffffffffffffffffffffffffffffff168173ffffffffffffffffffffffffffffffffffffffff161415611b0b576040517f08c379a0000000000000000000000000000000000000000000000000000000008152600401611b02906148cb565b60405180910390fd5b611b14816128c7565b50565b60007f01ffc9a7000000000000000000000000000000000000000000000000000000007bffffffffffffffffffffffffffffffffffffffffffffffffffffffff1916827bffffffffffffffffffffffffffffffffffffffffffffffffffffffff1916149050919050565b60008073ffffffffffffffffffffffffffffffffffffffff166002600084815260200190815260200160002060009054906101000a900473ffffffffffffffffffffffffffffffffffffffff1673ffffffffffffffffffffffffffffffffffffffff1614159050919050565b600033905090565b816004600083815260200190815260200160002060006101000a81548173ffffffffffffffffffffffffffffffffffffffff021916908373ffffffffffffffffffffffffffffffffffffffff160217905550808273ffffffffffffffffffffffffffffffffffffffff16611c6883611083565b73ffffffffffffffffffffffffffffffffffffffff167f8c5be1e5ebec7d5bd14f71427d1e84f3dd0314c0f7b2291e5b200ac8c7c3b92560405160405180910390a45050565b6000611cb982611b81565b611cf8576040517f08c379a0000000000000000000000000000000000000000000000000000000008152600401611cef906149ab565b60405180910390fd5b6000611d0383611083565b90508073ffffffffffffffffffffffffffffffffffffffff168473ffffffffffffffffffffffffffffffffffffffff161480611d7257508373ffffffffffffffffffffffffffffffffffffffff16611d5a846109f1565b73ffffffffffffffffffffffffffffffffffffffff16145b80611d835750611d82818561185d565b5b91505092915050565b8273ffffffffffffffffffffffffffffffffffffffff16611dac82611083565b73ffffffffffffffffffffffffffffffffffffffff1614611e02576040517f08c379a0000000000000000000000000000000000000000000000000000000008152600401611df9906148eb565b60405180910390fd5b600073ffffffffffffffffffffffffffffffffffffffff168273ffffffffffffffffffffffffffffffffffffffff161415611e72576040517f08c379a0000000000000000000000000000000000000000000000000000000008152600401611e699061494b565b60405180910390fd5b611e7d838383612e26565b611e88600082611bf5565b6001600360008573ffffffffffffffffffffffffffffffffffffffff1673ffffffffffffffffffffffffffffffffffffffff1681526020019081526020016000206000828254611ed89190614dfb565b925050819055506001600360008473ffffffffffffffffffffffffffffffffffffffff1673ffffffffffffffffffffffffffffffffffffffff1681526020019081526020016000206000828254611f2f9190614d1a565b92505081905550816002600083815260200190815260200160002060006101000a81548173ffffffffffffffffffffffffffffffffffffffff021916908373ffffffffffffffffffffffffffffffffffffffff160217905550808273ffffffffffffffffffffffffffffffffffffffff168473ffffffffffffffffffffffffffffffffffffffff167fddf252ad1be2c89b69c2b068fc378daa952ba7f163c4a11628f55a4df523b3ef60405160405180910390a4611fee838383612e2b565b505050565b60606000825114156120165760405180602001604052806000815250905061218d565b6000604051806060016040528060408152602001615bfa60409139905060006003600285516120459190614d1a565b61204f9190614d70565b600461205b9190614da1565b9050600060208261206c9190614d1a565b67ffffffffffffffff8111156120ab577f4e487b7100000000000000000000000000000000000000000000000000000000600052604160045260246000fd5b6040519080825280601f01601f1916602001820160405280156120dd5781602001600182028036833780820191505090505b509050818152600183018586518101602084015b8183101561214c576003830192508251603f8160121c168501518253600182019150603f81600c1c168501518253600182019150603f8160061c168501518253600182019150603f81168501518253600182019150506120f1565b600389510660018114612166576002811461217657612181565b613d3d60f01b6002830352612181565b603d60f81b60018303525b50505050508093505050505b919050565b60606000600c54836040516020016121aa9190614c22565b6040516020818303038152906040528051906020012060001c6121cd9190614fe6565b90506000600d54846040516020016121e59190614bf4565b6040516020818303038152906040528051906020012060001c6122089190614fe6565b90506000600e54856040516020016122209190614bc6565b6040516020818303038152906040528051906020012060001c6122439190614fe6565b9050600b838154811061227f577f4e487b7100000000000000000000000000000000000000000000000000000000600052603260045260246000fd5b9060005260206000200182815481106122c1577f4e487b7100000000000000000000000000000000000000000000000000000000600052603260045260246000fd5b906000526020600020018181548110612303577f4e487b7100000000000000000000000000000000000000000000000000000000600052603260045260246000fd5b90600052602060002090602091828204019190069054906101000a900460ff1615612363576040517f08c379a000000000000000000000000000000000000000000000000000000000815260040161235a90614b6b565b60405180910390fd5b6124c6600884815481106123a0577f4e487b7100000000000000000000000000000000000000000000000000000000600052603260045260246000fd5b90600052602060002001805480602002602001604051908101604052809291908181526020016000905b828210156124bd57838290600052602060002001805480602002602001604051908101604052809291908181526020016000905b828210156124aa57838290600052602060002001805461241d90614efc565b80601f016020809104026020016040519081016040528092919081815260200182805461244990614efc565b80156124965780601f1061246b57610100808354040283529160200191612496565b820191906000526020600020905b81548152906001019060200180831161247957829003601f168201915b5050505050815260200190600101906123fe565b50505050815260200190600101906123ca565b50505050612e30565b61262960098481548110612503577f4e487b7100000000000000000000000000000000000000000000000000000000600052603260045260246000fd5b90600052602060002001805480602002602001604051908101604052809291908181526020016000905b8282101561262057838290600052602060002001805480602002602001604051908101604052809291908181526020016000905b8282101561260d57838290600052602060002001805461258090614efc565b80601f01602080910402602001604051908101604052809291908181526020018280546125ac90614efc565b80156125f95780601f106125ce576101008083540402835291602001916125f9565b820191906000526020600020905b8154815290600101906020018083116125dc57829003601f168201915b505050505081526020019060010190612561565b505050508152602001906001019061252d565b50505050612e30565b61278c600a8481548110612666577f4e487b7100000000000000000000000000000000000000000000000000000000600052603260045260246000fd5b90600052602060002001805480602002602001604051908101604052809291908181526020016000905b8282101561278357838290600052602060002001805480602002602001604051908101604052809291908181526020016000905b828210156127705783829060005260206000200180546126e390614efc565b80601f016020809104026020016040519081016040528092919081815260200182805461270f90614efc565b801561275c5780601f106127315761010080835404028352916020019161275c565b820191906000526020600020905b81548152906001019060200180831161273f57829003601f168201915b5050505050815260200190600101906126c4565b5050505081526020019060010190612690565b50505050612e30565b60405160200161279e939291906145a7565b6040516020818303038152906040529350505050919050565b61284f82826040516024016127cd929190614874565b6040516020818303038152906040527f4b5c4277000000000000000000000000000000000000000000000000000000007bffffffffffffffffffffffffffffffffffffffffffffffffffffffff19166020820180517bffffffffffffffffffffffffffffffffffffffffffffffffffffffff8381831617835250505050613014565b5050565b61285c82611b81565b61289b576040517f08c379a000000000000000000000000000000000000000000000000000000000815260040161289290614a4b565b60405180910390fd5b806006600084815260200190815260200160002090805190602001906128c29291906137eb565b505050565b6000600f60009054906101000a900473ffffffffffffffffffffffffffffffffffffffff16905081600f60006101000a81548173ffffffffffffffffffffffffffffffffffffffff021916908373ffffffffffffffffffffffffffffffffffffffff1602179055508173ffffffffffffffffffffffffffffffffffffffff168173ffffffffffffffffffffffffffffffffffffffff167f8be0079c531659141344cd1fd0a4f28419497f9722a3daafe3b4186f6b6457e060405160405180910390a35050565b60006011600084815260200190815260200160002060009054906101000a900473ffffffffffffffffffffffffffffffffffffffff1690506000601360008581526020019081526020016000205490506129e7828261303d565b826012600083815260200190815260200160002081905550807fc58c9f48f62f00d6dbb43335e84043f12dbf76dc70abcdd19909664404ca788c84604051612a2f9190614bab565b60405180910390a250505050565b8173ffffffffffffffffffffffffffffffffffffffff168373ffffffffffffffffffffffffffffffffffffffff161415612aac576040517f08c379a0000000000000000000000000000000000000000000000000000000008152600401612aa39061496b565b60405180910390fd5b80600560008573ffffffffffffffffffffffffffffffffffffffff1673ffffffffffffffffffffffffffffffffffffffff16815260200190815260200160002060008473ffffffffffffffffffffffffffffffffffffffff1673ffffffffffffffffffffffffffffffffffffffff16815260200190815260200160002060006101000a81548160ff0219169083151502179055508173ffffffffffffffffffffffffffffffffffffffff168373ffffffffffffffffffffffffffffffffffffffff167f17307eab39ab6107e8899845ad3d59bd9653f200f220920489ca2b5937696c3183604051612b9d91906147ae565b60405180910390a3505050565b612bb5848484611d8c565b612bc18484848461305b565b612c00576040517f08c379a0000000000000000000000000000000000000000000000000000000008152600401612bf7906148ab565b60405180910390fd5b50505050565b606060405180602001604052806000815250905090565b6060612c2882611b81565b612c67576040517f08c379a0000000000000000000000000000000000000000000000000000000008152600401612c5e90614b0b565b60405180910390fd5b6000612c71612c06565b90506000815111612c915760405180602001604052806000815250612cbc565b80612c9b846131f2565b604051602001612cac9291906144cb565b6040516020818303038152906040525b915050919050565b60007f000000000000000000000000000000000000000000000000000000000000000073ffffffffffffffffffffffffffffffffffffffff16634000aea07f000000000000000000000000000000000000000000000000000000000000000084866000604051602001612d389291906147e4565b6040516020818303038152906040526040518463ffffffff1660e01b8152600401612d6593929190614770565b602060405180830381600087803b158015612d7f57600080fd5b505af1158015612d93573d6000803e3d6000fd5b505050506040513d601f19601f82011682018060405250810190612db79190613b98565b506000612dda84600030600760008981526020019081526020016000205461339f565b905060016007600086815260200190815260200160002054612dfc9190614d1a565b6007600086815260200190815260200160002081905550612e1d84826133db565b91505092915050565b505050565b505050565b606060005b82518160ff16101561300e5781612fd984600081518110612e7f577f4e487b7100000000000000000000000000000000000000000000000000000000600052603260045260246000fd5b60200260200101518360ff1681518110612ec2577f4e487b7100000000000000000000000000000000000000000000000000000000600052603260045260246000fd5b602002602001015185600181518110612f04577f4e487b7100000000000000000000000000000000000000000000000000000000600052603260045260246000fd5b60200260200101518460ff1681518110612f47577f4e487b7100000000000000000000000000000000000000000000000000000000600052603260045260246000fd5b602002602001015186600281518110612f89577f4e487b7100000000000000000000000000000000000000000000000000000000600052603260045260246000fd5b60200260200101518560ff1681518110612fcc577f4e487b7100000000000000000000000000000000000000000000000000000000600052603260045260246000fd5b602002602001015161340e565b604051602001612fea9291906144cb565b6040516020818303038152906040529150808061300690614fa8565b915050612e35565b50919050565b60008151905060006a636f6e736f6c652e6c6f679050602083016000808483855afa5050505050565b613057828260405180602001604052806000815250613593565b5050565b600061307c8473ffffffffffffffffffffffffffffffffffffffff166135ee565b156131e5578373ffffffffffffffffffffffffffffffffffffffff1663150b7a026130a5611bed565b8786866040518563ffffffff1660e01b81526004016130c79493929190614724565b602060405180830381600087803b1580156130e157600080fd5b505af192505050801561311257506040513d601f19601f8201168201806040525081019061310f9190613c4f565b60015b613195573d8060008114613142576040519150601f19603f3d011682016040523d82523d6000602084013e613147565b606091505b5060008151141561318d576040517f08c379a0000000000000000000000000000000000000000000000000000000008152600401613184906148ab565b60405180910390fd5b805181602001fd5b63150b7a0260e01b7bffffffffffffffffffffffffffffffffffffffffffffffffffffffff1916817bffffffffffffffffffffffffffffffffffffffffffffffffffffffff1916149150506131ea565b600190505b949350505050565b6060600082141561323a576040518060400160405280600181526020017f3000000000000000000000000000000000000000000000000000000000000000815250905061339a565b600082905060005b6000821461326c57808061325590614f5f565b915050600a826132659190614d70565b9150613242565b60008167ffffffffffffffff8111156132ae577f4e487b7100000000000000000000000000000000000000000000000000000000600052604160045260246000fd5b6040519080825280601f01601f1916602001820160405280156132e05781602001600182028036833780820191505090505b5090505b60008514613393576001826132f99190614dfb565b9150600a856133089190614fe6565b60306133149190614d1a565b60f81b818381518110613350577f4e487b7100000000000000000000000000000000000000000000000000000000600052603260045260246000fd5b60200101907effffffffffffffffffffffffffffffffffffffffffffffffffffffffffffff1916908160001a905350600a8561338c9190614d70565b94506132e4565b8093505050505b919050565b6000848484846040516020016133b8949392919061480d565b6040516020818303038152906040528051906020012060001c9050949350505050565b600082826040516020016133f0929190614488565b60405160208183030381529060405280519060200120905092915050565b60608360405160200161342191906146a5565b6040516020818303038152906040529050604051602001613441906146f4565b604051602081830303815290604052805190602001208360405160200161346891906144b4565b6040516020818303038152906040528051906020012014156134a957806040516020016134959190614563565b6040516020818303038152906040526134cc565b80836040516020016134bc929190614529565b6040516020818303038152906040525b90506040516020016134dd906146f4565b604051602081830303815290604052805190602001208260405160200161350491906144b4565b60405160208183030381529060405280519060200120141561354557806040516020016135319190614563565b604051602081830303815290604052613568565b80826040516020016135589291906144ef565b6040516020818303038152906040525b90508060405160200161357b9190614585565b60405160208183030381529060405290509392505050565b61359d8383613611565b6135aa600084848461305b565b6135e9576040517f08c379a00000000000000000000000000000000000000000000000000000000081526004016135e0906148ab565b60405180910390fd5b505050565b6000808273ffffffffffffffffffffffffffffffffffffffff163b119050919050565b600073ffffffffffffffffffffffffffffffffffffffff168273ffffffffffffffffffffffffffffffffffffffff161415613681576040517f08c379a000000000000000000000000000000000000000000000000000000000815260040161367890614a8b565b60405180910390fd5b61368a81611b81565b156136ca576040517f08c379a00000000000000000000000000000000000000000000000000000000081526004016136c19061490b565b60405180910390fd5b6136d660008383612e26565b6001600360008473ffffffffffffffffffffffffffffffffffffffff1673ffffffffffffffffffffffffffffffffffffffff16815260200190815260200160002060008282546137269190614d1a565b92505081905550816002600083815260200190815260200160002060006101000a81548173ffffffffffffffffffffffffffffffffffffffff021916908373ffffffffffffffffffffffffffffffffffffffff160217905550808273ffffffffffffffffffffffffffffffffffffffff16600073ffffffffffffffffffffffffffffffffffffffff167fddf252ad1be2c89b69c2b068fc378daa952ba7f163c4a11628f55a4df523b3ef60405160405180910390a46137e760008383612e2b565b5050565b8280546137f790614efc565b90600052602060002090601f0160209004810192826138195760008555613860565b82601f1061383257805160ff1916838001178555613860565b82800160010185558215613860579182015b8281111561385f578251825591602001919060010190613844565b5b50905061386d9190613871565b5090565b5b8082111561388a576000816000905550600101613872565b5090565b60006138a161389c84614c75565b614c50565b9050828152602081018484840111156138b957600080fd5b6138c4848285614eba565b509392505050565b60006138df6138da84614ca6565b614c50565b9050828152602081018484840111156138f757600080fd5b613902848285614eba565b509392505050565b60008135905061391981615b86565b92915050565b60008135905061392e81615b9d565b92915050565b60008151905061394381615b9d565b92915050565b60008135905061395881615bb4565b92915050565b60008135905061396d81615bcb565b92915050565b60008151905061398281615bcb565b92915050565b600082601f83011261399957600080fd5b81356139a984826020860161388e565b91505092915050565b600082601f8301126139c357600080fd5b81356139d38482602086016138cc565b91505092915050565b6000813590506139eb81615be2565b92915050565b600060208284031215613a0357600080fd5b6000613a118482850161390a565b91505092915050565b60008060408385031215613a2d57600080fd5b6000613a3b8582860161390a565b9250506020613a4c8582860161390a565b9150509250929050565b600080600060608486031215613a6b57600080fd5b6000613a798682870161390a565b9350506020613a8a8682870161390a565b9250506040613a9b868287016139dc565b9150509250925092565b60008060008060808587031215613abb57600080fd5b6000613ac98782880161390a565b9450506020613ada8782880161390a565b9350506040613aeb878288016139dc565b925050606085013567ffffffffffffffff811115613b0857600080fd5b613b1487828801613988565b91505092959194509250565b60008060408385031215613b3357600080fd5b6000613b418582860161390a565b9250506020613b528582860161391f565b9150509250929050565b60008060408385031215613b6f57600080fd5b6000613b7d8582860161390a565b9250506020613b8e858286016139dc565b9150509250929050565b600060208284031215613baa57600080fd5b6000613bb884828501613934565b91505092915050565b600060208284031215613bd357600080fd5b6000613be184828501613949565b91505092915050565b60008060408385031215613bfd57600080fd5b6000613c0b85828601613949565b9250506020613c1c858286016139dc565b9150509250929050565b600060208284031215613c3857600080fd5b6000613c468482850161395e565b91505092915050565b600060208284031215613c6157600080fd5b6000613c6f84828501613973565b91505092915050565b600060208284031215613c8a57600080fd5b600082013567ffffffffffffffff811115613ca457600080fd5b613cb0848285016139b2565b91505092915050565b600060208284031215613ccb57600080fd5b6000613cd9848285016139dc565b91505092915050565b600080600060608486031215613cf757600080fd5b6000613d05868287016139dc565b9350506020613d16868287016139dc565b9250506040613d27868287016139dc565b9150509250925092565b613d3a81614e2f565b82525050565b613d4981614e41565b82525050565b613d5881614e4d565b82525050565b613d6f613d6a82614e4d565b614fd2565b82525050565b6000613d8082614cd7565b613d8a8185614ced565b9350613d9a818560208601614ec9565b613da3816150d3565b840191505092915050565b6000613db982614ce2565b613dc38185614cfe565b9350613dd3818560208601614ec9565b613ddc816150d3565b840191505092915050565b6000613df282614ce2565b613dfc8185614d0f565b9350613e0c818560208601614ec9565b80840191505092915050565b6000613e25604083614d0f565b9150613e30826150e4565b604082019050919050565b6000613e48604183614d0f565b9150613e5382615133565b604182019050919050565b6000613e6b600e83614d0f565b9150613e76826151a8565b600e82019050919050565b6000613e8e600983614d0f565b9150613e99826151d1565b600982019050919050565b6000613eb1603283614cfe565b9150613ebc826151fa565b604082019050919050565b6000613ed4602683614cfe565b9150613edf82615249565b604082019050919050565b6000613ef7602583614cfe565b9150613f0282615298565b604082019050919050565b6000613f1a601c83614cfe565b9150613f25826152e7565b602082019050919050565b6000613f3d602f83614cfe565b9150613f4882615310565b604082019050919050565b6000613f60602483614cfe565b9150613f6b8261535f565b604082019050919050565b6000613f83601983614cfe565b9150613f8e826153ae565b602082019050919050565b6000613fa6600683614cfe565b9150613fb1826153d7565b602082019050919050565b6000613fc9600983614d0f565b9150613fd482615400565b600982019050919050565b6000613fec601883614cfe565b9150613ff782615429565b602082019050919050565b600061400f602c83614cfe565b915061401a82615452565b604082019050919050565b6000614032602083614cfe565b915061403d826154a1565b602082019050919050565b6000614055602083614d0f565b9150614060826154ca565b602082019050919050565b6000614078600783614d0f565b9150614083826154f3565b600782019050919050565b600061409b603883614cfe565b91506140a68261551c565b604082019050919050565b60006140be602a83614cfe565b91506140c98261556b565b604082019050919050565b60006140e1602983614cfe565b91506140ec826155ba565b604082019050919050565b6000614104602e83614cfe565b915061410f82615609565b604082019050919050565b6000614127600483614cfe565b915061413282615658565b602082019050919050565b600061414a602083614cfe565b915061415582615681565b602082019050919050565b600061416d600283614d0f565b9150614178826156aa565b600282019050919050565b6000614190600683614d0f565b915061419b826156d3565b600682019050919050565b60006141b3602083614cfe565b91506141be826156fc565b602082019050919050565b60006141d6603183614cfe565b91506141e182615725565b604082019050919050565b60006141f9602c83614cfe565b915061420482615774565b604082019050919050565b600061421c600583614cfe565b9150614227826157c3565b602082019050919050565b600061423f602083614cfe565b915061424a826157ec565b602082019050919050565b6000614262605283614d0f565b915061426d82615815565b605282019050919050565b6000614285602f83614cfe565b91506142908261588a565b604082019050919050565b60006142a8600483614d0f565b91506142b3826158d9565b600482019050919050565b60006142cb601f83614cfe565b91506142d682615902565b602082019050919050565b60006142ee602083614d0f565b91506142f98261592b565b602082019050919050565b6000614311602183614cfe565b915061431c82615954565b604082019050919050565b6000614334601683614cfe565b915061433f826159a3565b602082019050919050565b6000614357601d83614d0f565b9150614362826159cc565b601d82019050919050565b600061437a602083614d0f565b9150614385826159f5565b602082019050919050565b600061439d600083614d0f565b91506143a882615a1e565b600082019050919050565b60006143c0603183614cfe565b91506143cb82615a21565b604082019050919050565b60006143e3600283614d0f565b91506143ee82615a70565b600282019050919050565b6000614406600283614d0f565b915061441182615a99565b600282019050919050565b6000614429600683614d0f565b915061443482615ac2565b600682019050919050565b600061444c606783614d0f565b915061445782615aeb565b606782019050919050565b61446b81614ea3565b82525050565b61448261447d82614ea3565b614fdc565b82525050565b60006144948285613d5e565b6020820191506144a48284614471565b6020820191508190509392505050565b60006144c08284613de7565b915081905092915050565b60006144d78285613de7565b91506144e38284613de7565b91508190509392505050565b60006144fb8285613de7565b915061450682613e5e565b91506145128284613de7565b915061451d826143f9565b91508190509392505050565b60006145358285613de7565b915061454082614183565b915061454c8284613de7565b9150614557826143f9565b91508190509392505050565b600061456f8284613de7565b915061457a82614390565b915081905092915050565b60006145918284613de7565b915061459c826143d6565b915081905092915050565b60006145b282613e3b565b91506145bd82613e18565b91506145c88261436d565b91506145d38261443f565b91506145df8286613de7565b91506145ea8261429b565b91506145f5826142e1565b91506146018285613de7565b915061460c8261429b565b915061461782614048565b91506146238284613de7565b915061462e8261429b565b91506146398261429b565b91506146448261441c565b9150819050949350505050565b600061465c82613e81565b91506146678261406b565b91506146738285614471565b60208201915061468282614255565b915061468e8284613de7565b915061469982614160565b91508190509392505050565b60006146b082613fbc565b91506146bc8284613de7565b91506146c7826143f9565b915081905092915050565b60006146dd8261434a565b91506146e98284613de7565b915081905092915050565b60006146ff82614390565b9150819050919050565b600060208201905061471e6000830184613d31565b92915050565b60006080820190506147396000830187613d31565b6147466020830186613d31565b6147536040830185614462565b81810360608301526147658184613d75565b905095945050505050565b60006060820190506147856000830186613d31565b6147926020830185614462565b81810360408301526147a48184613d75565b9050949350505050565b60006020820190506147c36000830184613d40565b92915050565b60006020820190506147de6000830184613d4f565b92915050565b60006040820190506147f96000830185613d4f565b6148066020830184614462565b9392505050565b60006080820190506148226000830187613d4f565b61482f6020830186614462565b61483c6040830185613d31565b6148496060830184614462565b95945050505050565b6000602082019050818103600083015261486c8184613dae565b905092915050565b6000604082019050818103600083015261488e8185613dae565b905081810360208301526148a28184613dae565b90509392505050565b600060208201905081810360008301526148c481613ea4565b9050919050565b600060208201905081810360008301526148e481613ec7565b9050919050565b6000602082019050818103600083015261490481613eea565b9050919050565b6000602082019050818103600083015261492481613f0d565b9050919050565b6000602082019050818103600083015261494481613f30565b9050919050565b6000602082019050818103600083015261496481613f53565b9050919050565b6000602082019050818103600083015261498481613f76565b9050919050565b600060208201905081810360008301526149a481613fdf565b9050919050565b600060208201905081810360008301526149c481614002565b9050919050565b600060208201905081810360008301526149e481614025565b9050919050565b60006020820190508181036000830152614a048161408e565b9050919050565b60006020820190508181036000830152614a24816140b1565b9050919050565b60006020820190508181036000830152614a44816140d4565b9050919050565b60006020820190508181036000830152614a64816140f7565b9050919050565b60006020820190508181036000830152614a848161413d565b9050919050565b60006020820190508181036000830152614aa4816141a6565b9050919050565b60006020820190508181036000830152614ac4816141c9565b9050919050565b60006020820190508181036000830152614ae4816141ec565b9050919050565b60006020820190508181036000830152614b0481614232565b9050919050565b60006020820190508181036000830152614b2481614278565b9050919050565b60006020820190508181036000830152614b44816142be565b9050919050565b60006020820190508181036000830152614b6481614304565b9050919050565b60006020820190508181036000830152614b8481614327565b9050919050565b60006020820190508181036000830152614ba4816143b3565b9050919050565b6000602082019050614bc06000830184614462565b92915050565b6000604082019050614bdb6000830184614462565b8181036020830152614bec81613f99565b905092915050565b6000604082019050614c096000830184614462565b8181036020830152614c1a8161411a565b905092915050565b6000604082019050614c376000830184614462565b8181036020830152614c488161420f565b905092915050565b6000614c5a614c6b565b9050614c668282614f2e565b919050565b6000604051905090565b600067ffffffffffffffff821115614c9057614c8f6150a4565b5b614c99826150d3565b9050602081019050919050565b600067ffffffffffffffff821115614cc157614cc06150a4565b5b614cca826150d3565b9050602081019050919050565b600081519050919050565b600081519050919050565b600082825260208201905092915050565b600082825260208201905092915050565b600081905092915050565b6000614d2582614ea3565b9150614d3083614ea3565b9250827fffffffffffffffffffffffffffffffffffffffffffffffffffffffffffffffff03821115614d6557614d64615017565b5b828201905092915050565b6000614d7b82614ea3565b9150614d8683614ea3565b925082614d9657614d95615046565b5b828204905092915050565b6000614dac82614ea3565b9150614db783614ea3565b9250817fffffffffffffffffffffffffffffffffffffffffffffffffffffffffffffffff0483118215151615614df057614def615017565b5b828202905092915050565b6000614e0682614ea3565b9150614e1183614ea3565b925082821015614e2457614e23615017565b5b828203905092915050565b6000614e3a82614e83565b9050919050565b60008115159050919050565b6000819050919050565b60007fffffffff0000000000000000000000000000000000000000000000000000000082169050919050565b600073ffffffffffffffffffffffffffffffffffffffff82169050919050565b6000819050919050565b600060ff82169050919050565b82818337600083830152505050565b60005b83811015614ee7578082015181840152602081019050614ecc565b83811115614ef6576000848401525b50505050565b60006002820490506001821680614f1457607f821691505b60208210811415614f2857614f27615075565b5b50919050565b614f37826150d3565b810181811067ffffffffffffffff82111715614f5657614f556150a4565b5b80604052505050565b6000614f6a82614ea3565b91507fffffffffffffffffffffffffffffffffffffffffffffffffffffffffffffffff821415614f9d57614f9c615017565b5b600182019050919050565b6000614fb382614ead565b915060ff821415614fc757614fc6615017565b5b600182019050919050565b6000819050919050565b6000819050919050565b6000614ff182614ea3565b9150614ffc83614ea3565b92508261500c5761500b615046565b5b828206905092915050565b7f4e487b7100000000000000000000000000000000000000000000000000000000600052601160045260246000fd5b7f4e487b7100000000000000000000000000000000000000000000000000000000600052601260045260246000fd5b7f4e487b7100000000000000000000000000000000000000000000000000000000600052602260045260246000fd5b7f4e487b7100000000000000000000000000000000000000000000000000000000600052604160045260246000fd5b6000601f19601f8301169050919050565b7f3c67207472616e73666f726d3d277472616e736c61746528343320333529272060008201527f66696c6c3d276e6f6e65272066696c6c2d72756c653d276576656e6f6464273e602082015250565b7f3c7376672077696474683d2733383027206865696768743d273438302720786d60008201527f6c6e733d27687474703a2f2f7777772e77332e6f72672f323030302f7376672760208201527f3e00000000000000000000000000000000000000000000000000000000000000604082015250565b7f66696c6c2d6f7061636974793d27000000000000000000000000000000000000600082015250565b7f7b226e616d65223a220000000000000000000000000000000000000000000000600082015250565b7f4552433732313a207472616e7366657220746f206e6f6e20455243373231526560008201527f63656976657220696d706c656d656e7465720000000000000000000000000000602082015250565b7f4f776e61626c653a206e6577206f776e657220697320746865207a65726f206160008201527f6464726573730000000000000000000000000000000000000000000000000000602082015250565b7f4552433732313a207472616e736665722066726f6d20696e636f72726563742060008201527f6f776e6572000000000000000000000000000000000000000000000000000000602082015250565b7f4552433732313a20746f6b656e20616c7265616479206d696e74656400000000600082015250565b7f4e65656420746f207761697420666f722074686520436861696e6c696e6b206e60008201527f6f646520746f20726573706f6e64210000000000000000000000000000000000602082015250565b7f4552433732313a207472616e7366657220746f20746865207a65726f2061646460008201527f7265737300000000000000000000000000000000000000000000000000000000602082015250565b7f4552433732313a20617070726f766520746f2063616c6c657200000000000000600082015250565b7f626f646965730000000000000000000000000000000000000000000000000000600082015250565b7f3c7061746820643d270000000000000000000000000000000000000000000000600082015250565b7f746f6b656e55524920697320616c726561647920736574210000000000000000600082015250565b7f4552433732313a206f70657261746f7220717565727920666f72206e6f6e657860008201527f697374656e7420746f6b656e0000000000000000000000000000000000000000602082015250565b7f416c6c2048756d6161616e73207765726520616c7265616479206d696e746564600082015250565b7f3c67207472616e73666f726d3d277472616e736c61746528323220383229273e600082015250565b7f48756d6161616e00000000000000000000000000000000000000000000000000600082015250565b7f4552433732313a20617070726f76652063616c6c6572206973206e6f74206f7760008201527f6e6572206e6f7220617070726f76656420666f7220616c6c0000000000000000602082015250565b7f4552433732313a2062616c616e636520717565727920666f7220746865207a6560008201527f726f206164647265737300000000000000000000000000000000000000000000602082015250565b7f4552433732313a206f776e657220717565727920666f72206e6f6e657869737460008201527f656e7420746f6b656e0000000000000000000000000000000000000000000000602082015250565b7f45524337323155524953746f726167653a2055524920736574206f66206e6f6e60008201527f6578697374656e7420746f6b656e000000000000000000000000000000000000602082015250565b7f6c65677300000000000000000000000000000000000000000000000000000000600082015250565b7f546f6b656e496420686173206e6f74206265656e206d696e7465642079657421600082015250565b7f227d000000000000000000000000000000000000000000000000000000000000600082015250565b7f66696c6c3d270000000000000000000000000000000000000000000000000000600082015250565b7f4552433732313a206d696e7420746f20746865207a65726f2061646472657373600082015250565b7f45524337323155524953746f726167653a2055524920717565727920666f722060008201527f6e6f6e6578697374656e7420746f6b656e000000000000000000000000000000602082015250565b7f4552433732313a20617070726f76656420717565727920666f72206e6f6e657860008201527f697374656e7420746f6b656e0000000000000000000000000000000000000000602082015250565b7f6861697273000000000000000000000000000000000000000000000000000000600082015250565b7f4f776e61626c653a2063616c6c6572206973206e6f7420746865206f776e6572600082015250565b7f222c20226465736372697074696f6e223a2252616e646f6d6c792067656e657260008201527f61746564206f6e2d636861696e2048756d6161616e222c20226174747269627560208201527f746573223a22222c2022696d616765223a220000000000000000000000000000604082015250565b7f4552433732314d657461646174613a2055524920717565727920666f72206e6f60008201527f6e6578697374656e7420746f6b656e0000000000000000000000000000000000602082015250565b7f3c2f673e00000000000000000000000000000000000000000000000000000000600082015250565b7f4f6e6c7920565246436f6f7264696e61746f722063616e2066756c66696c6c00600082015250565b7f3c67207472616e73666f726d3d277472616e736c61746528302031383729273e600082015250565b7f4552433732313a20617070726f76616c20746f2063757272656e74206f776e6560008201527f7200000000000000000000000000000000000000000000000000000000000000602082015250565b7f48756d6161616e20616c72656164792065786973747300000000000000000000600082015250565b7f646174613a6170706c69636174696f6e2f6a736f6e3b6261736536342c000000600082015250565b7f3c67207472616e73666f726d3d277472616e736c617465283832202d3729273e600082015250565b50565b7f4552433732313a207472616e736665722063616c6c6572206973206e6f74206f60008201527f776e6572206e6f7220617070726f766564000000000000000000000000000000602082015250565b7f2f3e000000000000000000000000000000000000000000000000000000000000600082015250565b7f2720000000000000000000000000000000000000000000000000000000000000600082015250565b7f3c2f7376673e0000000000000000000000000000000000000000000000000000600082015250565b7f3c7061746820643d274d3632203635632d342d352d372d31322d372d3139203260008201527f2d32312033312d31372033372d3673352033382d32203430632d3320312d313060208201527f2d312d31362d356c342032394835346c382d33395a272066696c6c3d2723423260408201527f38423637272f3e00000000000000000000000000000000000000000000000000606082015250565b615b8f81614e2f565b8114615b9a57600080fd5b50565b615ba681614e41565b8114615bb157600080fd5b50565b615bbd81614e4d565b8114615bc857600080fd5b50565b615bd481614e57565b8114615bdf57600080fd5b50565b615beb81614ea3565b8114615bf657600080fd5b5056fe4142434445464748494a4b4c4d4e4f505152535455565758595a6162636465666768696a6b6c6d6e6f707172737475767778797a303132333435363738392b2fa2646970667358221220a49a8c5c577add6f2d4f0a80e537b3bc2b19087e5c7b61c5073acac4fbfe6ef264736f6c63430008010033",
  "devdoc": {
    "kind": "dev",
    "methods": {
      "approve(address,uint256)": {
        "details": "See {IERC721-approve}."
      },
      "balanceOf(address)": {
        "details": "See {IERC721-balanceOf}."
      },
      "getApproved(uint256)": {
        "details": "See {IERC721-getApproved}."
      },
      "isApprovedForAll(address,address)": {
        "details": "See {IERC721-isApprovedForAll}."
      },
      "name()": {
        "details": "See {IERC721Metadata-name}."
      },
      "owner()": {
        "details": "Returns the address of the current owner."
      },
      "ownerOf(uint256)": {
        "details": "See {IERC721-ownerOf}."
      },
      "renounceOwnership()": {
        "details": "Leaves the contract without owner. It will not be possible to call `onlyOwner` functions anymore. Can only be called by the current owner. NOTE: Renouncing ownership will leave the contract without an owner, thereby removing any functionality that is only available to the owner."
      },
      "safeTransferFrom(address,address,uint256)": {
        "details": "See {IERC721-safeTransferFrom}."
      },
      "safeTransferFrom(address,address,uint256,bytes)": {
        "details": "See {IERC721-safeTransferFrom}."
      },
      "setApprovalForAll(address,bool)": {
        "details": "See {IERC721-setApprovalForAll}."
      },
      "supportsInterface(bytes4)": {
        "details": "See {IERC165-supportsInterface}."
      },
      "symbol()": {
        "details": "See {IERC721Metadata-symbol}."
      },
      "tokenURI(uint256)": {
        "details": "See {IERC721Metadata-tokenURI}."
      },
      "transferFrom(address,address,uint256)": {
        "details": "See {IERC721-transferFrom}."
      },
      "transferOwnership(address)": {
        "details": "Transfers ownership of the contract to a new account (`newOwner`). Can only be called by the current owner."
      }
    },
    "version": 1
  },
  "userdoc": {
    "kind": "user",
    "methods": {},
    "version": 1
  },
  "storageLayout": {
    "storage": [
      {
        "astId": 396,
        "contract": "contracts/Humaaans.sol:Humaaans",
        "label": "_name",
        "offset": 0,
        "slot": "0",
        "type": "t_string_storage"
      },
      {
        "astId": 398,
        "contract": "contracts/Humaaans.sol:Humaaans",
        "label": "_symbol",
        "offset": 0,
        "slot": "1",
        "type": "t_string_storage"
      },
      {
        "astId": 402,
        "contract": "contracts/Humaaans.sol:Humaaans",
        "label": "_owners",
        "offset": 0,
        "slot": "2",
        "type": "t_mapping(t_uint256,t_address)"
      },
      {
        "astId": 406,
        "contract": "contracts/Humaaans.sol:Humaaans",
        "label": "_balances",
        "offset": 0,
        "slot": "3",
        "type": "t_mapping(t_address,t_uint256)"
      },
      {
        "astId": 410,
        "contract": "contracts/Humaaans.sol:Humaaans",
        "label": "_tokenApprovals",
        "offset": 0,
        "slot": "4",
        "type": "t_mapping(t_uint256,t_address)"
      },
      {
        "astId": 416,
        "contract": "contracts/Humaaans.sol:Humaaans",
        "label": "_operatorApprovals",
        "offset": 0,
        "slot": "5",
        "type": "t_mapping(t_address,t_mapping(t_address,t_bool))"
      },
      {
        "astId": 1383,
        "contract": "contracts/Humaaans.sol:Humaaans",
        "label": "_tokenURIs",
        "offset": 0,
        "slot": "6",
        "type": "t_mapping(t_uint256,t_string_storage)"
      },
      {
        "astId": 79,
        "contract": "contracts/Humaaans.sol:Humaaans",
        "label": "nonces",
        "offset": 0,
        "slot": "7",
        "type": "t_mapping(t_bytes32,t_uint256)"
      },
      {
        "astId": 2572,
        "contract": "contracts/Humaaans.sol:Humaaans",
        "label": "hairs",
        "offset": 0,
        "slot": "8",
        "type": "t_array(t_array(t_array(t_string_storage)dyn_storage)dyn_storage)dyn_storage"
      },
      {
        "astId": 2577,
        "contract": "contracts/Humaaans.sol:Humaaans",
        "label": "legs",
        "offset": 0,
        "slot": "9",
        "type": "t_array(t_array(t_array(t_string_storage)dyn_storage)dyn_storage)dyn_storage"
      },
      {
        "astId": 2582,
        "contract": "contracts/Humaaans.sol:Humaaans",
        "label": "bodies",
        "offset": 0,
        "slot": "10",
        "type": "t_array(t_array(t_array(t_string_storage)dyn_storage)dyn_storage)dyn_storage"
      },
      {
        "astId": 2587,
        "contract": "contracts/Humaaans.sol:Humaaans",
        "label": "alreadyMinted",
        "offset": 0,
        "slot": "11",
        "type": "t_array(t_array(t_array(t_bool)dyn_storage)dyn_storage)dyn_storage"
      },
      {
        "astId": 2589,
        "contract": "contracts/Humaaans.sol:Humaaans",
        "label": "maxHairs",
        "offset": 0,
        "slot": "12",
        "type": "t_uint256"
      },
      {
        "astId": 2591,
        "contract": "contracts/Humaaans.sol:Humaaans",
        "label": "maxLegs",
        "offset": 0,
        "slot": "13",
        "type": "t_uint256"
      },
      {
        "astId": 2593,
        "contract": "contracts/Humaaans.sol:Humaaans",
        "label": "maxBodies",
        "offset": 0,
        "slot": "14",
        "type": "t_uint256"
      },
      {
        "astId": 273,
        "contract": "contracts/Humaaans.sol:Humaaans",
        "label": "_owner",
        "offset": 0,
        "slot": "15",
        "type": "t_address"
      },
      {
        "astId": 2214,
        "contract": "contracts/Humaaans.sol:Humaaans",
        "label": "tokenCounter",
        "offset": 0,
        "slot": "16",
        "type": "t_uint256"
      },
      {
        "astId": 2238,
        "contract": "contracts/Humaaans.sol:Humaaans",
        "label": "requestIdToSender",
        "offset": 0,
        "slot": "17",
        "type": "t_mapping(t_bytes32,t_address)"
      },
      {
        "astId": 2242,
        "contract": "contracts/Humaaans.sol:Humaaans",
        "label": "tokenIdToRandomNumber",
        "offset": 0,
        "slot": "18",
        "type": "t_mapping(t_uint256,t_uint256)"
      },
      {
        "astId": 2246,
        "contract": "contracts/Humaaans.sol:Humaaans",
        "label": "requestIdToTokenId",
        "offset": 0,
        "slot": "19",
        "type": "t_mapping(t_bytes32,t_uint256)"
      },
      {
        "astId": 2248,
        "contract": "contracts/Humaaans.sol:Humaaans",
        "label": "keyHash",
        "offset": 0,
        "slot": "20",
        "type": "t_bytes32"
      },
      {
        "astId": 2250,
        "contract": "contracts/Humaaans.sol:Humaaans",
        "label": "fee",
        "offset": 0,
        "slot": "21",
        "type": "t_uint256"
      }
    ],
    "types": {
      "t_address": {
        "encoding": "inplace",
        "label": "address",
        "numberOfBytes": "20"
      },
      "t_array(t_array(t_array(t_bool)dyn_storage)dyn_storage)dyn_storage": {
        "base": "t_array(t_array(t_bool)dyn_storage)dyn_storage",
        "encoding": "dynamic_array",
        "label": "bool[][][]",
        "numberOfBytes": "32"
      },
      "t_array(t_array(t_array(t_string_storage)dyn_storage)dyn_storage)dyn_storage": {
        "base": "t_array(t_array(t_string_storage)dyn_storage)dyn_storage",
        "encoding": "dynamic_array",
        "label": "string[][][]",
        "numberOfBytes": "32"
      },
      "t_array(t_array(t_bool)dyn_storage)dyn_storage": {
        "base": "t_array(t_bool)dyn_storage",
        "encoding": "dynamic_array",
        "label": "bool[][]",
        "numberOfBytes": "32"
      },
      "t_array(t_array(t_string_storage)dyn_storage)dyn_storage": {
        "base": "t_array(t_string_storage)dyn_storage",
        "encoding": "dynamic_array",
        "label": "string[][]",
        "numberOfBytes": "32"
      },
      "t_array(t_bool)dyn_storage": {
        "base": "t_bool",
        "encoding": "dynamic_array",
        "label": "bool[]",
        "numberOfBytes": "32"
      },
      "t_array(t_string_storage)dyn_storage": {
        "base": "t_string_storage",
        "encoding": "dynamic_array",
        "label": "string[]",
        "numberOfBytes": "32"
      },
      "t_bool": {
        "encoding": "inplace",
        "label": "bool",
        "numberOfBytes": "1"
      },
      "t_bytes32": {
        "encoding": "inplace",
        "label": "bytes32",
        "numberOfBytes": "32"
      },
      "t_mapping(t_address,t_bool)": {
        "encoding": "mapping",
        "key": "t_address",
        "label": "mapping(address => bool)",
        "numberOfBytes": "32",
        "value": "t_bool"
      },
      "t_mapping(t_address,t_mapping(t_address,t_bool))": {
        "encoding": "mapping",
        "key": "t_address",
        "label": "mapping(address => mapping(address => bool))",
        "numberOfBytes": "32",
        "value": "t_mapping(t_address,t_bool)"
      },
      "t_mapping(t_address,t_uint256)": {
        "encoding": "mapping",
        "key": "t_address",
        "label": "mapping(address => uint256)",
        "numberOfBytes": "32",
        "value": "t_uint256"
      },
      "t_mapping(t_bytes32,t_address)": {
        "encoding": "mapping",
        "key": "t_bytes32",
        "label": "mapping(bytes32 => address)",
        "numberOfBytes": "32",
        "value": "t_address"
      },
      "t_mapping(t_bytes32,t_uint256)": {
        "encoding": "mapping",
        "key": "t_bytes32",
        "label": "mapping(bytes32 => uint256)",
        "numberOfBytes": "32",
        "value": "t_uint256"
      },
      "t_mapping(t_uint256,t_address)": {
        "encoding": "mapping",
        "key": "t_uint256",
        "label": "mapping(uint256 => address)",
        "numberOfBytes": "32",
        "value": "t_address"
      },
      "t_mapping(t_uint256,t_string_storage)": {
        "encoding": "mapping",
        "key": "t_uint256",
        "label": "mapping(uint256 => string)",
        "numberOfBytes": "32",
        "value": "t_string_storage"
      },
      "t_mapping(t_uint256,t_uint256)": {
        "encoding": "mapping",
        "key": "t_uint256",
        "label": "mapping(uint256 => uint256)",
        "numberOfBytes": "32",
        "value": "t_uint256"
      },
      "t_string_storage": {
        "encoding": "bytes",
        "label": "string",
        "numberOfBytes": "32"
      },
      "t_uint256": {
        "encoding": "inplace",
        "label": "uint256",
        "numberOfBytes": "32"
      }
    }
  }
}