{
  "address": "0xde63AAf4C83b363D7b068a1b66B339C9F50A21Be",
  "abi": [
    {
      "inputs": [
        {
          "internalType": "address",
          "name": "_VRFCoordinator",
          "type": "address"
        },
        {
          "internalType": "address",
          "name": "_LinkToken",
          "type": "address"
        },
        {
          "internalType": "bytes32",
          "name": "_keyhash",
          "type": "bytes32"
        },
        {
          "internalType": "uint256",
          "name": "_fee",
          "type": "uint256"
        },
        {
          "internalType": "string[][][]",
          "name": "_hairs",
          "type": "string[][][]"
        },
        {
          "internalType": "string[][][]",
          "name": "_legs",
          "type": "string[][][]"
        },
        {
          "internalType": "string[][][]",
          "name": "_bodies",
          "type": "string[][][]"
        }
      ],
      "stateMutability": "nonpayable",
      "type": "constructor"
    },
    {
      "anonymous": false,
      "inputs": [
        {
          "indexed": true,
          "internalType": "address",
          "name": "owner",
          "type": "address"
        },
        {
          "indexed": true,
          "internalType": "address",
          "name": "approved",
          "type": "address"
        },
        {
          "indexed": true,
          "internalType": "uint256",
          "name": "tokenId",
          "type": "uint256"
        }
      ],
      "name": "Approval",
      "type": "event"
    },
    {
      "anonymous": false,
      "inputs": [
        {
          "indexed": true,
          "internalType": "address",
          "name": "owner",
          "type": "address"
        },
        {
          "indexed": true,
          "internalType": "address",
          "name": "operator",
          "type": "address"
        },
        {
          "indexed": false,
          "internalType": "bool",
          "name": "approved",
          "type": "bool"
        }
      ],
      "name": "ApprovalForAll",
      "type": "event"
    },
    {
      "anonymous": false,
      "inputs": [
        {
          "indexed": true,
          "internalType": "uint256",
          "name": "tokenId",
          "type": "uint256"
        },
        {
          "indexed": false,
          "internalType": "string",
          "name": "tokenURI",
          "type": "string"
        }
      ],
      "name": "CreatedSVG",
      "type": "event"
    },
    {
      "anonymous": false,
      "inputs": [
        {
          "indexed": true,
          "internalType": "uint256",
          "name": "tokenId",
          "type": "uint256"
        },
        {
          "indexed": false,
          "internalType": "uint256",
          "name": "randomNumber",
          "type": "uint256"
        }
      ],
      "name": "CreatedUnfinishedSVG",
      "type": "event"
    },
    {
      "anonymous": false,
      "inputs": [
        {
          "indexed": true,
          "internalType": "address",
          "name": "previousOwner",
          "type": "address"
        },
        {
          "indexed": true,
          "internalType": "address",
          "name": "newOwner",
          "type": "address"
        }
      ],
      "name": "OwnershipTransferred",
      "type": "event"
    },
    {
      "anonymous": false,
      "inputs": [
        {
          "indexed": true,
          "internalType": "bytes32",
          "name": "requestId",
          "type": "bytes32"
        },
        {
          "indexed": true,
          "internalType": "uint256",
          "name": "tokenId",
          "type": "uint256"
        }
      ],
      "name": "RequestedRandomNumber",
      "type": "event"
    },
    {
      "anonymous": false,
      "inputs": [
        {
          "indexed": true,
          "internalType": "address",
          "name": "from",
          "type": "address"
        },
        {
          "indexed": true,
          "internalType": "address",
          "name": "to",
          "type": "address"
        },
        {
          "indexed": true,
          "internalType": "uint256",
          "name": "tokenId",
          "type": "uint256"
        }
      ],
      "name": "Transfer",
      "type": "event"
    },
    {
      "inputs": [
        {
          "internalType": "uint256",
          "name": "",
          "type": "uint256"
        },
        {
          "internalType": "uint256",
          "name": "",
          "type": "uint256"
        },
        {
          "internalType": "uint256",
          "name": "",
          "type": "uint256"
        }
      ],
      "name": "alreadyMinted",
      "outputs": [
        {
          "internalType": "bool",
          "name": "",
          "type": "bool"
        }
      ],
      "stateMutability": "view",
      "type": "function"
    },
    {
      "inputs": [
        {
          "internalType": "address",
          "name": "to",
          "type": "address"
        },
        {
          "internalType": "uint256",
          "name": "tokenId",
          "type": "uint256"
        }
      ],
      "name": "approve",
      "outputs": [],
      "stateMutability": "nonpayable",
      "type": "function"
    },
    {
      "inputs": [
        {
          "internalType": "address",
          "name": "owner",
          "type": "address"
        }
      ],
      "name": "balanceOf",
      "outputs": [
        {
          "internalType": "uint256",
          "name": "",
          "type": "uint256"
        }
      ],
      "stateMutability": "view",
      "type": "function"
    },
    {
      "inputs": [
        {
          "internalType": "uint256",
          "name": "",
          "type": "uint256"
        },
        {
          "internalType": "uint256",
          "name": "",
          "type": "uint256"
        },
        {
          "internalType": "uint256",
          "name": "",
          "type": "uint256"
        }
      ],
      "name": "bodies",
      "outputs": [
        {
          "internalType": "string",
          "name": "",
          "type": "string"
        }
      ],
      "stateMutability": "view",
      "type": "function"
    },
    {
      "inputs": [],
      "name": "create",
      "outputs": [
        {
          "internalType": "bytes32",
          "name": "requestId",
          "type": "bytes32"
        }
      ],
      "stateMutability": "nonpayable",
      "type": "function"
    },
    {
      "inputs": [
        {
          "internalType": "uint256",
          "name": "tokenId",
          "type": "uint256"
        }
      ],
      "name": "finishMint",
      "outputs": [],
      "stateMutability": "nonpayable",
      "type": "function"
    },
    {
      "inputs": [
        {
          "internalType": "string",
          "name": "imageURI",
          "type": "string"
        }
      ],
      "name": "formatTokenURI",
      "outputs": [
        {
          "internalType": "string",
          "name": "",
          "type": "string"
        }
      ],
      "stateMutability": "view",
      "type": "function"
    },
    {
      "inputs": [
        {
          "internalType": "uint256",
          "name": "tokenId",
          "type": "uint256"
        }
      ],
      "name": "getApproved",
      "outputs": [
        {
          "internalType": "address",
          "name": "",
          "type": "address"
        }
      ],
      "stateMutability": "view",
      "type": "function"
    },
    {
      "inputs": [
        {
          "internalType": "uint256",
          "name": "",
          "type": "uint256"
        },
        {
          "internalType": "uint256",
          "name": "",
          "type": "uint256"
        },
        {
          "internalType": "uint256",
          "name": "",
          "type": "uint256"
        }
      ],
      "name": "hairs",
      "outputs": [
        {
          "internalType": "string",
          "name": "",
          "type": "string"
        }
      ],
      "stateMutability": "view",
      "type": "function"
    },
    {
      "inputs": [
        {
          "internalType": "address",
          "name": "owner",
          "type": "address"
        },
        {
          "internalType": "address",
          "name": "operator",
          "type": "address"
        }
      ],
      "name": "isApprovedForAll",
      "outputs": [
        {
          "internalType": "bool",
          "name": "",
          "type": "bool"
        }
      ],
      "stateMutability": "view",
      "type": "function"
    },
    {
      "inputs": [
        {
          "internalType": "uint256",
          "name": "",
          "type": "uint256"
        },
        {
          "internalType": "uint256",
          "name": "",
          "type": "uint256"
        },
        {
          "internalType": "uint256",
          "name": "",
          "type": "uint256"
        }
      ],
      "name": "legs",
      "outputs": [
        {
          "internalType": "string",
          "name": "",
          "type": "string"
        }
      ],
      "stateMutability": "view",
      "type": "function"
    },
    {
      "inputs": [],
      "name": "maxBodies",
      "outputs": [
        {
          "internalType": "uint256",
          "name": "",
          "type": "uint256"
        }
      ],
      "stateMutability": "view",
      "type": "function"
    },
    {
      "inputs": [],
      "name": "maxHairs",
      "outputs": [
        {
          "internalType": "uint256",
          "name": "",
          "type": "uint256"
        }
      ],
      "stateMutability": "view",
      "type": "function"
    },
    {
      "inputs": [],
      "name": "maxLegs",
      "outputs": [
        {
          "internalType": "uint256",
          "name": "",
          "type": "uint256"
        }
      ],
      "stateMutability": "view",
      "type": "function"
    },
    {
      "inputs": [],
      "name": "maxTokens",
      "outputs": [
        {
          "internalType": "uint256",
          "name": "",
          "type": "uint256"
        }
      ],
      "stateMutability": "view",
      "type": "function"
    },
    {
      "inputs": [],
      "name": "name",
      "outputs": [
        {
          "internalType": "string",
          "name": "",
          "type": "string"
        }
      ],
      "stateMutability": "view",
      "type": "function"
    },
    {
      "inputs": [],
      "name": "owner",
      "outputs": [
        {
          "internalType": "address",
          "name": "",
          "type": "address"
        }
      ],
      "stateMutability": "view",
      "type": "function"
    },
    {
      "inputs": [
        {
          "internalType": "uint256",
          "name": "tokenId",
          "type": "uint256"
        }
      ],
      "name": "ownerOf",
      "outputs": [
        {
          "internalType": "address",
          "name": "",
          "type": "address"
        }
      ],
      "stateMutability": "view",
      "type": "function"
    },
    {
      "inputs": [
        {
          "internalType": "bytes32",
          "name": "requestId",
          "type": "bytes32"
        },
        {
          "internalType": "uint256",
          "name": "randomness",
          "type": "uint256"
        }
      ],
      "name": "rawFulfillRandomness",
      "outputs": [],
      "stateMutability": "nonpayable",
      "type": "function"
    },
    {
      "inputs": [],
      "name": "renounceOwnership",
      "outputs": [],
      "stateMutability": "nonpayable",
      "type": "function"
    },
    {
      "inputs": [
        {
          "internalType": "bytes32",
          "name": "",
          "type": "bytes32"
        }
      ],
      "name": "requestIdToSender",
      "outputs": [
        {
          "internalType": "address",
          "name": "",
          "type": "address"
        }
      ],
      "stateMutability": "view",
      "type": "function"
    },
    {
      "inputs": [
        {
          "internalType": "bytes32",
          "name": "",
          "type": "bytes32"
        }
      ],
      "name": "requestIdToTokenId",
      "outputs": [
        {
          "internalType": "uint256",
          "name": "",
          "type": "uint256"
        }
      ],
      "stateMutability": "view",
      "type": "function"
    },
    {
      "inputs": [
        {
          "internalType": "address",
          "name": "from",
          "type": "address"
        },
        {
          "internalType": "address",
          "name": "to",
          "type": "address"
        },
        {
          "internalType": "uint256",
          "name": "tokenId",
          "type": "uint256"
        }
      ],
      "name": "safeTransferFrom",
      "outputs": [],
      "stateMutability": "nonpayable",
      "type": "function"
    },
    {
      "inputs": [
        {
          "internalType": "address",
          "name": "from",
          "type": "address"
        },
        {
          "internalType": "address",
          "name": "to",
          "type": "address"
        },
        {
          "internalType": "uint256",
          "name": "tokenId",
          "type": "uint256"
        },
        {
          "internalType": "bytes",
          "name": "_data",
          "type": "bytes"
        }
      ],
      "name": "safeTransferFrom",
      "outputs": [],
      "stateMutability": "nonpayable",
      "type": "function"
    },
    {
      "inputs": [
        {
          "internalType": "address",
          "name": "operator",
          "type": "address"
        },
        {
          "internalType": "bool",
          "name": "approved",
          "type": "bool"
        }
      ],
      "name": "setApprovalForAll",
      "outputs": [],
      "stateMutability": "nonpayable",
      "type": "function"
    },
    {
      "inputs": [
        {
          "internalType": "bytes4",
          "name": "interfaceId",
          "type": "bytes4"
        }
      ],
      "name": "supportsInterface",
      "outputs": [
        {
          "internalType": "bool",
          "name": "",
          "type": "bool"
        }
      ],
      "stateMutability": "view",
      "type": "function"
    },
    {
      "inputs": [
        {
          "internalType": "string",
          "name": "svg",
          "type": "string"
        }
      ],
      "name": "svgToImageURI",
      "outputs": [
        {
          "internalType": "string",
          "name": "",
          "type": "string"
        }
      ],
      "stateMutability": "pure",
      "type": "function"
    },
    {
      "inputs": [],
      "name": "symbol",
      "outputs": [
        {
          "internalType": "string",
          "name": "",
          "type": "string"
        }
      ],
      "stateMutability": "view",
      "type": "function"
    },
    {
      "inputs": [],
      "name": "tokenCounter",
      "outputs": [
        {
          "internalType": "uint256",
          "name": "",
          "type": "uint256"
        }
      ],
      "stateMutability": "view",
      "type": "function"
    },
    {
      "inputs": [
        {
          "internalType": "uint256",
          "name": "",
          "type": "uint256"
        }
      ],
      "name": "tokenIdToRandomNumber",
      "outputs": [
        {
          "internalType": "uint256",
          "name": "",
          "type": "uint256"
        }
      ],
      "stateMutability": "view",
      "type": "function"
    },
    {
      "inputs": [
        {
          "internalType": "uint256",
          "name": "tokenId",
          "type": "uint256"
        }
      ],
      "name": "tokenURI",
      "outputs": [
        {
          "internalType": "string",
          "name": "",
          "type": "string"
        }
      ],
      "stateMutability": "view",
      "type": "function"
    },
    {
      "inputs": [
        {
          "internalType": "address",
          "name": "from",
          "type": "address"
        },
        {
          "internalType": "address",
          "name": "to",
          "type": "address"
        },
        {
          "internalType": "uint256",
          "name": "tokenId",
          "type": "uint256"
        }
      ],
      "name": "transferFrom",
      "outputs": [],
      "stateMutability": "nonpayable",
      "type": "function"
    },
    {
      "inputs": [
        {
          "internalType": "address",
          "name": "newOwner",
          "type": "address"
        }
      ],
      "name": "transferOwnership",
      "outputs": [],
      "stateMutability": "nonpayable",
      "type": "function"
    },
    {
      "inputs": [],
      "name": "withdraw",
      "outputs": [],
      "stateMutability": "payable",
      "type": "function"
    }
  ],
  "transactionHash": "0x4d137fc919116d617aa778d9762a521102665f063f2ca0e535c7cf2ff843d4ae",
  "args": [
    "0x9bD6239b835f56481528aBfde0FA9F91Dbe92e7E",
    "0xC7dD0217B0f79d4D68F7dbf076FAA6798B8C6c61",
    "0x6c3699283bda56ad74f6b855546325b68d482e983852a7a82979cc4807b641f4",
    "100000000000000000",
    [
      [
        [
          "m94 45-1-4-2-5-7-7c-5-4-11-6-16-5-3 0-6 1-8 3l-7 4c-3 0-6-2-9-4-2-2-5-3-9-4-5-1-10 1-14 6-4 4-7 11-4 17 0 2 1 3 2 3l2 3c1 1 0 3-1 4l-1 5 4 8c2 2 5 3 7 3l6 1 2-1 2 1c3 2 7 3 11 2l9-3c3-2 3-5 2-9 1 0 3 1 2-1l-2-1-2-1c-3-3 0-8 2-9 5-1 5 5 8 6 2 1 4 0 5-1l4-6 2-6c1 0 2-3 1-4l9 2 2 3 1 1v-1",
          "#191847",
          ""
        ]
      ]
    ],
    [
      [
        [
          "m84 236 1-16c6 2 13 1 22-2 9 7 21 11 35 14a2 2 0 0 1 2 2l-1 5H86l-2-3Zm94 0 1-16c6 2 13 1 22-2 9 7 21 11 35 14a2 2 0 0 1 2 2l-1 5h-57l-2-3Z",
          "#191847",
          ""
        ]
      ]
    ],
    [
      [
        [
          "M142 12c-1 63 36 80 28 105-7 21-72 44-83 23-5-8-7-18-7-29l-7 22c-3 10-14 12-14 16l-14-4c1-6-6-8-4-21 8-55 30-95 67-120v-5c0-2 2-4 4-4l27 2c2 0 4 2 4 4l-1 11Z",
          "#FF4133",
          ""
        ]
      ]
    ]
  ],
  "numDeployments": 2,
  "solcInputHash": "d43926ed8045d3253f0950d1ac9bf79a",
  "bytecode": "0x60e06040523480156200001157600080fd5b50604051620067a1380380620067a183398181016040528101906200003791906200084d565b82828289896040518060400160405280600881526020017f48756d6161616e730000000000000000000000000000000000000000000000008152506040518060400160405280600381526020017f484d4e00000000000000000000000000000000000000000000000000000000008152508160009080519060200190620000c0929190620002f7565b508060019080519060200190620000d9929190620002f7565b5050508173ffffffffffffffffffffffffffffffffffffffff1660a08173ffffffffffffffffffffffffffffffffffffffff1660601b815250508073ffffffffffffffffffffffffffffffffffffffff1660808173ffffffffffffffffffffffffffffffffffffffff1660601b81525050505082600890805190602001906200016492919062000388565b5080600a90805190602001906200017d92919062000388565b5081600990805190602001906200019692919062000388565b50600880549050600c81905550600980549050600d81905550600a80549050600e81905550505050620001de620001d26200022960201b60201c565b6200023160201b60201c565b60006010819055508460148190555083601581905550600e54600d54600c5462000209919062000a31565b62000215919062000a31565b60c081815250505050505050505062000c68565b600033905090565b6000600f60009054906101000a900473ffffffffffffffffffffffffffffffffffffffff16905081600f60006101000a81548173ffffffffffffffffffffffffffffffffffffffff021916908373ffffffffffffffffffffffffffffffffffffffff1602179055508173ffffffffffffffffffffffffffffffffffffffff168173ffffffffffffffffffffffffffffffffffffffff167f8be0079c531659141344cd1fd0a4f28419497f9722a3daafe3b4186f6b6457e060405160405180910390a35050565b828054620003059062000b10565b90600052602060002090601f01602090048101928262000329576000855562000375565b82601f106200034457805160ff191683800117855562000375565b8280016001018555821562000375579182015b828111156200037457825182559160200191906001019062000357565b5b509050620003849190620003ef565b5090565b828054828255906000526020600020908101928215620003dc579160200282015b82811115620003db578251829080519060200190620003ca9291906200040e565b5091602001919060010190620003a9565b5b509050620003eb919062000475565b5090565b5b808211156200040a576000816000905550600101620003f0565b5090565b82805482825590600052602060002090810192821562000462579160200282015b8281111562000461578251829080519060200190620004509291906200049d565b50916020019190600101906200042f565b5b50905062000471919062000504565b5090565b5b808211156200049957600081816200048f91906200052c565b5060010162000476565b5090565b828054828255906000526020600020908101928215620004f1579160200282015b82811115620004f0578251829080519060200190620004df929190620002f7565b5091602001919060010190620004be565b5b5090506200050091906200054f565b5090565b5b808211156200052857600081816200051e919062000577565b5060010162000505565b5090565b50805460008255906000526020600020908101906200054c919062000504565b50565b5b808211156200057357600081816200056991906200059a565b5060010162000550565b5090565b50805460008255906000526020600020908101906200059791906200054f565b50565b508054620005a89062000b10565b6000825580601f10620005bc5750620005dd565b601f016020900490600052602060002090810190620005dc9190620003ef565b5b50565b6000620005f7620005f1846200096e565b62000945565b9050808382526020820190508260005b858110156200063b578151850162000620888262000798565b84526020840193506020830192505060018101905062000607565b5050509392505050565b60006200065c62000656846200099d565b62000945565b9050808382526020820190508260005b85811015620006a05781518501620006858882620007c5565b8452602084019350602083019250506001810190506200066c565b5050509392505050565b6000620006c1620006bb84620009cc565b62000945565b9050808382526020820190508260005b85811015620007055781518501620006ea888262000809565b845260208401935060208301925050600181019050620006d1565b5050509392505050565b6000620007266200072084620009fb565b62000945565b9050828152602081018484840111156200073f57600080fd5b6200074c84828562000ada565b509392505050565b600081519050620007658162000c1a565b92915050565b600082601f8301126200077d57600080fd5b81516200078f848260208601620005e0565b91505092915050565b600082601f830112620007aa57600080fd5b8151620007bc84826020860162000645565b91505092915050565b600082601f830112620007d757600080fd5b8151620007e9848260208601620006aa565b91505092915050565b600081519050620008038162000c34565b92915050565b600082601f8301126200081b57600080fd5b81516200082d8482602086016200070f565b91505092915050565b600081519050620008478162000c4e565b92915050565b600080600080600080600060e0888a0312156200086957600080fd5b6000620008798a828b0162000754565b97505060206200088c8a828b0162000754565b96505060406200089f8a828b01620007f2565b9550506060620008b28a828b0162000836565b945050608088015167ffffffffffffffff811115620008d057600080fd5b620008de8a828b016200076b565b93505060a088015167ffffffffffffffff811115620008fc57600080fd5b6200090a8a828b016200076b565b92505060c088015167ffffffffffffffff8111156200092857600080fd5b620009368a828b016200076b565b91505092959891949750929550565b60006200095162000964565b90506200095f828262000b46565b919050565b6000604051905090565b600067ffffffffffffffff8211156200098c576200098b62000bda565b5b602082029050602081019050919050565b600067ffffffffffffffff821115620009bb57620009ba62000bda565b5b602082029050602081019050919050565b600067ffffffffffffffff821115620009ea57620009e962000bda565b5b602082029050602081019050919050565b600067ffffffffffffffff82111562000a195762000a1862000bda565b5b62000a248262000c09565b9050602081019050919050565b600062000a3e8262000ad0565b915062000a4b8362000ad0565b9250817fffffffffffffffffffffffffffffffffffffffffffffffffffffffffffffffff048311821515161562000a875762000a8662000b7c565b5b828202905092915050565b600062000a9f8262000ab0565b9050919050565b6000819050919050565b600073ffffffffffffffffffffffffffffffffffffffff82169050919050565b6000819050919050565b60005b8381101562000afa57808201518184015260208101905062000add565b8381111562000b0a576000848401525b50505050565b6000600282049050600182168062000b2957607f821691505b6020821081141562000b405762000b3f62000bab565b5b50919050565b62000b518262000c09565b810181811067ffffffffffffffff8211171562000b735762000b7262000bda565b5b80604052505050565b7f4e487b7100000000000000000000000000000000000000000000000000000000600052601160045260246000fd5b7f4e487b7100000000000000000000000000000000000000000000000000000000600052602260045260246000fd5b7f4e487b7100000000000000000000000000000000000000000000000000000000600052604160045260246000fd5b6000601f19601f8301169050919050565b62000c258162000a92565b811462000c3157600080fd5b50565b62000c3f8162000aa6565b811462000c4b57600080fd5b50565b62000c598162000ad0565b811462000c6557600080fd5b50565b60805160601c60a05160601c60c051615af562000cac600039600081816117bd01526118770152600081816112770152612bea01526000612bae0152615af56000f3fe6080604052600436106101f95760003560e01c80638da5cb5b1161010d578063bf01c3e3116100a0578063e5acad6b1161006f578063e5acad6b14610784578063e8315742146107c1578063e985e9c5146107ec578063efc81a8c14610829578063f2fde38b14610854576101f9565b8063bf01c3e3146106b4578063c0e316c1146106df578063c87b56dd1461071c578063d082e38114610759576101f9565b8063a22cb465116100dc578063a22cb465146105fa578063b4e69d7f14610623578063b88d4fde1461064e578063ba13569814610677576101f9565b80638da5cb5b1461053e57806394985ddd1461056957806395d89b41146105925780639c1cd795146105bd576101f9565b80632c1db47211610190578063624194c71161015f578063624194c7146104475780636352211e1461047057806370a08231146104ad578063715018a6146104ea57806371aee19314610501576101f9565b80632c1db472146103ac57806330d871c6146103d75780633ccfd60b1461041457806342842e0e1461041e576101f9565b80631821b3a0116101cc5780631821b3a0146102cc578063219c0eee1461030957806322881f881461034657806323b872dd14610383576101f9565b806301ffc9a7146101fe57806306fdde031461023b578063081812fc14610266578063095ea7b3146102a3575b600080fd5b34801561020a57600080fd5b5061022560048036038101906102209190613ae3565b61087d565b604051610232919061466b565b60405180910390f35b34801561024757600080fd5b5061025061095f565b60405161025d919061470f565b60405180910390f35b34801561027257600080fd5b5061028d60048036038101906102889190613b76565b6109f1565b60405161029a91906145c6565b60405180910390f35b3480156102af57600080fd5b506102ca60048036038101906102c59190613a19565b610a76565b005b3480156102d857600080fd5b506102f360048036038101906102ee9190613b9f565b610b8e565b604051610300919061470f565b60405180910390f35b34801561031557600080fd5b50610330600480360381019061032b9190613a7e565b610c6c565b60405161033d91906145c6565b60405180910390f35b34801561035257600080fd5b5061036d60048036038101906103689190613a7e565b610c9f565b60405161037a9190614a31565b60405180910390f35b34801561038f57600080fd5b506103aa60048036038101906103a59190613913565b610cb7565b005b3480156103b857600080fd5b506103c1610d17565b6040516103ce9190614a31565b60405180910390f35b3480156103e357600080fd5b506103fe60048036038101906103f99190613b35565b610d1d565b60405161040b919061470f565b60405180910390f35b61041c610db0565b005b34801561042a57600080fd5b5061044560048036038101906104409190613913565b610e7c565b005b34801561045357600080fd5b5061046e60048036038101906104699190613b76565b610e9c565b005b34801561047c57600080fd5b5061049760048036038101906104929190613b76565b611005565b6040516104a491906145c6565b60405180910390f35b3480156104b957600080fd5b506104d460048036038101906104cf91906138ae565b6110b7565b6040516104e19190614a31565b60405180910390f35b3480156104f657600080fd5b506104ff61116f565b005b34801561050d57600080fd5b5061052860048036038101906105239190613b35565b6111f7565b604051610535919061470f565b60405180910390f35b34801561054a57600080fd5b5061055361124b565b60405161056091906145c6565b60405180910390f35b34801561057557600080fd5b50610590600480360381019061058b9190613aa7565b611275565b005b34801561059e57600080fd5b506105a7611311565b6040516105b4919061470f565b60405180910390f35b3480156105c957600080fd5b506105e460048036038101906105df9190613b76565b6113a3565b6040516105f19190614a31565b60405180910390f35b34801561060657600080fd5b50610621600480360381019061061c91906139dd565b6113bb565b005b34801561062f57600080fd5b506106386113d1565b6040516106459190614a31565b60405180910390f35b34801561065a57600080fd5b5061067560048036038101906106709190613962565b6113d7565b005b34801561068357600080fd5b5061069e60048036038101906106999190613b9f565b611439565b6040516106ab919061466b565b60405180910390f35b3480156106c057600080fd5b506106c96114a1565b6040516106d69190614a31565b60405180910390f35b3480156106eb57600080fd5b5061070660048036038101906107019190613b9f565b6114a7565b604051610713919061470f565b60405180910390f35b34801561072857600080fd5b50610743600480360381019061073e9190613b76565b611585565b604051610750919061470f565b60405180910390f35b34801561076557600080fd5b5061076e6116d7565b60405161077b9190614a31565b60405180910390f35b34801561079057600080fd5b506107ab60048036038101906107a69190613b9f565b6116dd565b6040516107b8919061470f565b60405180910390f35b3480156107cd57600080fd5b506107d66117bb565b6040516107e39190614a31565b60405180910390f35b3480156107f857600080fd5b50610813600480360381019061080e91906138d7565b6117df565b604051610820919061466b565b60405180910390f35b34801561083557600080fd5b5061083e611873565b60405161084b9190614686565b60405180910390f35b34801561086057600080fd5b5061087b600480360381019061087691906138ae565b6119a1565b005b60007f80ac58cd000000000000000000000000000000000000000000000000000000007bffffffffffffffffffffffffffffffffffffffffffffffffffffffff1916827bffffffffffffffffffffffffffffffffffffffffffffffffffffffff1916148061094857507f5b5e139f000000000000000000000000000000000000000000000000000000007bffffffffffffffffffffffffffffffffffffffffffffffffffffffff1916827bffffffffffffffffffffffffffffffffffffffffffffffffffffffff1916145b80610958575061095782611a99565b5b9050919050565b60606000805461096e90614d82565b80601f016020809104026020016040519081016040528092919081815260200182805461099a90614d82565b80156109e75780601f106109bc576101008083540402835291602001916109e7565b820191906000526020600020905b8154815290600101906020018083116109ca57829003601f168201915b5050505050905090565b60006109fc82611b03565b610a3b576040517f08c379a0000000000000000000000000000000000000000000000000000000008152600401610a3290614951565b60405180910390fd5b6004600083815260200190815260200160002060009054906101000a900473ffffffffffffffffffffffffffffffffffffffff169050919050565b6000610a8182611005565b90508073ffffffffffffffffffffffffffffffffffffffff168373ffffffffffffffffffffffffffffffffffffffff161415610af2576040517f08c379a0000000000000000000000000000000000000000000000000000000008152600401610ae9906149d1565b60405180910390fd5b8073ffffffffffffffffffffffffffffffffffffffff16610b11611b6f565b73ffffffffffffffffffffffffffffffffffffffff161480610b405750610b3f81610b3a611b6f565b6117df565b5b610b7f576040517f08c379a0000000000000000000000000000000000000000000000000000000008152600401610b7690614871565b60405180910390fd5b610b898383611b77565b505050565b60098381548110610b9e57600080fd5b906000526020600020018281548110610bb657600080fd5b906000526020600020018181548110610bce57600080fd5b9060005260206000200160009250925050508054610beb90614d82565b80601f0160208091040260200160405190810160405280929190818152602001828054610c1790614d82565b8015610c645780601f10610c3957610100808354040283529160200191610c64565b820191906000526020600020905b815481529060010190602001808311610c4757829003601f168201915b505050505081565b60116020528060005260406000206000915054906101000a900473ffffffffffffffffffffffffffffffffffffffff1681565b60136020528060005260406000206000915090505481565b610cc8610cc2611b6f565b82611c30565b610d07576040517f08c379a0000000000000000000000000000000000000000000000000000000008152600401610cfe90614a11565b60405180910390fd5b610d12838383611d0e565b505050565b600e5481565b606060006040518060400160405280601a81526020017f646174613a696d6167652f7376672b786d6c3b6261736536342c00000000000081525090506000610d8384604051602001610d6f9190614371565b604051602081830303815290604052611f75565b90508181604051602001610d98929190614388565b60405160208183030381529060405292505050919050565b610db8611b6f565b73ffffffffffffffffffffffffffffffffffffffff16610dd661124b565b73ffffffffffffffffffffffffffffffffffffffff1614610e2c576040517f08c379a0000000000000000000000000000000000000000000000000000000008152600401610e2390614971565b60405180910390fd5b610e3461124b565b73ffffffffffffffffffffffffffffffffffffffff166108fc479081150290604051600060405180830381858888f19350505050158015610e79573d6000803e3d6000fd5b50565b610e97838383604051806020016040528060008152506113d7565b505050565b6000610ea782611585565b511115610ee9576040517f08c379a0000000000000000000000000000000000000000000000000000000008152600401610ee090614811565b60405180910390fd5b8060105411610f2d576040517f08c379a0000000000000000000000000000000000000000000000000000000008152600401610f24906148f1565b60405180910390fd5b6000601260008381526020019081526020016000205411610f83576040517f08c379a0000000000000000000000000000000000000000000000000000000008152600401610f7a906147b1565b60405180910390fd5b6000601260008381526020019081526020016000205490506000610fa682612114565b90506000610fb382610d1d565b9050610fc784610fc2836111f7565b612739565b837fe6e1ae3c28fd225da5957e598f0f29b3ea720244d8fa8862aba7d2e7aac9cdec83604051610ff7919061470f565b60405180910390a250505050565b6000806002600084815260200190815260200160002060009054906101000a900473ffffffffffffffffffffffffffffffffffffffff169050600073ffffffffffffffffffffffffffffffffffffffff168173ffffffffffffffffffffffffffffffffffffffff1614156110ae576040517f08c379a00000000000000000000000000000000000000000000000000000000081526004016110a5906148b1565b60405180910390fd5b80915050919050565b60008073ffffffffffffffffffffffffffffffffffffffff168273ffffffffffffffffffffffffffffffffffffffff161415611128576040517f08c379a000000000000000000000000000000000000000000000000000000000815260040161111f90614891565b60405180910390fd5b600360008373ffffffffffffffffffffffffffffffffffffffff1673ffffffffffffffffffffffffffffffffffffffff168152602001908152602001600020549050919050565b611177611b6f565b73ffffffffffffffffffffffffffffffffffffffff1661119561124b565b73ffffffffffffffffffffffffffffffffffffffff16146111eb576040517f08c379a00000000000000000000000000000000000000000000000000000000081526004016111e290614971565b60405180910390fd5b6111f560006127ad565b565b60606112256010548360405160200161121192919061450e565b604051602081830303815290604052611f75565b604051602001611235919061458f565b6040516020818303038152906040529050919050565b6000600f60009054906101000a900473ffffffffffffffffffffffffffffffffffffffff16905090565b7f000000000000000000000000000000000000000000000000000000000000000073ffffffffffffffffffffffffffffffffffffffff163373ffffffffffffffffffffffffffffffffffffffff1614611303576040517f08c379a00000000000000000000000000000000000000000000000000000000081526004016112fa906149b1565b60405180910390fd5b61130d8282612873565b5050565b60606001805461132090614d82565b80601f016020809104026020016040519081016040528092919081815260200182805461134c90614d82565b80156113995780601f1061136e57610100808354040283529160200191611399565b820191906000526020600020905b81548152906001019060200180831161137c57829003601f168201915b5050505050905090565b60126020528060005260406000206000915090505481565b6113cd6113c6611b6f565b8383612923565b5050565b600d5481565b6113e86113e2611b6f565b83611c30565b611427576040517f08c379a000000000000000000000000000000000000000000000000000000000815260040161141e90614a11565b60405180910390fd5b61143384848484612a90565b50505050565b600b838154811061144957600080fd5b90600052602060002001828154811061146157600080fd5b90600052602060002001818154811061147957600080fd5b906000526020600020906020918282040191900692509250509054906101000a900460ff1681565b600c5481565b600a83815481106114b757600080fd5b9060005260206000200182815481106114cf57600080fd5b9060005260206000200181815481106114e757600080fd5b906000526020600020016000925092505050805461150490614d82565b80601f016020809104026020016040519081016040528092919081815260200182805461153090614d82565b801561157d5780601f106115525761010080835404028352916020019161157d565b820191906000526020600020905b81548152906001019060200180831161156057829003601f168201915b505050505081565b606061159082611b03565b6115cf576040517f08c379a00000000000000000000000000000000000000000000000000000000081526004016115c690614931565b60405180910390fd5b60006006600084815260200190815260200160002080546115ef90614d82565b80601f016020809104026020016040519081016040528092919081815260200182805461161b90614d82565b80156116685780601f1061163d57610100808354040283529160200191611668565b820191906000526020600020905b81548152906001019060200180831161164b57829003601f168201915b505050505090506000611679612aec565b905060008151141561168f5781925050506116d2565b6000825111156116c45780826040516020016116ac929190614388565b604051602081830303815290604052925050506116d2565b6116cd84612b03565b925050505b919050565b60105481565b600883815481106116ed57600080fd5b90600052602060002001828154811061170557600080fd5b90600052602060002001818154811061171d57600080fd5b906000526020600020016000925092505050805461173a90614d82565b80601f016020809104026020016040519081016040528092919081815260200182805461176690614d82565b80156117b35780601f10611788576101008083540402835291602001916117b3565b820191906000526020600020905b81548152906001019060200180831161179657829003601f168201915b505050505081565b7f000000000000000000000000000000000000000000000000000000000000000081565b6000600560008473ffffffffffffffffffffffffffffffffffffffff1673ffffffffffffffffffffffffffffffffffffffff16815260200190815260200160002060008373ffffffffffffffffffffffffffffffffffffffff1673ffffffffffffffffffffffffffffffffffffffff16815260200190815260200160002060009054906101000a900460ff16905092915050565b60007f0000000000000000000000000000000000000000000000000000000000000000601054106118d9576040517f08c379a00000000000000000000000000000000000000000000000000000000081526004016118d090614851565b60405180910390fd5b6118e7601454601554612baa565b9050336011600083815260200190815260200160002060006101000a81548173ffffffffffffffffffffffffffffffffffffffff021916908373ffffffffffffffffffffffffffffffffffffffff1602179055506000601054905080601360008481526020019081526020016000208190555060016010546119699190614ba0565b60108190555080827fce39cc4270cfd628caca43c3d4ccbbf3e948a8aadd24d313a5c3d24f8d2e959060405160405180910390a35090565b6119a9611b6f565b73ffffffffffffffffffffffffffffffffffffffff166119c761124b565b73ffffffffffffffffffffffffffffffffffffffff1614611a1d576040517f08c379a0000000000000000000000000000000000000000000000000000000008152600401611a1490614971565b60405180910390fd5b600073ffffffffffffffffffffffffffffffffffffffff168173ffffffffffffffffffffffffffffffffffffffff161415611a8d576040517f08c379a0000000000000000000000000000000000000000000000000000000008152600401611a8490614751565b60405180910390fd5b611a96816127ad565b50565b60007f01ffc9a7000000000000000000000000000000000000000000000000000000007bffffffffffffffffffffffffffffffffffffffffffffffffffffffff1916827bffffffffffffffffffffffffffffffffffffffffffffffffffffffff1916149050919050565b60008073ffffffffffffffffffffffffffffffffffffffff166002600084815260200190815260200160002060009054906101000a900473ffffffffffffffffffffffffffffffffffffffff1673ffffffffffffffffffffffffffffffffffffffff1614159050919050565b600033905090565b816004600083815260200190815260200160002060006101000a81548173ffffffffffffffffffffffffffffffffffffffff021916908373ffffffffffffffffffffffffffffffffffffffff160217905550808273ffffffffffffffffffffffffffffffffffffffff16611bea83611005565b73ffffffffffffffffffffffffffffffffffffffff167f8c5be1e5ebec7d5bd14f71427d1e84f3dd0314c0f7b2291e5b200ac8c7c3b92560405160405180910390a45050565b6000611c3b82611b03565b611c7a576040517f08c379a0000000000000000000000000000000000000000000000000000000008152600401611c7190614831565b60405180910390fd5b6000611c8583611005565b90508073ffffffffffffffffffffffffffffffffffffffff168473ffffffffffffffffffffffffffffffffffffffff161480611cf457508373ffffffffffffffffffffffffffffffffffffffff16611cdc846109f1565b73ffffffffffffffffffffffffffffffffffffffff16145b80611d055750611d0481856117df565b5b91505092915050565b8273ffffffffffffffffffffffffffffffffffffffff16611d2e82611005565b73ffffffffffffffffffffffffffffffffffffffff1614611d84576040517f08c379a0000000000000000000000000000000000000000000000000000000008152600401611d7b90614771565b60405180910390fd5b600073ffffffffffffffffffffffffffffffffffffffff168273ffffffffffffffffffffffffffffffffffffffff161415611df4576040517f08c379a0000000000000000000000000000000000000000000000000000000008152600401611deb906147d1565b60405180910390fd5b611dff838383612d0c565b611e0a600082611b77565b6001600360008573ffffffffffffffffffffffffffffffffffffffff1673ffffffffffffffffffffffffffffffffffffffff1681526020019081526020016000206000828254611e5a9190614c81565b925050819055506001600360008473ffffffffffffffffffffffffffffffffffffffff1673ffffffffffffffffffffffffffffffffffffffff1681526020019081526020016000206000828254611eb19190614ba0565b92505081905550816002600083815260200190815260200160002060006101000a81548173ffffffffffffffffffffffffffffffffffffffff021916908373ffffffffffffffffffffffffffffffffffffffff160217905550808273ffffffffffffffffffffffffffffffffffffffff168473ffffffffffffffffffffffffffffffffffffffff167fddf252ad1be2c89b69c2b068fc378daa952ba7f163c4a11628f55a4df523b3ef60405160405180910390a4611f70838383612d11565b505050565b6060600082511415611f985760405180602001604052806000815250905061210f565b6000604051806060016040528060408152602001615a806040913990506000600360028551611fc79190614ba0565b611fd19190614bf6565b6004611fdd9190614c27565b90506000602082611fee9190614ba0565b67ffffffffffffffff81111561202d577f4e487b7100000000000000000000000000000000000000000000000000000000600052604160045260246000fd5b6040519080825280601f01601f19166020018201604052801561205f5781602001600182028036833780820191505090505b509050818152600183018586518101602084015b818310156120ce576003830192508251603f8160121c168501518253600182019150603f81600c1c168501518253600182019150603f8160061c168501518253600182019150603f8116850151825360018201915050612073565b6003895106600181146120e857600281146120f857612103565b613d3d60f01b6002830352612103565b603d60f81b60018303525b50505050508093505050505b919050565b60606000600c548360405160200161212c9190614aa8565b6040516020818303038152906040528051906020012060001c61214f9190614e6c565b90506000600d54846040516020016121679190614a7a565b6040516020818303038152906040528051906020012060001c61218a9190614e6c565b90506000600e54856040516020016121a29190614a4c565b6040516020818303038152906040528051906020012060001c6121c59190614e6c565b9050600b8381548110612201577f4e487b7100000000000000000000000000000000000000000000000000000000600052603260045260246000fd5b906000526020600020018281548110612243577f4e487b7100000000000000000000000000000000000000000000000000000000600052603260045260246000fd5b906000526020600020018181548110612285577f4e487b7100000000000000000000000000000000000000000000000000000000600052603260045260246000fd5b90600052602060002090602091828204019190069054906101000a900460ff16156122e5576040517f08c379a00000000000000000000000000000000000000000000000000000000081526004016122dc906149f1565b60405180910390fd5b61244860088481548110612322577f4e487b7100000000000000000000000000000000000000000000000000000000600052603260045260246000fd5b90600052602060002001805480602002602001604051908101604052809291908181526020016000905b8282101561243f57838290600052602060002001805480602002602001604051908101604052809291908181526020016000905b8282101561242c57838290600052602060002001805461239f90614d82565b80601f01602080910402602001604051908101604052809291908181526020018280546123cb90614d82565b80156124185780601f106123ed57610100808354040283529160200191612418565b820191906000526020600020905b8154815290600101906020018083116123fb57829003601f168201915b505050505081526020019060010190612380565b505050508152602001906001019061234c565b50505050612d16565b6125ab60098481548110612485577f4e487b7100000000000000000000000000000000000000000000000000000000600052603260045260246000fd5b90600052602060002001805480602002602001604051908101604052809291908181526020016000905b828210156125a257838290600052602060002001805480602002602001604051908101604052809291908181526020016000905b8282101561258f57838290600052602060002001805461250290614d82565b80601f016020809104026020016040519081016040528092919081815260200182805461252e90614d82565b801561257b5780601f106125505761010080835404028352916020019161257b565b820191906000526020600020905b81548152906001019060200180831161255e57829003601f168201915b5050505050815260200190600101906124e3565b50505050815260200190600101906124af565b50505050612d16565b61270e600a84815481106125e8577f4e487b7100000000000000000000000000000000000000000000000000000000600052603260045260246000fd5b90600052602060002001805480602002602001604051908101604052809291908181526020016000905b8282101561270557838290600052602060002001805480602002602001604051908101604052809291908181526020016000905b828210156126f257838290600052602060002001805461266590614d82565b80601f016020809104026020016040519081016040528092919081815260200182805461269190614d82565b80156126de5780601f106126b3576101008083540402835291602001916126de565b820191906000526020600020905b8154815290600101906020018083116126c157829003601f168201915b505050505081526020019060010190612646565b5050505081526020019060010190612612565b50505050612d16565b60405160200161272093929190614464565b6040516020818303038152906040529350505050919050565b61274282611b03565b612781576040517f08c379a0000000000000000000000000000000000000000000000000000000008152600401612778906148d1565b60405180910390fd5b806006600084815260200190815260200160002090805190602001906127a89291906136a8565b505050565b6000600f60009054906101000a900473ffffffffffffffffffffffffffffffffffffffff16905081600f60006101000a81548173ffffffffffffffffffffffffffffffffffffffff021916908373ffffffffffffffffffffffffffffffffffffffff1602179055508173ffffffffffffffffffffffffffffffffffffffff168173ffffffffffffffffffffffffffffffffffffffff167f8be0079c531659141344cd1fd0a4f28419497f9722a3daafe3b4186f6b6457e060405160405180910390a35050565b60006011600084815260200190815260200160002060009054906101000a900473ffffffffffffffffffffffffffffffffffffffff1690506000601360008581526020019081526020016000205490506128cd8282612efa565b826012600083815260200190815260200160002081905550807fc58c9f48f62f00d6dbb43335e84043f12dbf76dc70abcdd19909664404ca788c846040516129159190614a31565b60405180910390a250505050565b8173ffffffffffffffffffffffffffffffffffffffff168373ffffffffffffffffffffffffffffffffffffffff161415612992576040517f08c379a0000000000000000000000000000000000000000000000000000000008152600401612989906147f1565b60405180910390fd5b80600560008573ffffffffffffffffffffffffffffffffffffffff1673ffffffffffffffffffffffffffffffffffffffff16815260200190815260200160002060008473ffffffffffffffffffffffffffffffffffffffff1673ffffffffffffffffffffffffffffffffffffffff16815260200190815260200160002060006101000a81548160ff0219169083151502179055508173ffffffffffffffffffffffffffffffffffffffff168373ffffffffffffffffffffffffffffffffffffffff167f17307eab39ab6107e8899845ad3d59bd9653f200f220920489ca2b5937696c3183604051612a83919061466b565b60405180910390a3505050565b612a9b848484611d0e565b612aa784848484612f18565b612ae6576040517f08c379a0000000000000000000000000000000000000000000000000000000008152600401612add90614731565b60405180910390fd5b50505050565b606060405180602001604052806000815250905090565b6060612b0e82611b03565b612b4d576040517f08c379a0000000000000000000000000000000000000000000000000000000008152600401612b4490614991565b60405180910390fd5b6000612b57612aec565b90506000815111612b775760405180602001604052806000815250612ba2565b80612b81846130af565b604051602001612b92929190614388565b6040516020818303038152906040525b915050919050565b60007f000000000000000000000000000000000000000000000000000000000000000073ffffffffffffffffffffffffffffffffffffffff16634000aea07f000000000000000000000000000000000000000000000000000000000000000084866000604051602001612c1e9291906146a1565b6040516020818303038152906040526040518463ffffffff1660e01b8152600401612c4b9392919061462d565b602060405180830381600087803b158015612c6557600080fd5b505af1158015612c79573d6000803e3d6000fd5b505050506040513d601f19601f82011682018060405250810190612c9d9190613a55565b506000612cc084600030600760008981526020019081526020016000205461325c565b905060016007600086815260200190815260200160002054612ce29190614ba0565b6007600086815260200190815260200160002081905550612d038482613298565b91505092915050565b505050565b505050565b606060005b82518160ff161015612ef45781612ebf84600081518110612d65577f4e487b7100000000000000000000000000000000000000000000000000000000600052603260045260246000fd5b60200260200101518360ff1681518110612da8577f4e487b7100000000000000000000000000000000000000000000000000000000600052603260045260246000fd5b602002602001015185600181518110612dea577f4e487b7100000000000000000000000000000000000000000000000000000000600052603260045260246000fd5b60200260200101518460ff1681518110612e2d577f4e487b7100000000000000000000000000000000000000000000000000000000600052603260045260246000fd5b602002602001015186600281518110612e6f577f4e487b7100000000000000000000000000000000000000000000000000000000600052603260045260246000fd5b60200260200101518560ff1681518110612eb2577f4e487b7100000000000000000000000000000000000000000000000000000000600052603260045260246000fd5b60200260200101516132cb565b604051602001612ed0929190614388565b60405160208183030381529060405291508080612eec90614e2e565b915050612d1b565b50919050565b612f14828260405180602001604052806000815250613450565b5050565b6000612f398473ffffffffffffffffffffffffffffffffffffffff166134ab565b156130a2578373ffffffffffffffffffffffffffffffffffffffff1663150b7a02612f62611b6f565b8786866040518563ffffffff1660e01b8152600401612f8494939291906145e1565b602060405180830381600087803b158015612f9e57600080fd5b505af1925050508015612fcf57506040513d601f19601f82011682018060405250810190612fcc9190613b0c565b60015b613052573d8060008114612fff576040519150601f19603f3d011682016040523d82523d6000602084013e613004565b606091505b5060008151141561304a576040517f08c379a000000000000000000000000000000000000000000000000000000000815260040161304190614731565b60405180910390fd5b805181602001fd5b63150b7a0260e01b7bffffffffffffffffffffffffffffffffffffffffffffffffffffffff1916817bffffffffffffffffffffffffffffffffffffffffffffffffffffffff1916149150506130a7565b600190505b949350505050565b606060008214156130f7576040518060400160405280600181526020017f30000000000000000000000000000000000000000000000000000000000000008152509050613257565b600082905060005b6000821461312957808061311290614de5565b915050600a826131229190614bf6565b91506130ff565b60008167ffffffffffffffff81111561316b577f4e487b7100000000000000000000000000000000000000000000000000000000600052604160045260246000fd5b6040519080825280601f01601f19166020018201604052801561319d5781602001600182028036833780820191505090505b5090505b60008514613250576001826131b69190614c81565b9150600a856131c59190614e6c565b60306131d19190614ba0565b60f81b81838151811061320d577f4e487b7100000000000000000000000000000000000000000000000000000000600052603260045260246000fd5b60200101907effffffffffffffffffffffffffffffffffffffffffffffffffffffffffffff1916908160001a905350600a856132499190614bf6565b94506131a1565b8093505050505b919050565b60008484848460405160200161327594939291906146ca565b6040516020818303038152906040528051906020012060001c9050949350505050565b600082826040516020016132ad929190614345565b60405160208183030381529060405280519060200120905092915050565b6060836040516020016132de9190614562565b60405160208183030381529060405290506040516020016132fe906145b1565b60405160208183030381529060405280519060200120836040516020016133259190614371565b60405160208183030381529060405280519060200120141561336657806040516020016133529190614420565b604051602081830303815290604052613389565b80836040516020016133799291906143e6565b6040516020818303038152906040525b905060405160200161339a906145b1565b60405160208183030381529060405280519060200120826040516020016133c19190614371565b60405160208183030381529060405280519060200120141561340257806040516020016133ee9190614420565b604051602081830303815290604052613425565b80826040516020016134159291906143ac565b6040516020818303038152906040525b9050806040516020016134389190614442565b60405160208183030381529060405290509392505050565b61345a83836134ce565b6134676000848484612f18565b6134a6576040517f08c379a000000000000000000000000000000000000000000000000000000000815260040161349d90614731565b60405180910390fd5b505050565b6000808273ffffffffffffffffffffffffffffffffffffffff163b119050919050565b600073ffffffffffffffffffffffffffffffffffffffff168273ffffffffffffffffffffffffffffffffffffffff16141561353e576040517f08c379a000000000000000000000000000000000000000000000000000000000815260040161353590614911565b60405180910390fd5b61354781611b03565b15613587576040517f08c379a000000000000000000000000000000000000000000000000000000000815260040161357e90614791565b60405180910390fd5b61359360008383612d0c565b6001600360008473ffffffffffffffffffffffffffffffffffffffff1673ffffffffffffffffffffffffffffffffffffffff16815260200190815260200160002060008282546135e39190614ba0565b92505081905550816002600083815260200190815260200160002060006101000a81548173ffffffffffffffffffffffffffffffffffffffff021916908373ffffffffffffffffffffffffffffffffffffffff160217905550808273ffffffffffffffffffffffffffffffffffffffff16600073ffffffffffffffffffffffffffffffffffffffff167fddf252ad1be2c89b69c2b068fc378daa952ba7f163c4a11628f55a4df523b3ef60405160405180910390a46136a460008383612d11565b5050565b8280546136b490614d82565b90600052602060002090601f0160209004810192826136d6576000855561371d565b82601f106136ef57805160ff191683800117855561371d565b8280016001018555821561371d579182015b8281111561371c578251825591602001919060010190613701565b5b50905061372a919061372e565b5090565b5b8082111561374757600081600090555060010161372f565b5090565b600061375e61375984614afb565b614ad6565b90508281526020810184848401111561377657600080fd5b613781848285614d40565b509392505050565b600061379c61379784614b2c565b614ad6565b9050828152602081018484840111156137b457600080fd5b6137bf848285614d40565b509392505050565b6000813590506137d681615a0c565b92915050565b6000813590506137eb81615a23565b92915050565b60008151905061380081615a23565b92915050565b60008135905061381581615a3a565b92915050565b60008135905061382a81615a51565b92915050565b60008151905061383f81615a51565b92915050565b600082601f83011261385657600080fd5b813561386684826020860161374b565b91505092915050565b600082601f83011261388057600080fd5b8135613890848260208601613789565b91505092915050565b6000813590506138a881615a68565b92915050565b6000602082840312156138c057600080fd5b60006138ce848285016137c7565b91505092915050565b600080604083850312156138ea57600080fd5b60006138f8858286016137c7565b9250506020613909858286016137c7565b9150509250929050565b60008060006060848603121561392857600080fd5b6000613936868287016137c7565b9350506020613947868287016137c7565b925050604061395886828701613899565b9150509250925092565b6000806000806080858703121561397857600080fd5b6000613986878288016137c7565b9450506020613997878288016137c7565b93505060406139a887828801613899565b925050606085013567ffffffffffffffff8111156139c557600080fd5b6139d187828801613845565b91505092959194509250565b600080604083850312156139f057600080fd5b60006139fe858286016137c7565b9250506020613a0f858286016137dc565b9150509250929050565b60008060408385031215613a2c57600080fd5b6000613a3a858286016137c7565b9250506020613a4b85828601613899565b9150509250929050565b600060208284031215613a6757600080fd5b6000613a75848285016137f1565b91505092915050565b600060208284031215613a9057600080fd5b6000613a9e84828501613806565b91505092915050565b60008060408385031215613aba57600080fd5b6000613ac885828601613806565b9250506020613ad985828601613899565b9150509250929050565b600060208284031215613af557600080fd5b6000613b038482850161381b565b91505092915050565b600060208284031215613b1e57600080fd5b6000613b2c84828501613830565b91505092915050565b600060208284031215613b4757600080fd5b600082013567ffffffffffffffff811115613b6157600080fd5b613b6d8482850161386f565b91505092915050565b600060208284031215613b8857600080fd5b6000613b9684828501613899565b91505092915050565b600080600060608486031215613bb457600080fd5b6000613bc286828701613899565b9350506020613bd386828701613899565b9250506040613be486828701613899565b9150509250925092565b613bf781614cb5565b82525050565b613c0681614cc7565b82525050565b613c1581614cd3565b82525050565b613c2c613c2782614cd3565b614e58565b82525050565b6000613c3d82614b5d565b613c478185614b73565b9350613c57818560208601614d4f565b613c6081614f59565b840191505092915050565b6000613c7682614b68565b613c808185614b84565b9350613c90818560208601614d4f565b613c9981614f59565b840191505092915050565b6000613caf82614b68565b613cb98185614b95565b9350613cc9818560208601614d4f565b80840191505092915050565b6000613ce2604083614b95565b9150613ced82614f6a565b604082019050919050565b6000613d05604183614b95565b9150613d1082614fb9565b604182019050919050565b6000613d28600e83614b95565b9150613d338261502e565b600e82019050919050565b6000613d4b600983614b95565b9150613d5682615057565b600982019050919050565b6000613d6e603283614b84565b9150613d7982615080565b604082019050919050565b6000613d91602683614b84565b9150613d9c826150cf565b604082019050919050565b6000613db4602583614b84565b9150613dbf8261511e565b604082019050919050565b6000613dd7601c83614b84565b9150613de28261516d565b602082019050919050565b6000613dfa602f83614b84565b9150613e0582615196565b604082019050919050565b6000613e1d602483614b84565b9150613e28826151e5565b604082019050919050565b6000613e40601983614b84565b9150613e4b82615234565b602082019050919050565b6000613e63600683614b84565b9150613e6e8261525d565b602082019050919050565b6000613e86600983614b95565b9150613e9182615286565b600982019050919050565b6000613ea9601883614b84565b9150613eb4826152af565b602082019050919050565b6000613ecc602c83614b84565b9150613ed7826152d8565b604082019050919050565b6000613eef602083614b84565b9150613efa82615327565b602082019050919050565b6000613f12602083614b95565b9150613f1d82615350565b602082019050919050565b6000613f35600783614b95565b9150613f4082615379565b600782019050919050565b6000613f58603883614b84565b9150613f63826153a2565b604082019050919050565b6000613f7b602a83614b84565b9150613f86826153f1565b604082019050919050565b6000613f9e602983614b84565b9150613fa982615440565b604082019050919050565b6000613fc1602e83614b84565b9150613fcc8261548f565b604082019050919050565b6000613fe4600483614b84565b9150613fef826154de565b602082019050919050565b6000614007602083614b84565b915061401282615507565b602082019050919050565b600061402a600283614b95565b915061403582615530565b600282019050919050565b600061404d600683614b95565b915061405882615559565b600682019050919050565b6000614070602083614b84565b915061407b82615582565b602082019050919050565b6000614093603183614b84565b915061409e826155ab565b604082019050919050565b60006140b6602c83614b84565b91506140c1826155fa565b604082019050919050565b60006140d9600583614b84565b91506140e482615649565b602082019050919050565b60006140fc602083614b84565b915061410782615672565b602082019050919050565b600061411f605283614b95565b915061412a8261569b565b605282019050919050565b6000614142602f83614b84565b915061414d82615710565b604082019050919050565b6000614165600483614b95565b91506141708261575f565b600482019050919050565b6000614188601f83614b84565b915061419382615788565b602082019050919050565b60006141ab602083614b95565b91506141b6826157b1565b602082019050919050565b60006141ce602183614b84565b91506141d9826157da565b604082019050919050565b60006141f1601683614b84565b91506141fc82615829565b602082019050919050565b6000614214601d83614b95565b915061421f82615852565b601d82019050919050565b6000614237602083614b95565b91506142428261587b565b602082019050919050565b600061425a600083614b95565b9150614265826158a4565b600082019050919050565b600061427d603183614b84565b9150614288826158a7565b604082019050919050565b60006142a0600283614b95565b91506142ab826158f6565b600282019050919050565b60006142c3600283614b95565b91506142ce8261591f565b600282019050919050565b60006142e6600683614b95565b91506142f182615948565b600682019050919050565b6000614309606783614b95565b915061431482615971565b606782019050919050565b61432881614d29565b82525050565b61433f61433a82614d29565b614e62565b82525050565b60006143518285613c1b565b602082019150614361828461432e565b6020820191508190509392505050565b600061437d8284613ca4565b915081905092915050565b60006143948285613ca4565b91506143a08284613ca4565b91508190509392505050565b60006143b88285613ca4565b91506143c382613d1b565b91506143cf8284613ca4565b91506143da826142b6565b91508190509392505050565b60006143f28285613ca4565b91506143fd82614040565b91506144098284613ca4565b9150614414826142b6565b91508190509392505050565b600061442c8284613ca4565b91506144378261424d565b915081905092915050565b600061444e8284613ca4565b915061445982614293565b915081905092915050565b600061446f82613cf8565b915061447a82613cd5565b91506144858261422a565b9150614490826142fc565b915061449c8286613ca4565b91506144a782614158565b91506144b28261419e565b91506144be8285613ca4565b91506144c982614158565b91506144d482613f05565b91506144e08284613ca4565b91506144eb82614158565b91506144f682614158565b9150614501826142d9565b9150819050949350505050565b600061451982613d3e565b915061452482613f28565b9150614530828561432e565b60208201915061453f82614112565b915061454b8284613ca4565b91506145568261401d565b91508190509392505050565b600061456d82613e79565b91506145798284613ca4565b9150614584826142b6565b915081905092915050565b600061459a82614207565b91506145a68284613ca4565b915081905092915050565b60006145bc8261424d565b9150819050919050565b60006020820190506145db6000830184613bee565b92915050565b60006080820190506145f66000830187613bee565b6146036020830186613bee565b614610604083018561431f565b81810360608301526146228184613c32565b905095945050505050565b60006060820190506146426000830186613bee565b61464f602083018561431f565b81810360408301526146618184613c32565b9050949350505050565b60006020820190506146806000830184613bfd565b92915050565b600060208201905061469b6000830184613c0c565b92915050565b60006040820190506146b66000830185613c0c565b6146c3602083018461431f565b9392505050565b60006080820190506146df6000830187613c0c565b6146ec602083018661431f565b6146f96040830185613bee565b614706606083018461431f565b95945050505050565b600060208201905081810360008301526147298184613c6b565b905092915050565b6000602082019050818103600083015261474a81613d61565b9050919050565b6000602082019050818103600083015261476a81613d84565b9050919050565b6000602082019050818103600083015261478a81613da7565b9050919050565b600060208201905081810360008301526147aa81613dca565b9050919050565b600060208201905081810360008301526147ca81613ded565b9050919050565b600060208201905081810360008301526147ea81613e10565b9050919050565b6000602082019050818103600083015261480a81613e33565b9050919050565b6000602082019050818103600083015261482a81613e9c565b9050919050565b6000602082019050818103600083015261484a81613ebf565b9050919050565b6000602082019050818103600083015261486a81613ee2565b9050919050565b6000602082019050818103600083015261488a81613f4b565b9050919050565b600060208201905081810360008301526148aa81613f6e565b9050919050565b600060208201905081810360008301526148ca81613f91565b9050919050565b600060208201905081810360008301526148ea81613fb4565b9050919050565b6000602082019050818103600083015261490a81613ffa565b9050919050565b6000602082019050818103600083015261492a81614063565b9050919050565b6000602082019050818103600083015261494a81614086565b9050919050565b6000602082019050818103600083015261496a816140a9565b9050919050565b6000602082019050818103600083015261498a816140ef565b9050919050565b600060208201905081810360008301526149aa81614135565b9050919050565b600060208201905081810360008301526149ca8161417b565b9050919050565b600060208201905081810360008301526149ea816141c1565b9050919050565b60006020820190508181036000830152614a0a816141e4565b9050919050565b60006020820190508181036000830152614a2a81614270565b9050919050565b6000602082019050614a46600083018461431f565b92915050565b6000604082019050614a61600083018461431f565b8181036020830152614a7281613e56565b905092915050565b6000604082019050614a8f600083018461431f565b8181036020830152614aa081613fd7565b905092915050565b6000604082019050614abd600083018461431f565b8181036020830152614ace816140cc565b905092915050565b6000614ae0614af1565b9050614aec8282614db4565b919050565b6000604051905090565b600067ffffffffffffffff821115614b1657614b15614f2a565b5b614b1f82614f59565b9050602081019050919050565b600067ffffffffffffffff821115614b4757614b46614f2a565b5b614b5082614f59565b9050602081019050919050565b600081519050919050565b600081519050919050565b600082825260208201905092915050565b600082825260208201905092915050565b600081905092915050565b6000614bab82614d29565b9150614bb683614d29565b9250827fffffffffffffffffffffffffffffffffffffffffffffffffffffffffffffffff03821115614beb57614bea614e9d565b5b828201905092915050565b6000614c0182614d29565b9150614c0c83614d29565b925082614c1c57614c1b614ecc565b5b828204905092915050565b6000614c3282614d29565b9150614c3d83614d29565b9250817fffffffffffffffffffffffffffffffffffffffffffffffffffffffffffffffff0483118215151615614c7657614c75614e9d565b5b828202905092915050565b6000614c8c82614d29565b9150614c9783614d29565b925082821015614caa57614ca9614e9d565b5b828203905092915050565b6000614cc082614d09565b9050919050565b60008115159050919050565b6000819050919050565b60007fffffffff0000000000000000000000000000000000000000000000000000000082169050919050565b600073ffffffffffffffffffffffffffffffffffffffff82169050919050565b6000819050919050565b600060ff82169050919050565b82818337600083830152505050565b60005b83811015614d6d578082015181840152602081019050614d52565b83811115614d7c576000848401525b50505050565b60006002820490506001821680614d9a57607f821691505b60208210811415614dae57614dad614efb565b5b50919050565b614dbd82614f59565b810181811067ffffffffffffffff82111715614ddc57614ddb614f2a565b5b80604052505050565b6000614df082614d29565b91507fffffffffffffffffffffffffffffffffffffffffffffffffffffffffffffffff821415614e2357614e22614e9d565b5b600182019050919050565b6000614e3982614d33565b915060ff821415614e4d57614e4c614e9d565b5b600182019050919050565b6000819050919050565b6000819050919050565b6000614e7782614d29565b9150614e8283614d29565b925082614e9257614e91614ecc565b5b828206905092915050565b7f4e487b7100000000000000000000000000000000000000000000000000000000600052601160045260246000fd5b7f4e487b7100000000000000000000000000000000000000000000000000000000600052601260045260246000fd5b7f4e487b7100000000000000000000000000000000000000000000000000000000600052602260045260246000fd5b7f4e487b7100000000000000000000000000000000000000000000000000000000600052604160045260246000fd5b6000601f19601f8301169050919050565b7f3c67207472616e73666f726d3d277472616e736c61746528343320333529272060008201527f66696c6c3d276e6f6e65272066696c6c2d72756c653d276576656e6f6464273e602082015250565b7f3c7376672077696474683d2733383027206865696768743d273438302720786d60008201527f6c6e733d27687474703a2f2f7777772e77332e6f72672f323030302f7376672760208201527f3e00000000000000000000000000000000000000000000000000000000000000604082015250565b7f66696c6c2d6f7061636974793d27000000000000000000000000000000000000600082015250565b7f7b226e616d65223a220000000000000000000000000000000000000000000000600082015250565b7f4552433732313a207472616e7366657220746f206e6f6e20455243373231526560008201527f63656976657220696d706c656d656e7465720000000000000000000000000000602082015250565b7f4f776e61626c653a206e6577206f776e657220697320746865207a65726f206160008201527f6464726573730000000000000000000000000000000000000000000000000000602082015250565b7f4552433732313a207472616e736665722066726f6d20696e636f72726563742060008201527f6f776e6572000000000000000000000000000000000000000000000000000000602082015250565b7f4552433732313a20746f6b656e20616c7265616479206d696e74656400000000600082015250565b7f4e65656420746f207761697420666f722074686520436861696e6c696e6b206e60008201527f6f646520746f20726573706f6e64210000000000000000000000000000000000602082015250565b7f4552433732313a207472616e7366657220746f20746865207a65726f2061646460008201527f7265737300000000000000000000000000000000000000000000000000000000602082015250565b7f4552433732313a20617070726f766520746f2063616c6c657200000000000000600082015250565b7f626f646965730000000000000000000000000000000000000000000000000000600082015250565b7f3c7061746820643d270000000000000000000000000000000000000000000000600082015250565b7f746f6b656e55524920697320616c726561647920736574210000000000000000600082015250565b7f4552433732313a206f70657261746f7220717565727920666f72206e6f6e657860008201527f697374656e7420746f6b656e0000000000000000000000000000000000000000602082015250565b7f416c6c2048756d6161616e73207765726520616c7265616479206d696e746564600082015250565b7f3c67207472616e73666f726d3d277472616e736c61746528323220383229273e600082015250565b7f48756d6161616e00000000000000000000000000000000000000000000000000600082015250565b7f4552433732313a20617070726f76652063616c6c6572206973206e6f74206f7760008201527f6e6572206e6f7220617070726f76656420666f7220616c6c0000000000000000602082015250565b7f4552433732313a2062616c616e636520717565727920666f7220746865207a6560008201527f726f206164647265737300000000000000000000000000000000000000000000602082015250565b7f4552433732313a206f776e657220717565727920666f72206e6f6e657869737460008201527f656e7420746f6b656e0000000000000000000000000000000000000000000000602082015250565b7f45524337323155524953746f726167653a2055524920736574206f66206e6f6e60008201527f6578697374656e7420746f6b656e000000000000000000000000000000000000602082015250565b7f6c65677300000000000000000000000000000000000000000000000000000000600082015250565b7f546f6b656e496420686173206e6f74206265656e206d696e7465642079657421600082015250565b7f227d000000000000000000000000000000000000000000000000000000000000600082015250565b7f66696c6c3d270000000000000000000000000000000000000000000000000000600082015250565b7f4552433732313a206d696e7420746f20746865207a65726f2061646472657373600082015250565b7f45524337323155524953746f726167653a2055524920717565727920666f722060008201527f6e6f6e6578697374656e7420746f6b656e000000000000000000000000000000602082015250565b7f4552433732313a20617070726f76656420717565727920666f72206e6f6e657860008201527f697374656e7420746f6b656e0000000000000000000000000000000000000000602082015250565b7f6861697273000000000000000000000000000000000000000000000000000000600082015250565b7f4f776e61626c653a2063616c6c6572206973206e6f7420746865206f776e6572600082015250565b7f222c20226465736372697074696f6e223a2252616e646f6d6c792067656e657260008201527f61746564206f6e2d636861696e2048756d6161616e222c20226174747269627560208201527f746573223a22222c2022696d616765223a220000000000000000000000000000604082015250565b7f4552433732314d657461646174613a2055524920717565727920666f72206e6f60008201527f6e6578697374656e7420746f6b656e0000000000000000000000000000000000602082015250565b7f3c2f673e00000000000000000000000000000000000000000000000000000000600082015250565b7f4f6e6c7920565246436f6f7264696e61746f722063616e2066756c66696c6c00600082015250565b7f3c67207472616e73666f726d3d277472616e736c61746528302031383729273e600082015250565b7f4552433732313a20617070726f76616c20746f2063757272656e74206f776e6560008201527f7200000000000000000000000000000000000000000000000000000000000000602082015250565b7f48756d6161616e20616c72656164792065786973747300000000000000000000600082015250565b7f646174613a6170706c69636174696f6e2f6a736f6e3b6261736536342c000000600082015250565b7f3c67207472616e73666f726d3d277472616e736c617465283832202d3729273e600082015250565b50565b7f4552433732313a207472616e736665722063616c6c6572206973206e6f74206f60008201527f776e6572206e6f7220617070726f766564000000000000000000000000000000602082015250565b7f2f3e000000000000000000000000000000000000000000000000000000000000600082015250565b7f2720000000000000000000000000000000000000000000000000000000000000600082015250565b7f3c2f7376673e0000000000000000000000000000000000000000000000000000600082015250565b7f3c7061746820643d274d3632203635632d342d352d372d31322d372d3139203260008201527f2d32312033312d31372033372d3673352033382d32203430632d3320312d313060208201527f2d312d31362d356c342032394835346c382d33395a272066696c6c3d2723423260408201527f38423637272f3e00000000000000000000000000000000000000000000000000606082015250565b615a1581614cb5565b8114615a2057600080fd5b50565b615a2c81614cc7565b8114615a3757600080fd5b50565b615a4381614cd3565b8114615a4e57600080fd5b50565b615a5a81614cdd565b8114615a6557600080fd5b50565b615a7181614d29565b8114615a7c57600080fd5b5056fe4142434445464748494a4b4c4d4e4f505152535455565758595a6162636465666768696a6b6c6d6e6f707172737475767778797a303132333435363738392b2fa26469706673582212206ad7e73eb11d9af330536fe21deed30b0f42b49aabefbc57e80191361306a32f64736f6c63430008010033",
  "devdoc": {
    "kind": "dev",
    "methods": {
      "approve(address,uint256)": {
        "details": "See {IERC721-approve}."
      },
      "balanceOf(address)": {
        "details": "See {IERC721-balanceOf}."
      },
      "getApproved(uint256)": {
        "details": "See {IERC721-getApproved}."
      },
      "isApprovedForAll(address,address)": {
        "details": "See {IERC721-isApprovedForAll}."
      },
      "name()": {
        "details": "See {IERC721Metadata-name}."
      },
      "owner()": {
        "details": "Returns the address of the current owner."
      },
      "ownerOf(uint256)": {
        "details": "See {IERC721-ownerOf}."
      },
      "renounceOwnership()": {
        "details": "Leaves the contract without owner. It will not be possible to call `onlyOwner` functions anymore. Can only be called by the current owner. NOTE: Renouncing ownership will leave the contract without an owner, thereby removing any functionality that is only available to the owner."
      },
      "safeTransferFrom(address,address,uint256)": {
        "details": "See {IERC721-safeTransferFrom}."
      },
      "safeTransferFrom(address,address,uint256,bytes)": {
        "details": "See {IERC721-safeTransferFrom}."
      },
      "setApprovalForAll(address,bool)": {
        "details": "See {IERC721-setApprovalForAll}."
      },
      "supportsInterface(bytes4)": {
        "details": "See {IERC165-supportsInterface}."
      },
      "symbol()": {
        "details": "See {IERC721Metadata-symbol}."
      },
      "tokenURI(uint256)": {
        "details": "See {IERC721Metadata-tokenURI}."
      },
      "transferFrom(address,address,uint256)": {
        "details": "See {IERC721-transferFrom}."
      },
      "transferOwnership(address)": {
        "details": "Transfers ownership of the contract to a new account (`newOwner`). Can only be called by the current owner."
      }
    },
    "version": 1
  },
  "userdoc": {
    "kind": "user",
    "methods": {},
    "version": 1
  },
  "storageLayout": {
    "storage": [
      {
        "astId": 396,
        "contract": "contracts/Humaaans.sol:Humaaans",
        "label": "_name",
        "offset": 0,
        "slot": "0",
        "type": "t_string_storage"
      },
      {
        "astId": 398,
        "contract": "contracts/Humaaans.sol:Humaaans",
        "label": "_symbol",
        "offset": 0,
        "slot": "1",
        "type": "t_string_storage"
      },
      {
        "astId": 402,
        "contract": "contracts/Humaaans.sol:Humaaans",
        "label": "_owners",
        "offset": 0,
        "slot": "2",
        "type": "t_mapping(t_uint256,t_address)"
      },
      {
        "astId": 406,
        "contract": "contracts/Humaaans.sol:Humaaans",
        "label": "_balances",
        "offset": 0,
        "slot": "3",
        "type": "t_mapping(t_address,t_uint256)"
      },
      {
        "astId": 410,
        "contract": "contracts/Humaaans.sol:Humaaans",
        "label": "_tokenApprovals",
        "offset": 0,
        "slot": "4",
        "type": "t_mapping(t_uint256,t_address)"
      },
      {
        "astId": 416,
        "contract": "contracts/Humaaans.sol:Humaaans",
        "label": "_operatorApprovals",
        "offset": 0,
        "slot": "5",
        "type": "t_mapping(t_address,t_mapping(t_address,t_bool))"
      },
      {
        "astId": 1383,
        "contract": "contracts/Humaaans.sol:Humaaans",
        "label": "_tokenURIs",
        "offset": 0,
        "slot": "6",
        "type": "t_mapping(t_uint256,t_string_storage)"
      },
      {
        "astId": 79,
        "contract": "contracts/Humaaans.sol:Humaaans",
        "label": "nonces",
        "offset": 0,
        "slot": "7",
        "type": "t_mapping(t_bytes32,t_uint256)"
      },
      {
        "astId": 2554,
        "contract": "contracts/Humaaans.sol:Humaaans",
        "label": "hairs",
        "offset": 0,
        "slot": "8",
        "type": "t_array(t_array(t_array(t_string_storage)dyn_storage)dyn_storage)dyn_storage"
      },
      {
        "astId": 2559,
        "contract": "contracts/Humaaans.sol:Humaaans",
        "label": "legs",
        "offset": 0,
        "slot": "9",
        "type": "t_array(t_array(t_array(t_string_storage)dyn_storage)dyn_storage)dyn_storage"
      },
      {
        "astId": 2564,
        "contract": "contracts/Humaaans.sol:Humaaans",
        "label": "bodies",
        "offset": 0,
        "slot": "10",
        "type": "t_array(t_array(t_array(t_string_storage)dyn_storage)dyn_storage)dyn_storage"
      },
      {
        "astId": 2569,
        "contract": "contracts/Humaaans.sol:Humaaans",
        "label": "alreadyMinted",
        "offset": 0,
        "slot": "11",
        "type": "t_array(t_array(t_array(t_bool)dyn_storage)dyn_storage)dyn_storage"
      },
      {
        "astId": 2571,
        "contract": "contracts/Humaaans.sol:Humaaans",
        "label": "maxHairs",
        "offset": 0,
        "slot": "12",
        "type": "t_uint256"
      },
      {
        "astId": 2573,
        "contract": "contracts/Humaaans.sol:Humaaans",
        "label": "maxLegs",
        "offset": 0,
        "slot": "13",
        "type": "t_uint256"
      },
      {
        "astId": 2575,
        "contract": "contracts/Humaaans.sol:Humaaans",
        "label": "maxBodies",
        "offset": 0,
        "slot": "14",
        "type": "t_uint256"
      },
      {
        "astId": 273,
        "contract": "contracts/Humaaans.sol:Humaaans",
        "label": "_owner",
        "offset": 0,
        "slot": "15",
        "type": "t_address"
      },
      {
        "astId": 2213,
        "contract": "contracts/Humaaans.sol:Humaaans",
        "label": "tokenCounter",
        "offset": 0,
        "slot": "16",
        "type": "t_uint256"
      },
      {
        "astId": 2237,
        "contract": "contracts/Humaaans.sol:Humaaans",
        "label": "requestIdToSender",
        "offset": 0,
        "slot": "17",
        "type": "t_mapping(t_bytes32,t_address)"
      },
      {
        "astId": 2241,
        "contract": "contracts/Humaaans.sol:Humaaans",
        "label": "tokenIdToRandomNumber",
        "offset": 0,
        "slot": "18",
        "type": "t_mapping(t_uint256,t_uint256)"
      },
      {
        "astId": 2245,
        "contract": "contracts/Humaaans.sol:Humaaans",
        "label": "requestIdToTokenId",
        "offset": 0,
        "slot": "19",
        "type": "t_mapping(t_bytes32,t_uint256)"
      },
      {
        "astId": 2247,
        "contract": "contracts/Humaaans.sol:Humaaans",
        "label": "keyHash",
        "offset": 0,
        "slot": "20",
        "type": "t_bytes32"
      },
      {
        "astId": 2249,
        "contract": "contracts/Humaaans.sol:Humaaans",
        "label": "fee",
        "offset": 0,
        "slot": "21",
        "type": "t_uint256"
      }
    ],
    "types": {
      "t_address": {
        "encoding": "inplace",
        "label": "address",
        "numberOfBytes": "20"
      },
      "t_array(t_array(t_array(t_bool)dyn_storage)dyn_storage)dyn_storage": {
        "base": "t_array(t_array(t_bool)dyn_storage)dyn_storage",
        "encoding": "dynamic_array",
        "label": "bool[][][]",
        "numberOfBytes": "32"
      },
      "t_array(t_array(t_array(t_string_storage)dyn_storage)dyn_storage)dyn_storage": {
        "base": "t_array(t_array(t_string_storage)dyn_storage)dyn_storage",
        "encoding": "dynamic_array",
        "label": "string[][][]",
        "numberOfBytes": "32"
      },
      "t_array(t_array(t_bool)dyn_storage)dyn_storage": {
        "base": "t_array(t_bool)dyn_storage",
        "encoding": "dynamic_array",
        "label": "bool[][]",
        "numberOfBytes": "32"
      },
      "t_array(t_array(t_string_storage)dyn_storage)dyn_storage": {
        "base": "t_array(t_string_storage)dyn_storage",
        "encoding": "dynamic_array",
        "label": "string[][]",
        "numberOfBytes": "32"
      },
      "t_array(t_bool)dyn_storage": {
        "base": "t_bool",
        "encoding": "dynamic_array",
        "label": "bool[]",
        "numberOfBytes": "32"
      },
      "t_array(t_string_storage)dyn_storage": {
        "base": "t_string_storage",
        "encoding": "dynamic_array",
        "label": "string[]",
        "numberOfBytes": "32"
      },
      "t_bool": {
        "encoding": "inplace",
        "label": "bool",
        "numberOfBytes": "1"
      },
      "t_bytes32": {
        "encoding": "inplace",
        "label": "bytes32",
        "numberOfBytes": "32"
      },
      "t_mapping(t_address,t_bool)": {
        "encoding": "mapping",
        "key": "t_address",
        "label": "mapping(address => bool)",
        "numberOfBytes": "32",
        "value": "t_bool"
      },
      "t_mapping(t_address,t_mapping(t_address,t_bool))": {
        "encoding": "mapping",
        "key": "t_address",
        "label": "mapping(address => mapping(address => bool))",
        "numberOfBytes": "32",
        "value": "t_mapping(t_address,t_bool)"
      },
      "t_mapping(t_address,t_uint256)": {
        "encoding": "mapping",
        "key": "t_address",
        "label": "mapping(address => uint256)",
        "numberOfBytes": "32",
        "value": "t_uint256"
      },
      "t_mapping(t_bytes32,t_address)": {
        "encoding": "mapping",
        "key": "t_bytes32",
        "label": "mapping(bytes32 => address)",
        "numberOfBytes": "32",
        "value": "t_address"
      },
      "t_mapping(t_bytes32,t_uint256)": {
        "encoding": "mapping",
        "key": "t_bytes32",
        "label": "mapping(bytes32 => uint256)",
        "numberOfBytes": "32",
        "value": "t_uint256"
      },
      "t_mapping(t_uint256,t_address)": {
        "encoding": "mapping",
        "key": "t_uint256",
        "label": "mapping(uint256 => address)",
        "numberOfBytes": "32",
        "value": "t_address"
      },
      "t_mapping(t_uint256,t_string_storage)": {
        "encoding": "mapping",
        "key": "t_uint256",
        "label": "mapping(uint256 => string)",
        "numberOfBytes": "32",
        "value": "t_string_storage"
      },
      "t_mapping(t_uint256,t_uint256)": {
        "encoding": "mapping",
        "key": "t_uint256",
        "label": "mapping(uint256 => uint256)",
        "numberOfBytes": "32",
        "value": "t_uint256"
      },
      "t_string_storage": {
        "encoding": "bytes",
        "label": "string",
        "numberOfBytes": "32"
      },
      "t_uint256": {
        "encoding": "inplace",
        "label": "uint256",
        "numberOfBytes": "32"
      }
    }
  }
}