{
  "address": "0x105090a5E1042f782670279C2683fd816E471F87",
  "abi": [
    {
      "inputs": [
        {
          "internalType": "address",
          "name": "_VRFCoordinator",
          "type": "address"
        },
        {
          "internalType": "address",
          "name": "_LinkToken",
          "type": "address"
        },
        {
          "internalType": "bytes32",
          "name": "_keyhash",
          "type": "bytes32"
        },
        {
          "internalType": "uint256",
          "name": "_fee",
          "type": "uint256"
        },
        {
          "internalType": "string[][]",
          "name": "_hairs",
          "type": "string[][]"
        },
        {
          "internalType": "string[][]",
          "name": "_legs",
          "type": "string[][]"
        },
        {
          "internalType": "string[][]",
          "name": "_bodies",
          "type": "string[][]"
        }
      ],
      "stateMutability": "nonpayable",
      "type": "constructor"
    },
    {
      "anonymous": false,
      "inputs": [
        {
          "indexed": true,
          "internalType": "address",
          "name": "owner",
          "type": "address"
        },
        {
          "indexed": true,
          "internalType": "address",
          "name": "approved",
          "type": "address"
        },
        {
          "indexed": true,
          "internalType": "uint256",
          "name": "tokenId",
          "type": "uint256"
        }
      ],
      "name": "Approval",
      "type": "event"
    },
    {
      "anonymous": false,
      "inputs": [
        {
          "indexed": true,
          "internalType": "address",
          "name": "owner",
          "type": "address"
        },
        {
          "indexed": true,
          "internalType": "address",
          "name": "operator",
          "type": "address"
        },
        {
          "indexed": false,
          "internalType": "bool",
          "name": "approved",
          "type": "bool"
        }
      ],
      "name": "ApprovalForAll",
      "type": "event"
    },
    {
      "anonymous": false,
      "inputs": [
        {
          "indexed": true,
          "internalType": "uint256",
          "name": "tokenId",
          "type": "uint256"
        },
        {
          "indexed": false,
          "internalType": "string",
          "name": "tokenURI",
          "type": "string"
        }
      ],
      "name": "CreatedSVG",
      "type": "event"
    },
    {
      "anonymous": false,
      "inputs": [
        {
          "indexed": true,
          "internalType": "uint256",
          "name": "tokenId",
          "type": "uint256"
        },
        {
          "indexed": false,
          "internalType": "uint256",
          "name": "randomNumber",
          "type": "uint256"
        }
      ],
      "name": "CreatedUnfinishedSVG",
      "type": "event"
    },
    {
      "anonymous": false,
      "inputs": [
        {
          "indexed": true,
          "internalType": "address",
          "name": "previousOwner",
          "type": "address"
        },
        {
          "indexed": true,
          "internalType": "address",
          "name": "newOwner",
          "type": "address"
        }
      ],
      "name": "OwnershipTransferred",
      "type": "event"
    },
    {
      "anonymous": false,
      "inputs": [
        {
          "indexed": true,
          "internalType": "bytes32",
          "name": "requestId",
          "type": "bytes32"
        },
        {
          "indexed": true,
          "internalType": "uint256",
          "name": "tokenId",
          "type": "uint256"
        }
      ],
      "name": "RequestedRandomNumber",
      "type": "event"
    },
    {
      "anonymous": false,
      "inputs": [
        {
          "indexed": true,
          "internalType": "address",
          "name": "from",
          "type": "address"
        },
        {
          "indexed": true,
          "internalType": "address",
          "name": "to",
          "type": "address"
        },
        {
          "indexed": true,
          "internalType": "uint256",
          "name": "tokenId",
          "type": "uint256"
        }
      ],
      "name": "Transfer",
      "type": "event"
    },
    {
      "inputs": [
        {
          "internalType": "uint256",
          "name": "",
          "type": "uint256"
        },
        {
          "internalType": "uint256",
          "name": "",
          "type": "uint256"
        },
        {
          "internalType": "uint256",
          "name": "",
          "type": "uint256"
        }
      ],
      "name": "alreadyMinted",
      "outputs": [
        {
          "internalType": "bool",
          "name": "",
          "type": "bool"
        }
      ],
      "stateMutability": "view",
      "type": "function"
    },
    {
      "inputs": [
        {
          "internalType": "address",
          "name": "to",
          "type": "address"
        },
        {
          "internalType": "uint256",
          "name": "tokenId",
          "type": "uint256"
        }
      ],
      "name": "approve",
      "outputs": [],
      "stateMutability": "nonpayable",
      "type": "function"
    },
    {
      "inputs": [
        {
          "internalType": "address",
          "name": "owner",
          "type": "address"
        }
      ],
      "name": "balanceOf",
      "outputs": [
        {
          "internalType": "uint256",
          "name": "",
          "type": "uint256"
        }
      ],
      "stateMutability": "view",
      "type": "function"
    },
    {
      "inputs": [
        {
          "internalType": "uint256",
          "name": "",
          "type": "uint256"
        },
        {
          "internalType": "uint256",
          "name": "",
          "type": "uint256"
        }
      ],
      "name": "bodies",
      "outputs": [
        {
          "internalType": "string",
          "name": "",
          "type": "string"
        }
      ],
      "stateMutability": "view",
      "type": "function"
    },
    {
      "inputs": [],
      "name": "create",
      "outputs": [
        {
          "internalType": "bytes32",
          "name": "requestId",
          "type": "bytes32"
        }
      ],
      "stateMutability": "nonpayable",
      "type": "function"
    },
    {
      "inputs": [
        {
          "internalType": "uint256",
          "name": "tokenId",
          "type": "uint256"
        }
      ],
      "name": "finishMint",
      "outputs": [],
      "stateMutability": "nonpayable",
      "type": "function"
    },
    {
      "inputs": [
        {
          "internalType": "string",
          "name": "imageURI",
          "type": "string"
        },
        {
          "internalType": "uint256",
          "name": "tokenId",
          "type": "uint256"
        }
      ],
      "name": "formatTokenURI",
      "outputs": [
        {
          "internalType": "string",
          "name": "",
          "type": "string"
        }
      ],
      "stateMutability": "pure",
      "type": "function"
    },
    {
      "inputs": [
        {
          "internalType": "uint256",
          "name": "tokenId",
          "type": "uint256"
        }
      ],
      "name": "getApproved",
      "outputs": [
        {
          "internalType": "address",
          "name": "",
          "type": "address"
        }
      ],
      "stateMutability": "view",
      "type": "function"
    },
    {
      "inputs": [
        {
          "internalType": "uint256",
          "name": "",
          "type": "uint256"
        },
        {
          "internalType": "uint256",
          "name": "",
          "type": "uint256"
        }
      ],
      "name": "hairs",
      "outputs": [
        {
          "internalType": "string",
          "name": "",
          "type": "string"
        }
      ],
      "stateMutability": "view",
      "type": "function"
    },
    {
      "inputs": [
        {
          "internalType": "address",
          "name": "owner",
          "type": "address"
        },
        {
          "internalType": "address",
          "name": "operator",
          "type": "address"
        }
      ],
      "name": "isApprovedForAll",
      "outputs": [
        {
          "internalType": "bool",
          "name": "",
          "type": "bool"
        }
      ],
      "stateMutability": "view",
      "type": "function"
    },
    {
      "inputs": [
        {
          "internalType": "uint256",
          "name": "",
          "type": "uint256"
        },
        {
          "internalType": "uint256",
          "name": "",
          "type": "uint256"
        }
      ],
      "name": "legs",
      "outputs": [
        {
          "internalType": "string",
          "name": "",
          "type": "string"
        }
      ],
      "stateMutability": "view",
      "type": "function"
    },
    {
      "inputs": [],
      "name": "maxBodies",
      "outputs": [
        {
          "internalType": "uint256",
          "name": "",
          "type": "uint256"
        }
      ],
      "stateMutability": "view",
      "type": "function"
    },
    {
      "inputs": [],
      "name": "maxHairs",
      "outputs": [
        {
          "internalType": "uint256",
          "name": "",
          "type": "uint256"
        }
      ],
      "stateMutability": "view",
      "type": "function"
    },
    {
      "inputs": [],
      "name": "maxLegs",
      "outputs": [
        {
          "internalType": "uint256",
          "name": "",
          "type": "uint256"
        }
      ],
      "stateMutability": "view",
      "type": "function"
    },
    {
      "inputs": [],
      "name": "maxTokens",
      "outputs": [
        {
          "internalType": "uint256",
          "name": "",
          "type": "uint256"
        }
      ],
      "stateMutability": "view",
      "type": "function"
    },
    {
      "inputs": [],
      "name": "name",
      "outputs": [
        {
          "internalType": "string",
          "name": "",
          "type": "string"
        }
      ],
      "stateMutability": "view",
      "type": "function"
    },
    {
      "inputs": [],
      "name": "owner",
      "outputs": [
        {
          "internalType": "address",
          "name": "",
          "type": "address"
        }
      ],
      "stateMutability": "view",
      "type": "function"
    },
    {
      "inputs": [
        {
          "internalType": "uint256",
          "name": "tokenId",
          "type": "uint256"
        }
      ],
      "name": "ownerOf",
      "outputs": [
        {
          "internalType": "address",
          "name": "",
          "type": "address"
        }
      ],
      "stateMutability": "view",
      "type": "function"
    },
    {
      "inputs": [
        {
          "internalType": "bytes32",
          "name": "requestId",
          "type": "bytes32"
        },
        {
          "internalType": "uint256",
          "name": "randomness",
          "type": "uint256"
        }
      ],
      "name": "rawFulfillRandomness",
      "outputs": [],
      "stateMutability": "nonpayable",
      "type": "function"
    },
    {
      "inputs": [],
      "name": "renounceOwnership",
      "outputs": [],
      "stateMutability": "nonpayable",
      "type": "function"
    },
    {
      "inputs": [
        {
          "internalType": "bytes32",
          "name": "",
          "type": "bytes32"
        }
      ],
      "name": "requestIdToSender",
      "outputs": [
        {
          "internalType": "address",
          "name": "",
          "type": "address"
        }
      ],
      "stateMutability": "view",
      "type": "function"
    },
    {
      "inputs": [
        {
          "internalType": "bytes32",
          "name": "",
          "type": "bytes32"
        }
      ],
      "name": "requestIdToTokenId",
      "outputs": [
        {
          "internalType": "uint256",
          "name": "",
          "type": "uint256"
        }
      ],
      "stateMutability": "view",
      "type": "function"
    },
    {
      "inputs": [
        {
          "internalType": "address",
          "name": "from",
          "type": "address"
        },
        {
          "internalType": "address",
          "name": "to",
          "type": "address"
        },
        {
          "internalType": "uint256",
          "name": "tokenId",
          "type": "uint256"
        }
      ],
      "name": "safeTransferFrom",
      "outputs": [],
      "stateMutability": "nonpayable",
      "type": "function"
    },
    {
      "inputs": [
        {
          "internalType": "address",
          "name": "from",
          "type": "address"
        },
        {
          "internalType": "address",
          "name": "to",
          "type": "address"
        },
        {
          "internalType": "uint256",
          "name": "tokenId",
          "type": "uint256"
        },
        {
          "internalType": "bytes",
          "name": "_data",
          "type": "bytes"
        }
      ],
      "name": "safeTransferFrom",
      "outputs": [],
      "stateMutability": "nonpayable",
      "type": "function"
    },
    {
      "inputs": [
        {
          "internalType": "address",
          "name": "operator",
          "type": "address"
        },
        {
          "internalType": "bool",
          "name": "approved",
          "type": "bool"
        }
      ],
      "name": "setApprovalForAll",
      "outputs": [],
      "stateMutability": "nonpayable",
      "type": "function"
    },
    {
      "inputs": [
        {
          "internalType": "bytes4",
          "name": "interfaceId",
          "type": "bytes4"
        }
      ],
      "name": "supportsInterface",
      "outputs": [
        {
          "internalType": "bool",
          "name": "",
          "type": "bool"
        }
      ],
      "stateMutability": "view",
      "type": "function"
    },
    {
      "inputs": [
        {
          "internalType": "string",
          "name": "svg",
          "type": "string"
        }
      ],
      "name": "svgToImageURI",
      "outputs": [
        {
          "internalType": "string",
          "name": "",
          "type": "string"
        }
      ],
      "stateMutability": "pure",
      "type": "function"
    },
    {
      "inputs": [],
      "name": "symbol",
      "outputs": [
        {
          "internalType": "string",
          "name": "",
          "type": "string"
        }
      ],
      "stateMutability": "view",
      "type": "function"
    },
    {
      "inputs": [],
      "name": "tokenCounter",
      "outputs": [
        {
          "internalType": "uint256",
          "name": "",
          "type": "uint256"
        }
      ],
      "stateMutability": "view",
      "type": "function"
    },
    {
      "inputs": [
        {
          "internalType": "uint256",
          "name": "",
          "type": "uint256"
        }
      ],
      "name": "tokenIdToRandomNumber",
      "outputs": [
        {
          "internalType": "uint256",
          "name": "",
          "type": "uint256"
        }
      ],
      "stateMutability": "view",
      "type": "function"
    },
    {
      "inputs": [
        {
          "internalType": "uint256",
          "name": "tokenId",
          "type": "uint256"
        }
      ],
      "name": "tokenURI",
      "outputs": [
        {
          "internalType": "string",
          "name": "",
          "type": "string"
        }
      ],
      "stateMutability": "view",
      "type": "function"
    },
    {
      "inputs": [
        {
          "internalType": "address",
          "name": "from",
          "type": "address"
        },
        {
          "internalType": "address",
          "name": "to",
          "type": "address"
        },
        {
          "internalType": "uint256",
          "name": "tokenId",
          "type": "uint256"
        }
      ],
      "name": "transferFrom",
      "outputs": [],
      "stateMutability": "nonpayable",
      "type": "function"
    },
    {
      "inputs": [
        {
          "internalType": "address",
          "name": "newOwner",
          "type": "address"
        }
      ],
      "name": "transferOwnership",
      "outputs": [],
      "stateMutability": "nonpayable",
      "type": "function"
    },
    {
      "inputs": [],
      "name": "withdraw",
      "outputs": [],
      "stateMutability": "payable",
      "type": "function"
    }
  ],
  "transactionHash": "0x46be62a375f5c7611879b17895d18b88cf9af159e463473ad4cb5c03367516be",
  "args": [
    "0xb3dCcb4Cf7a26f6cf6B120Cf5A73875B7BBc655B",
    "0x01be23585060835e02b77ef475b0cc51aa1e0709",
    "0x2ed0feb3e7fd2022120aa84fab1945545a9f2ffc9076fd6156fa96eaff4c1311",
    "100000000000000000",
    [
      [
        "d=\"m78 28-13-1-2-1-1-3a42 42 0 0 0-4-11c-3-5-7-8-12-11-5-2-12-3-18-2-6 0-12 3-18 5C4 5-2 6-8 5s-10-4-16-7c-5-3-11-5-17-5-6 1-11 3-16 6s-8 7-10 12c-3 5-3 11 1 16 5 7 15 9 24 9l14-3 17-8 8-4c3-1 5-1 8 1l8 4 9 2 18-3c5-1 10-2 15-1 2 0 5 1 6 3-13 2-17 18-14 29 2 6 13 13 18 10 3-2 1-5 0-6-2-4-3-8 1-10 3-2 7 2 7 2 1 0 9-4 14-11 6 1 7-3 5-6-1-3-9-7-14-7Z\" fill=\"#191847\""
      ],
      [
        "d=\"m70 54-3-1c-3 0-5 2-5 5s1 5 3 6l-3 3c-4 0-10-11-10-20 0-10 8-18 22-18 13 0 18 5 18 10-6 2-15 2-29 2v1l12 1 2 6c-3 0-5 2-7 5Z\" fill=\"#191847\""
      ],
      [
        "d=\"m83 28-10-1 1-8-3-8-2-4-3-1h-7l-4-2a10 10 0 0 0-8 3l-1 1v1h-1l-5 5-1 6c0 3 2 9 5 12 2 2 4 4 7 4l-4 8a36 36 0 0 0-1 17l4 7 3 1 4 1c2 1 5 1 6-1l2-2v-1l-1-1c-2-1-3-3-3-6 0-2 1-5 3-6 3-1 6 0 8 2 1-4 3-8 7-9l12-4 3-2v-3c-2-2-8-8-11-9Z\" fill=\"#191847\""
      ],
      [
        "d=\"m103 25-4-4h-2v-1l-2-3-5-2h-3l-2 1h-1c-2-2-4-2-6-2-3 0-5 0-7 2a13 13 0 0 0-2 2l-4-1-1 1h-2l-4-1-4 2-1 1-1 1-2-1h-2l-4 3a10 10 0 0 0-1 3h-1l-3 2-2 4a8 8 0 0 0-2 1c-2 1-4 3-4 5a10 10 0 0 0 0 7v1l-1 2v4a6 6 0 0 0 1 3h1l-1 2a17 17 0 0 0-1 3l1 4a4 4 0 0 0 2 2v6l3 3h8l1-1c2 2 4 2 6 1 3-1 5-2 6-4 1 1 4 1 5-1l1-2v-2l1-2v-2h-2l-2-1-1-4c-1-3-1-6 2-7l7-1 3 5h2l1-2 2-4 1-4 2-2 4-2 3-2 1-1 1 1 3 3 2 4 2 3h4l2-1v-3l-1-1-1-1 1-2 1-3v-2l-2-1 2-2c2-2 2-5 2-7Z\" fill=\"#191847\""
      ],
      [
        "d=\"M71 64c-3 6-8 10-12 10-7 0-13-10-13-22v-1c-8 6-15 17-26 17-14 0-20-30 0-30 15 0 22 2 28 5l5-8 2-2 2-1a50 50 0 0 1 18-2 10 10 0 1 1 11 10l-12 2 1 5-1 6-3-2c-4 0-6 3-6 6 0 4 2 7 6 7Z\" fill=\"#191847\""
      ],
      [
        "d=\"m45 39-2-3-1-3 1-7 5-2h4l3 2c0-2 0-5 2-7 1-2 3-3 5-3 2-1 4 0 6 1l2 1h2l1-1c2-2 5-2 7-2l3 3 2 2h1l2-1 2-1c2-1 3 0 4 1v2a155 155 0 0 1-1 5v1h2l2 1 1 1v2h5v2l-2 3-4 4c2 0 2 3 0 4l-2 1h-5c-2-1-5-2-6-4h-3l-4-1-1 5-3 1H62l11 3v2l-3 4c-2-2-5-4-7-3-3 1-6 5-4 8l5 3-2 5-2 2h-1l-1 1h-5c-2-1-1-4 0-5-2-1-5-1-4-4-4 0-13-6-8-11-3-1-5-5-3-8 1-3 4-4 7-4\" fill=\"#191847\""
      ],
      [
        "d=\"M82 42c-4 2-6 5-9 9a6 6 0 0 0-8 6l2 4-5 6c-7-4-12-15-5-26 5-23 36-9 42-13 2 8-3 15-17 14Z\" fill=\"#191847\""
      ],
      [
        "d=\"M60 70c-3-13-11-22-10-28 1-4 3-7 7-8 2-8 8-11 19-10 16 2 26 9 22 23-4 0-9-1-15 1-2 1-4 3-5 7h-3c-3-4-5-6-8-5s-4 4-2 9l-1 11h-4Z\" fill=\"#191847\""
      ],
      [
        "d=\"M75 48c1 13 3 20 7 20 6 0 11-4 14-4 2 0 1 2 0 4-1 1-6 3-6 5s4 1 4 2c0 2 1 6-3 6s-15-1-17-7c-1-4-2-11-2-23h-1a6 6 0 0 0-4 10l-5 6c-7-4-12-15-5-27 2-5 6-8 11-10h11c7 0 13 2 15 3 0 7-2 9-12 9-3 1-5 3-7 6Z\" fill=\"#191847\""
      ],
      [
        "d=\"M67 31c12-4 28 0 26 10-2 7-9 10-16 13-1-2-3-3-6-3s-6 3-6 6l1 3c-2 2-4 5-4 8-4 0-10-11-8-22h-2a15 15 0 1 1 15-15Z\" fill=\"#191847\""
      ],
      [
        "d=\"m94 45-1-4-2-5-7-7c-5-4-11-6-16-5-3 0-6 1-8 3l-7 4c-3 0-6-2-9-4-2-2-5-3-9-4-5-1-10 1-14 6-4 4-7 11-4 17 0 2 1 3 2 3l2 3c1 1 0 3-1 4l-1 5 4 8c2 2 5 3 7 3l6 1 2-1 2 1c3 2 7 3 11 2l9-3c3-2 3-5 2-9 1 0 3 1 2-1l-2-1-2-1c-3-3 0-8 2-9 5-1 5 5 8 6 2 1 4 0 5-1l4-6 2-6c1 0 2-3 1-4l9 2 2 3 1 1v-1\" fill=\"#191847\""
      ]
    ],
    [
      [
        "d=\"m134 0 49 124 33 105h13L179 0z\" fill=\"#997659\"",
        "d=\"M124 0c0 44-8 102-9 105l-84 69 9 10c65-38 99-60 102-65 4-7 19-77 31-119h-49Z\" fill=\"#B28B67\"",
        "d=\"m29 171-6 3-5 6 36 43c5-2 6-4 4-7l-4-7-8-27a1 1 0 0 0-1-1l-4 2-6-5-3-5a2 2 0 0 0-3-2Zm182 53-2 7 1 8h56c2-5 1-7-2-8l-8-1-26-12a1 1 0 0 0-2 1l-1 4-7 2-7-2a2 2 0 0 0-2 1Z\" fill=\"#E4E4E4\"",
        "d=\"m167 218 62-6L183 0h-55z\" fill=\"#69A1AC\"",
        "d=\"m43 159 41 48c43-47 68-77 75-91 7-15 13-53 19-116h-63l-6 87-66 72Z\" fill=\"#89C5CC\""
      ],
      [
        "d=\"m130 0 74 124 56 105h12L179 0z\" fill=\"#997659\"",
        "d=\"m253 224-2 7 1 8h56c2-5 1-7-2-8l-8-1-26-12a1 1 0 0 0-2 1l-1 4-7 2-7-2a2 2 0 0 0-2 1Z\" fill=\"#E4E4E4\"",
        "d=\"m245 212 23-7A1754 1754 0 0 0 183 0h-65a1028 1028 0 0 0 127 212Z\" fill=\"#DB2721\"",
        "d=\"M125 0c-7 44-20 99-22 101-1 1-31 12-92 31l3 11c72-11 110-19 114-25 6-8 35-76 46-118h-49Z\" fill=\"#B28B67\"",
        "d=\"m33 123 4 17c54 5 87 1 99-10 12-12 26-55 42-130h-63c-9 61-15 93-16 96-1 2-23 11-66 27Z\" fill=\"#FF4133\"",
        "d=\"m14 128-7-1-7 2 10 56c5 0 7-1 7-4v-8l7-28a1 1 0 0 0-1-1l-5-1-3-7 1-6a2 2 0 0 0-2-2Z\" fill=\"#E4E4E4\""
      ],
      [
        "d=\"m128 0 38 123 18 105h14L179 0z\" fill=\"#997659\"",
        "d=\"M115 0c2 68-1 102-1 109-1 6-9 45-27 121l15-6c29-69 39-104 42-113 4-10 13-46 27-111h-56Z\" fill=\"#B28B67\"",
        "d=\"m87 224-2 7 1 8h56c2-5 1-7-2-8l-8-1-26-12a1 1 0 0 0-2 1l-1 4-7 2-7-2a2 2 0 0 0-2 1Zm94 0-2 7 1 8h56c2-5 1-7-2-8l-8-1-26-12a1 1 0 0 0-2 1l-1 4-7 2-7-2a2 2 0 0 0-2 1Z\" fill=\"#E4E4E4\"",
        "d=\"m123 0 16 63h49l-7-63z\" fill=\"#69A1AC\"",
        "d=\"M114 0c-5 16-6 37-3 63h50l14-63h-61Z\" fill=\"#89C5CC\""
      ],
      [
        "d=\"m128 0 48 127 34 94h19L183 0z\" fill=\"#1F28CF\"",
        "d=\"m116 0-1 105c-1 2-26 23-76 62l10 17c59-38 90-60 93-65 4-7 27-77 39-119h-65Z\" fill=\"#2B44FF\"",
        "d=\"m22 178 16-12 14 16c1 12 5 26 12 41l-3 2-25-29-6-11-2 1-6-8Zm186 61 1-21h21c10 7 23 13 39 17v4h-38l-13-2v2h-10Z\" fill=\"#191847\""
      ],
      [
        "d=\"m128 0 36 127 27 94h19L182 0z\" fill=\"#191847\"",
        "d=\"M118 0c-1 66-3 101-4 107s-14 44-40 114h20l55-114c3-9 15-44 33-107h-64Z\" fill=\"#2F3676\"",
        "d=\"m72 239 1-21h21c10 7 23 13 39 17v4H95l-13-2v2H72Zm116 0 1-21h21c10 7 23 13 39 17v4h-38l-13-2v2h-10Z\" fill=\"#191847\""
      ],
      [
        "d=\"M97 98c24 7 45 10 62 10 18 0 34-5 49-15-23-7-43-11-58-11s-33 6-53 16Z\" fill=\"#1F28CF\"",
        "d=\"M180 118v-1c-4-9-55-100-60-117h58c4 13 21 93 24 108 7 26 23 107 26 113 2 5-10 12-14 4a620 620 0 0 1-34-107Z\" fill=\"#997659\"",
        "d=\"M133 129c-24 6-109 17-115 18-6 2-12-10-4-13a620 620 0 0 1 105-26c-1-28-5-94-2-108h51l-26 124c-2 3-5 5-9 5Z\" fill=\"#B28B67\"",
        "d=\"m14 131-7-1-7 2 10 56c5 0 7-1 7-4v-8l7-28a1 1 0 0 0-1-1l-5-1-3-7 1-6a2 2 0 0 0-2-2Zm197 93-2 7 1 8h56c2-5 1-7-2-8l-8-1-26-12a1 1 0 0 0-2 1l-1 4-7 2-7-2a2 2 0 0 0-2 1Z\" fill=\"#E4E4E4\"",
        "d=\"M117 0c23-6 44-6 64 0 7 32 24 45 27 94-34 16-76-12-111 4-10-23 4-79 20-98Z\" fill=\"#2B44FF\""
      ],
      [
        "d=\"M117 0c1 25 118 97 118 99 1 1-11 30-36 86l10 4c38-60 55-93 54-99-3-9-33-39-91-90h-55Z\" fill=\"#B28B67\"",
        "d=\"m202 172 16 6c35-39 49-72 47-88-2-12-32-41-90-90h-60c2 57 110 99 112 102 1 2-13 26-25 70Z\" fill=\"#2F3676\"",
        "d=\"m195 183-3 6-2 7 53 20c3-4 3-7 0-9l-7-3-21-20a1 1 0 0 0-1 0l-3 3h-8l-5-4a2 2 0 0 0-3 0Z\" fill=\"#E4E4E4\"",
        "d=\"M130 0 78 124 27 229h12L171 0z\" fill=\"#997659\"",
        "d=\"m27 224-2 7 1 8h56c2-5 1-7-2-8l-8-1-26-12a1 1 0 0 0-2 1l-1 4-7 2-7-2a2 2 0 0 0-2 1Z\" fill=\"#E4E4E4\"",
        "d=\"m32 207 27 5C79 182 166 58 175 0h-59C84 42 52 177 32 207Z\" fill=\"#5C63AB\""
      ],
      [
        "d=\"m128 0 37 126 17 95h17L182 0z\" fill=\"#997659\"",
        "d=\"M112 0c2 66 1 101 1 107-1 6-4 46-26 116h18c29-67 39-107 42-116 4-9 14-44 28-107h-63Z\" fill=\"#B28B67\"",
        "d=\"M127 0c10 43 26 113 50 208h25c2-98-6-162-20-208h-55Z\" fill=\"#69A1AC\"",
        "d=\"M111 0c3 66-4 130-24 209h27c30-66 51-130 65-209h-68Z\" fill=\"#89C5CC\"",
        "d=\"m84 236 1-16c6 2 13 1 22-2 9 7 21 11 35 14a2 2 0 0 1 2 2l-1 5H86l-2-3Zm94 0 1-16c6 2 13 1 22-2 9 7 21 11 35 14a2 2 0 0 1 2 2l-1 5h-57l-2-3Z\" fill=\"#191847\""
      ]
    ],
    [
      [
        "d=\"m191 92 32 24c8 2 16 5 21 8 2 2 3 4-2 4-6-1-12-1-13 1s3 4 1 7c-1 2-6-3-15-13l-31-13 7-18ZM68 93h21l-21 66c-2 6 3 15 5 20-7 3-6-9-15-5-8 4-14 11-23 5-1-1-2-3 1-5 7-5 18-14 19-17 2-4 7-25 13-64Z\" fill=\"#B28B67\"",
        "d=\"m128 5 8-1c32 28 46 81 85 109l-10 12c-68-9-85-74-83-120Z\" fill=\"#E87613\"",
        "d=\"M90 114h77c3 0 2-5 2-8-6-29-29-61-29-103l-22-3c-18 29-24 66-28 114Z\" fill=\"#DDE3E9\"",
        "d=\"M91 29c-4-1-6-3-8-7-8-14-5-22 3-25 9-2 17 3 31 3h2l6 1c20 67 26 112 17 134H82l-11 21H55c-2-50 10-92 36-127Z\" fill=\"#FF9B21\"",
        "d=\"M95 100c2 16 5 28 9 35H82l13-35Z\""
      ],
      [
        "d=\"m198 78 36-16c7-7 13-11 19-15 1 0 4 0 1 4-3 5-6 10-5 12 1 1 5 0 7 2 1 2-6 4-19 7l-27 20-12-14ZM52 82l20 4-33 61c-4 5 0 15 1 20-7 2-5-9-14-7-8 2-15 7-23 0-1-1-2-4 1-5 9-4 21-10 23-13s11-23 25-60Z\" fill=\"#B28B67\"",
        "d=\"m128 5 8-1c19 18 27 62 39 68 12 5 29 0 49-7l6 14c-18 19-57 36-72 26-25-15-31-69-30-100Z\" fill=\"#DB2721\"",
        "d=\"M90 114h77c3 0 2-5 2-8-6-29-29-61-29-103l-22-3c-18 29-24 66-28 114Z\" fill=\"#DDE3E9\"",
        "d=\"M82 84c-15 28-28 49-39 61l-16-3C37 78 67 31 117 0h8c20 68 26 113 17 135H73c1-16 5-34 9-51Z\" fill=\"#FF4133\""
      ],
      [
        "d=\"m194 89 28 28c9 3 15 7 21 11 1 2 2 5-3 3-6-1-12-2-13 0s2 4 0 7c-1 1-6-4-13-15l-29-18 9-16ZM68 93h21l-21 66c-2 6 3 15 5 20-7 3-6-9-15-5-8 4-14 11-23 5-1-1-2-3 1-5 7-5 18-14 19-17 2-4 7-25 13-64Z\" fill=\"#B28B67\"",
        "d=\"m128 5 8-1c15 37 41 71 78 101l-28 34c-37-43-60-88-58-134Z\" fill=\"#191847\"",
        "d=\"M90 114h77c-18-43-27-80-27-111l-23-3C99 29 94 66 90 114Z\" fill=\"#DDE3E9\"",
        "d=\"M117 0h9l6 16 10 119H92l1 12H55C61 84 81 35 117 0Z\" fill=\"#2F3676\"",
        "d=\"M95 82c2 26 5 43 11 53H92c-1-18 0-36 3-53Z\"",
        "d=\"m103 104 25-12v12z\" fill=\"#FFF\""
      ],
      [
        "d=\"m190 89 31 25 21 10c1 2 2 4-3 4-6-1-12-2-13 0s3 4 1 7c-1 2-6-3-14-14l-31-15 8-17ZM54 78l17 2-30 66c-3 5 0 14 2 19-7 2-5-9-14-6-8 2-15 8-24 1-1 0-1-3 2-5 8-4 20-11 21-14 3-3 11-25 26-63Z\" fill=\"#B28B67\"",
        "d=\"m128 5 11-3c15 37 37 73 74 103l-9 16c-33-19-64-34-76-63-5-10-1-41 0-53Z\" fill=\"#C5CFD6\"",
        "d=\"M90 110c31 3 56 3 74 0 2 0 3-4 2-7-16-39-27-74-27-101h-16c-20 29-29 61-33 108Z\" fill=\"#323337\"",
        "d=\"M118 0h8c2 11 8 165 27 216H51c3-47 20-102 38-148-16 14-30 38-41 72l-19-5A209 209 0 0 1 117 0l1-1v1Z\" fill=\"#DDE3E9\""
      ],
      [
        "d=\"m192 65 39-5 22-9c2 0 5 1 1 4-5 4-9 8-8 10 0 2 4 1 5 4 1 2-6 3-20 1l-32 13-7-18ZM68 74l22 1-38 84c-2 6 3 15 5 20-7 3-6-9-15-5-8 4-14 11-23 5-1-1-2-3 1-5 7-5 18-14 19-17l29-83Z\" fill=\"#997659\"",
        "d=\"m128 5 17 1c4 38 27 62 79 54l7 49c-48 7-91-13-99-65-3-13-4-27-4-39Z\" fill=\"#AFB9C5\"",
        "d=\"m119 0 26 6c0 45 15 73 22 106H97l-2 35H42C54 84 79 35 118 0h1Z\" fill=\"#C5CFD6\"",
        "d=\"M108 48c-2 28-1 49 3 64H97c2-22 5-44 11-64Z\""
      ],
      [
        "d=\"m159 43 34-19 17-16c2-1 5-1 2 4-2 5-5 10-4 11 2 2 5 0 7 2 1 2-5 5-18 8l-26 23-12-13Zm54 16 15-9c2-8 5-12 8-12 2-1-2 9 3 8 4 0 14-8 16-7 3 3 1 10-2 13-6 7-10 10-21 13-5 1-12 4-18 9l-1-15Z\" fill=\"#997659\"",
        "d=\"M142 38c12 0 28-2 45-13l7 15c-12 12-29 22-43 21-12 0-18-14-9-23Z\" fill=\"#2026A2\"",
        "d=\"M158 63c13 3 35-1 65-12 8 16 11 27 10 34-26 13-48 19-66 20 0 11-1 21-6 31-9 19-62 1-81 5-11-37 11-52 11-76 0-25 21-65 24-65h28c1 20 9 41 15 63Z\" fill=\"#1F28CF\""
      ],
      [
        "d=\"m191 2 38-11c7-6 14-10 20-12 2 0 5 0 1 4-3 4-7 9-6 11s5 0 6 3c1 2-6 3-19 4l-30 17-10-16Zm-3 67 32 24c9 2 16 5 22 8 1 2 3 4-3 4-6-1-12-1-12 1-1 2 2 4 1 7-1 2-6-3-15-13l-32-13 7-18Z\" fill=\"#B28B67\"",
        "d=\"M139 6c17 32 42 57 78 83l-13 16c-41-15-62-25-73-55-3-8-4-32-6-45l14 1Z\" fill=\"#2026A2\"",
        "d=\"M90 114h77c-17-53-26-90-27-110l-2-2c-6 2-13 1-20-2-18 29-24 66-28 114Z\" fill=\"#F2F2F2\"",
        "d=\"M125 0c22 0 58 4 99-9l4 20c-31 20-63 36-91 34 13 51 12 94-15 94H81C75 95 92 34 108 3c0-1 2-3 5-3h12Z\" fill=\"#1F28CF\""
      ],
      [
        "d=\"m111 2 1-2h1l28 4c0 16 13 31 21 43 12 20 34 42 20 71-13 27-46 31-99 13 0-14 11-28 12-46 0-16 3-66 16-83Z\" fill=\"#C1DEE2\"",
        "d=\"m146 111 4-20c14 17 23 26 25 26 5 0 8-3 9-2 1 4-3 15-11 17-4 1-10-7-13-10l-14-11Zm26-52c3 0 6 2 8 5s4 19 1 19c-4 0-19-6-19-10s10-6 10-9-4-5 0-5Z\" fill=\"#B28B67\"",
        "d=\"m138 125-1 3C94 97 94 60 107 19c-10 41-6 75 31 106Z\""
      ],
      [
        "d=\"m196 85 32 24c8 2 16 5 21 8 2 2 4 4-2 4-6-1-12-1-13 1 0 2 3 4 1 7-1 2-6-3-15-13l-31-13 7-18ZM52 75l17 4-33 64c-3 5 0 15 2 20-8 1-5-10-14-7-9 2-16 8-24 0 0 0-1-3 2-5 8-3 20-10 22-13 3-3 12-24 28-63Z\" fill=\"#B28B67\"",
        "d=\"M203 88c4-1 9 0 14 2a4 4 0 0 1 0 8l2 2-8 17c-33-17-65-30-80-58-5-9-3-41-3-53l10-4c15 31 35 60 65 86Z\" fill=\"#69A1AC\"",
        "d=\"M90 114c31 3 56 3 74 0 2-1 2-10 1-13-16-41-26-71-26-99h-16c-20 30-29 63-33 112Z\" fill=\"#191847\"",
        "d=\"m84 119-1-4v-3c1-2 2-4 4-4l1-4c2-13-1-25-1-37-16 14-31 37-43 71l-19-6 2-8c-2-1-5-7-3-7l6-3C47 62 76 24 115 0h11c-3 44 43 141 27 224-29 6-72-14-113 2 1-33 32-72 44-107Z\" fill=\"#89C5CC\"",
        "d=\"m119 1-5 16 10 12-9 9 23 39-28-39 9-9-9-11z\"",
        "d=\"M131 92a4 4 0 1 1 0-8 4 4 0 0 1 0 8Zm5 23a4 4 0 1 1 0-8 4 4 0 0 1 0 8Zm1 23a4 4 0 1 1 0-8 4 4 0 0 1 0 8Z\""
      ],
      [
        "d=\"m199 92 29 28c8 4 15 7 20 12 1 1 3 4-3 3-6-2-12-3-13-1s2 5 1 7c-2 2-6-3-13-15l-30-17 9-17ZM61 67l22 1-27 84c-2 6 3 15 5 20-7 3-6-9-15-5-8 4-14 11-23 5-1-1-2-3 1-5 7-5 18-14 19-17 2-4 8-32 18-83Z\" fill=\"#B28B67\"",
        "d=\"m128 5 8-1c14 48 84 81 88 99 2 6-3 10 0 12l-12 8c-2-2-6 2-14-1-9-3-70-60-70-117Z\" fill=\"#DB2721\"",
        "d=\"M142 12c-1 63 36 80 28 105-7 21-72 44-83 23-5-8-7-18-7-29l-7 22c-3 10-14 12-14 16l-14-4c1-6-6-8-4-21 8-55 30-95 67-120v-5c0-2 2-4 4-4l27 2c2 0 4 2 4 4l-1 11Z\" fill=\"#FF4133\""
      ]
    ]
  ],
  "numDeployments": 4,
  "solcInputHash": "962414b565b971f1bdc613778bcf9bad",
  "bytecode": "0x60e06040523480156200001157600080fd5b506040516200616e3803806200616e833981810160405281019062000037919062000709565b82828289896040518060400160405280600881526020017f48756d6161616e730000000000000000000000000000000000000000000000008152506040518060400160405280600381526020017f484d4e00000000000000000000000000000000000000000000000000000000008152508160009080519060200190620000c0929190620002f7565b508060019080519060200190620000d9929190620002f7565b5050508173ffffffffffffffffffffffffffffffffffffffff1660a08173ffffffffffffffffffffffffffffffffffffffff1660601b815250508073ffffffffffffffffffffffffffffffffffffffff1660808173ffffffffffffffffffffffffffffffffffffffff1660601b81525050505082600890805190602001906200016492919062000388565b5080600a90805190602001906200017d92919062000388565b5081600990805190602001906200019692919062000388565b50600880549050600c81905550600980549050600d81905550600a80549050600e81905550505050620001de620001d26200022960201b60201c565b6200023160201b60201c565b60006010819055508460148190555083601581905550600e54600d54600c54620002099190620008be565b620002159190620008be565b60c081815250505050505050505062000af5565b600033905090565b6000600f60009054906101000a900473ffffffffffffffffffffffffffffffffffffffff16905081600f60006101000a81548173ffffffffffffffffffffffffffffffffffffffff021916908373ffffffffffffffffffffffffffffffffffffffff1602179055508173ffffffffffffffffffffffffffffffffffffffff168173ffffffffffffffffffffffffffffffffffffffff167f8be0079c531659141344cd1fd0a4f28419497f9722a3daafe3b4186f6b6457e060405160405180910390a35050565b82805462000305906200099d565b90600052602060002090601f01602090048101928262000329576000855562000375565b82601f106200034457805160ff191683800117855562000375565b8280016001018555821562000375579182015b828111156200037457825182559160200191906001019062000357565b5b509050620003849190620003ef565b5090565b828054828255906000526020600020908101928215620003dc579160200282015b82811115620003db578251829080519060200190620003ca9291906200040e565b5091602001919060010190620003a9565b5b509050620003eb919062000475565b5090565b5b808211156200040a576000816000905550600101620003f0565b5090565b82805482825590600052602060002090810192821562000462579160200282015b828111156200046157825182908051906020019062000450929190620002f7565b50916020019190600101906200042f565b5b5090506200047191906200049d565b5090565b5b808211156200049957600081816200048f9190620004c5565b5060010162000476565b5090565b5b80821115620004c15760008181620004b79190620004e8565b506001016200049e565b5090565b5080546000825590600052602060002090810190620004e591906200049d565b50565b508054620004f6906200099d565b6000825580601f106200050a57506200052b565b601f0160209004906000526020600020908101906200052a9190620003ef565b5b50565b6000620005456200053f846200082a565b62000801565b9050808382526020820190508260005b858110156200058957815185016200056e888262000681565b84526020840193506020830192505060018101905062000555565b5050509392505050565b6000620005aa620005a48462000859565b62000801565b9050808382526020820190508260005b85811015620005ee5781518501620005d38882620006c5565b845260208401935060208301925050600181019050620005ba565b5050509392505050565b60006200060f620006098462000888565b62000801565b9050828152602081018484840111156200062857600080fd5b6200063584828562000967565b509392505050565b6000815190506200064e8162000aa7565b92915050565b600082601f8301126200066657600080fd5b8151620006788482602086016200052e565b91505092915050565b600082601f8301126200069357600080fd5b8151620006a584826020860162000593565b91505092915050565b600081519050620006bf8162000ac1565b92915050565b600082601f830112620006d757600080fd5b8151620006e9848260208601620005f8565b91505092915050565b600081519050620007038162000adb565b92915050565b600080600080600080600060e0888a0312156200072557600080fd5b6000620007358a828b016200063d565b9750506020620007488a828b016200063d565b96505060406200075b8a828b01620006ae565b95505060606200076e8a828b01620006f2565b945050608088015167ffffffffffffffff8111156200078c57600080fd5b6200079a8a828b0162000654565b93505060a088015167ffffffffffffffff811115620007b857600080fd5b620007c68a828b0162000654565b92505060c088015167ffffffffffffffff811115620007e457600080fd5b620007f28a828b0162000654565b91505092959891949750929550565b60006200080d62000820565b90506200081b8282620009d3565b919050565b6000604051905090565b600067ffffffffffffffff82111562000848576200084762000a67565b5b602082029050602081019050919050565b600067ffffffffffffffff82111562000877576200087662000a67565b5b602082029050602081019050919050565b600067ffffffffffffffff821115620008a657620008a562000a67565b5b620008b18262000a96565b9050602081019050919050565b6000620008cb826200095d565b9150620008d8836200095d565b9250817fffffffffffffffffffffffffffffffffffffffffffffffffffffffffffffffff048311821515161562000914576200091362000a09565b5b828202905092915050565b60006200092c826200093d565b9050919050565b6000819050919050565b600073ffffffffffffffffffffffffffffffffffffffff82169050919050565b6000819050919050565b60005b83811015620009875780820151818401526020810190506200096a565b8381111562000997576000848401525b50505050565b60006002820490506001821680620009b657607f821691505b60208210811415620009cd57620009cc62000a38565b5b50919050565b620009de8262000a96565b810181811067ffffffffffffffff8211171562000a0057620009ff62000a67565b5b80604052505050565b7f4e487b7100000000000000000000000000000000000000000000000000000000600052601160045260246000fd5b7f4e487b7100000000000000000000000000000000000000000000000000000000600052602260045260246000fd5b7f4e487b7100000000000000000000000000000000000000000000000000000000600052604160045260246000fd5b6000601f19601f8301169050919050565b62000ab2816200091f565b811462000abe57600080fd5b50565b62000acc8162000933565b811462000ad857600080fd5b50565b62000ae6816200095d565b811462000af257600080fd5b50565b60805160601c60a05160601c60c05161563562000b39600039600081816116b5015261176f0152600081816111460152612b7001526000612b3401526156356000f3fe6080604052600436106101f95760003560e01c806395d89b411161010d578063bf01c3e3116100a0578063e83157421161006f578063e831574214610784578063e985e9c5146107af578063efc81a8c146107ec578063f2fde38b14610817578063f38c76b314610840576101f9565b8063bf01c3e3146106b4578063c4d53dea146106df578063c87b56dd1461071c578063d082e38114610759576101f9565b8063b4e69d7f116100dc578063b4e69d7f146105e6578063b70256af14610611578063b88d4fde1461064e578063ba13569814610677576101f9565b806395d89b41146105185780639c1cd79514610543578063a22cb46514610580578063a3130470146105a9576101f9565b806330d871c6116101905780636352211e1161015f5780636352211e1461043357806370a0823114610470578063715018a6146104ad5780638da5cb5b146104c457806394985ddd146104ef576101f9565b806330d871c61461039a5780633ccfd60b146103d757806342842e0e146103e1578063624194c71461040a576101f9565b8063219c0eee116101cc578063219c0eee146102cc57806322881f881461030957806323b872dd146103465780632c1db4721461036f576101f9565b806301ffc9a7146101fe57806306fdde031461023b578063081812fc14610266578063095ea7b3146102a3575b600080fd5b34801561020a57600080fd5b50610225600480360381019061022091906137b0565b61087d565b6040516102329190614248565b60405180910390f35b34801561024757600080fd5b5061025061095f565b60405161025d91906142ec565b60405180910390f35b34801561027257600080fd5b5061028d60048036038101906102889190613897565b6109f1565b60405161029a91906141a3565b60405180910390f35b3480156102af57600080fd5b506102ca60048036038101906102c591906136e6565b610a76565b005b3480156102d857600080fd5b506102f360048036038101906102ee919061374b565b610b8e565b60405161030091906141a3565b60405180910390f35b34801561031557600080fd5b50610330600480360381019061032b919061374b565b610bc1565b60405161033d91906145ee565b60405180910390f35b34801561035257600080fd5b5061036d600480360381019061036891906135e0565b610bd9565b005b34801561037b57600080fd5b50610384610c39565b60405161039191906145ee565b60405180910390f35b3480156103a657600080fd5b506103c160048036038101906103bc9190613802565b610c3f565b6040516103ce91906142ec565b60405180910390f35b6103df610cd2565b005b3480156103ed57600080fd5b50610408600480360381019061040391906135e0565b610d9e565b005b34801561041657600080fd5b50610431600480360381019061042c9190613897565b610dbe565b005b34801561043f57600080fd5b5061045a60048036038101906104559190613897565b610f28565b60405161046791906141a3565b60405180910390f35b34801561047c57600080fd5b506104976004803603810190610492919061357b565b610fda565b6040516104a491906145ee565b60405180910390f35b3480156104b957600080fd5b506104c2611092565b005b3480156104d057600080fd5b506104d961111a565b6040516104e691906141a3565b60405180910390f35b3480156104fb57600080fd5b5061051660048036038101906105119190613774565b611144565b005b34801561052457600080fd5b5061052d6111e0565b60405161053a91906142ec565b60405180910390f35b34801561054f57600080fd5b5061056a60048036038101906105659190613897565b611272565b60405161057791906145ee565b60405180910390f35b34801561058c57600080fd5b506105a760048036038101906105a291906136aa565b61128a565b005b3480156105b557600080fd5b506105d060048036038101906105cb91906138c0565b6112a0565b6040516105dd91906142ec565b60405180910390f35b3480156105f257600080fd5b506105fb611365565b60405161060891906145ee565b60405180910390f35b34801561061d57600080fd5b50610638600480360381019061063391906138c0565b61136b565b60405161064591906142ec565b60405180910390f35b34801561065a57600080fd5b506106756004803603810190610670919061362f565b611430565b005b34801561068357600080fd5b5061069e600480360381019061069991906138fc565b611492565b6040516106ab9190614248565b60405180910390f35b3480156106c057600080fd5b506106c96114fa565b6040516106d691906145ee565b60405180910390f35b3480156106eb57600080fd5b5061070660048036038101906107019190613843565b611500565b60405161071391906142ec565b60405180910390f35b34801561072857600080fd5b50610743600480360381019061073e9190613897565b61155b565b60405161075091906142ec565b60405180910390f35b34801561076557600080fd5b5061076e6116ad565b60405161077b91906145ee565b60405180910390f35b34801561079057600080fd5b506107996116b3565b6040516107a691906145ee565b60405180910390f35b3480156107bb57600080fd5b506107d660048036038101906107d191906135a4565b6116d7565b6040516107e39190614248565b60405180910390f35b3480156107f857600080fd5b5061080161176b565b60405161080e9190614263565b60405180910390f35b34801561082357600080fd5b5061083e6004803603810190610839919061357b565b611899565b005b34801561084c57600080fd5b50610867600480360381019061086291906138c0565b611991565b60405161087491906142ec565b60405180910390f35b60007f80ac58cd000000000000000000000000000000000000000000000000000000007bffffffffffffffffffffffffffffffffffffffffffffffffffffffff1916827bffffffffffffffffffffffffffffffffffffffffffffffffffffffff1916148061094857507f5b5e139f000000000000000000000000000000000000000000000000000000007bffffffffffffffffffffffffffffffffffffffffffffffffffffffff1916827bffffffffffffffffffffffffffffffffffffffffffffffffffffffff1916145b80610958575061095782611a56565b5b9050919050565b60606000805461096e90614969565b80601f016020809104026020016040519081016040528092919081815260200182805461099a90614969565b80156109e75780601f106109bc576101008083540402835291602001916109e7565b820191906000526020600020905b8154815290600101906020018083116109ca57829003601f168201915b5050505050905090565b60006109fc82611ac0565b610a3b576040517f08c379a0000000000000000000000000000000000000000000000000000000008152600401610a329061452e565b60405180910390fd5b6004600083815260200190815260200160002060009054906101000a900473ffffffffffffffffffffffffffffffffffffffff169050919050565b6000610a8182610f28565b90508073ffffffffffffffffffffffffffffffffffffffff168373ffffffffffffffffffffffffffffffffffffffff161415610af2576040517f08c379a0000000000000000000000000000000000000000000000000000000008152600401610ae9906145ae565b60405180910390fd5b8073ffffffffffffffffffffffffffffffffffffffff16610b11611b2c565b73ffffffffffffffffffffffffffffffffffffffff161480610b405750610b3f81610b3a611b2c565b6116d7565b5b610b7f576040517f08c379a0000000000000000000000000000000000000000000000000000000008152600401610b769061444e565b60405180910390fd5b610b898383611b34565b505050565b60116020528060005260406000206000915054906101000a900473ffffffffffffffffffffffffffffffffffffffff1681565b60136020528060005260406000206000915090505481565b610bea610be4611b2c565b82611bed565b610c29576040517f08c379a0000000000000000000000000000000000000000000000000000000008152600401610c20906145ce565b60405180910390fd5b610c34838383611ccb565b505050565b600e5481565b606060006040518060400160405280601a81526020017f646174613a696d6167652f7376672b786d6c3b6261736536342c00000000000081525090506000610ca584604051602001610c91919061401f565b604051602081830303815290604052611f32565b90508181604051602001610cba929190614036565b60405160208183030381529060405292505050919050565b610cda611b2c565b73ffffffffffffffffffffffffffffffffffffffff16610cf861111a565b73ffffffffffffffffffffffffffffffffffffffff1614610d4e576040517f08c379a0000000000000000000000000000000000000000000000000000000008152600401610d459061454e565b60405180910390fd5b610d5661111a565b73ffffffffffffffffffffffffffffffffffffffff166108fc479081150290604051600060405180830381858888f19350505050158015610d9b573d6000803e3d6000fd5b50565b610db983838360405180602001604052806000815250611430565b505050565b6000610dc98261155b565b511115610e0b576040517f08c379a0000000000000000000000000000000000000000000000000000000008152600401610e02906143ee565b60405180910390fd5b8060105411610e4f576040517f08c379a0000000000000000000000000000000000000000000000000000000008152600401610e46906144ce565b60405180910390fd5b6000601260008381526020019081526020016000205411610ea5576040517f08c379a0000000000000000000000000000000000000000000000000000000008152600401610e9c9061438e565b60405180910390fd5b6000601260008381526020019081526020016000205490506000610ec8826120d1565b90506000610ed582610c3f565b9050610eea84610ee58387611500565b612503565b837fe6e1ae3c28fd225da5957e598f0f29b3ea720244d8fa8862aba7d2e7aac9cdec83604051610f1a91906142ec565b60405180910390a250505050565b6000806002600084815260200190815260200160002060009054906101000a900473ffffffffffffffffffffffffffffffffffffffff169050600073ffffffffffffffffffffffffffffffffffffffff168173ffffffffffffffffffffffffffffffffffffffff161415610fd1576040517f08c379a0000000000000000000000000000000000000000000000000000000008152600401610fc89061448e565b60405180910390fd5b80915050919050565b60008073ffffffffffffffffffffffffffffffffffffffff168273ffffffffffffffffffffffffffffffffffffffff16141561104b576040517f08c379a00000000000000000000000000000000000000000000000000000000081526004016110429061446e565b60405180910390fd5b600360008373ffffffffffffffffffffffffffffffffffffffff1673ffffffffffffffffffffffffffffffffffffffff168152602001908152602001600020549050919050565b61109a611b2c565b73ffffffffffffffffffffffffffffffffffffffff166110b861111a565b73ffffffffffffffffffffffffffffffffffffffff161461110e576040517f08c379a00000000000000000000000000000000000000000000000000000000081526004016111059061454e565b60405180910390fd5b6111186000612577565b565b6000600f60009054906101000a900473ffffffffffffffffffffffffffffffffffffffff16905090565b7f000000000000000000000000000000000000000000000000000000000000000073ffffffffffffffffffffffffffffffffffffffff163373ffffffffffffffffffffffffffffffffffffffff16146111d2576040517f08c379a00000000000000000000000000000000000000000000000000000000081526004016111c99061458e565b60405180910390fd5b6111dc828261263d565b5050565b6060600180546111ef90614969565b80601f016020809104026020016040519081016040528092919081815260200182805461121b90614969565b80156112685780601f1061123d57610100808354040283529160200191611268565b820191906000526020600020905b81548152906001019060200180831161124b57829003601f168201915b5050505050905090565b60126020528060005260406000206000915090505481565b61129c611295611b2c565b83836126ed565b5050565b600982815481106112b057600080fd5b9060005260206000200181815481106112c857600080fd5b906000526020600020016000915091505080546112e490614969565b80601f016020809104026020016040519081016040528092919081815260200182805461131090614969565b801561135d5780601f106113325761010080835404028352916020019161135d565b820191906000526020600020905b81548152906001019060200180831161134057829003601f168201915b505050505081565b600d5481565b6008828154811061137b57600080fd5b90600052602060002001818154811061139357600080fd5b906000526020600020016000915091505080546113af90614969565b80601f01602080910402602001604051908101604052809291908181526020018280546113db90614969565b80156114285780601f106113fd57610100808354040283529160200191611428565b820191906000526020600020905b81548152906001019060200180831161140b57829003601f168201915b505050505081565b61144161143b611b2c565b83611bed565b611480576040517f08c379a0000000000000000000000000000000000000000000000000000000008152600401611477906145ce565b60405180910390fd5b61148c8484848461285a565b50505050565b600b83815481106114a257600080fd5b9060005260206000200182815481106114ba57600080fd5b9060005260206000200181815481106114d257600080fd5b906000526020600020906020918282040191900692509250509054906101000a900460ff1681565b600c5481565b606061153461150e836128b6565b84604051602001611520929190614104565b604051602081830303815290604052611f32565b6040516020016115449190614181565b604051602081830303815290604052905092915050565b606061156682611ac0565b6115a5576040517f08c379a000000000000000000000000000000000000000000000000000000000815260040161159c9061450e565b60405180910390fd5b60006006600084815260200190815260200160002080546115c590614969565b80601f01602080910402602001604051908101604052809291908181526020018280546115f190614969565b801561163e5780601f106116135761010080835404028352916020019161163e565b820191906000526020600020905b81548152906001019060200180831161162157829003601f168201915b50505050509050600061164f612a72565b90506000815114156116655781925050506116a8565b60008251111561169a578082604051602001611682929190614036565b604051602081830303815290604052925050506116a8565b6116a384612a89565b925050505b919050565b60105481565b7f000000000000000000000000000000000000000000000000000000000000000081565b6000600560008473ffffffffffffffffffffffffffffffffffffffff1673ffffffffffffffffffffffffffffffffffffffff16815260200190815260200160002060008373ffffffffffffffffffffffffffffffffffffffff1673ffffffffffffffffffffffffffffffffffffffff16815260200190815260200160002060009054906101000a900460ff16905092915050565b60007f0000000000000000000000000000000000000000000000000000000000000000601054106117d1576040517f08c379a00000000000000000000000000000000000000000000000000000000081526004016117c89061442e565b60405180910390fd5b6117df601454601554612b30565b9050336011600083815260200190815260200160002060006101000a81548173ffffffffffffffffffffffffffffffffffffffff021916908373ffffffffffffffffffffffffffffffffffffffff160217905550600060105490508060136000848152602001908152602001600020819055506001601054611861919061475d565b60108190555080827fce39cc4270cfd628caca43c3d4ccbbf3e948a8aadd24d313a5c3d24f8d2e959060405160405180910390a35090565b6118a1611b2c565b73ffffffffffffffffffffffffffffffffffffffff166118bf61111a565b73ffffffffffffffffffffffffffffffffffffffff1614611915576040517f08c379a000000000000000000000000000000000000000000000000000000000815260040161190c9061454e565b60405180910390fd5b600073ffffffffffffffffffffffffffffffffffffffff168173ffffffffffffffffffffffffffffffffffffffff161415611985576040517f08c379a000000000000000000000000000000000000000000000000000000000815260040161197c9061432e565b60405180910390fd5b61198e81612577565b50565b600a82815481106119a157600080fd5b9060005260206000200181815481106119b957600080fd5b906000526020600020016000915091505080546119d590614969565b80601f0160208091040260200160405190810160405280929190818152602001828054611a0190614969565b8015611a4e5780601f10611a2357610100808354040283529160200191611a4e565b820191906000526020600020905b815481529060010190602001808311611a3157829003601f168201915b505050505081565b60007f01ffc9a7000000000000000000000000000000000000000000000000000000007bffffffffffffffffffffffffffffffffffffffffffffffffffffffff1916827bffffffffffffffffffffffffffffffffffffffffffffffffffffffff1916149050919050565b60008073ffffffffffffffffffffffffffffffffffffffff166002600084815260200190815260200160002060009054906101000a900473ffffffffffffffffffffffffffffffffffffffff1673ffffffffffffffffffffffffffffffffffffffff1614159050919050565b600033905090565b816004600083815260200190815260200160002060006101000a81548173ffffffffffffffffffffffffffffffffffffffff021916908373ffffffffffffffffffffffffffffffffffffffff160217905550808273ffffffffffffffffffffffffffffffffffffffff16611ba783610f28565b73ffffffffffffffffffffffffffffffffffffffff167f8c5be1e5ebec7d5bd14f71427d1e84f3dd0314c0f7b2291e5b200ac8c7c3b92560405160405180910390a45050565b6000611bf882611ac0565b611c37576040517f08c379a0000000000000000000000000000000000000000000000000000000008152600401611c2e9061440e565b60405180910390fd5b6000611c4283610f28565b90508073ffffffffffffffffffffffffffffffffffffffff168473ffffffffffffffffffffffffffffffffffffffff161480611cb157508373ffffffffffffffffffffffffffffffffffffffff16611c99846109f1565b73ffffffffffffffffffffffffffffffffffffffff16145b80611cc25750611cc181856116d7565b5b91505092915050565b8273ffffffffffffffffffffffffffffffffffffffff16611ceb82610f28565b73ffffffffffffffffffffffffffffffffffffffff1614611d41576040517f08c379a0000000000000000000000000000000000000000000000000000000008152600401611d389061434e565b60405180910390fd5b600073ffffffffffffffffffffffffffffffffffffffff168273ffffffffffffffffffffffffffffffffffffffff161415611db1576040517f08c379a0000000000000000000000000000000000000000000000000000000008152600401611da8906143ae565b60405180910390fd5b611dbc838383612c92565b611dc7600082611b34565b6001600360008573ffffffffffffffffffffffffffffffffffffffff1673ffffffffffffffffffffffffffffffffffffffff1681526020019081526020016000206000828254611e17919061483e565b925050819055506001600360008473ffffffffffffffffffffffffffffffffffffffff1673ffffffffffffffffffffffffffffffffffffffff1681526020019081526020016000206000828254611e6e919061475d565b92505081905550816002600083815260200190815260200160002060006101000a81548173ffffffffffffffffffffffffffffffffffffffff021916908373ffffffffffffffffffffffffffffffffffffffff160217905550808273ffffffffffffffffffffffffffffffffffffffff168473ffffffffffffffffffffffffffffffffffffffff167fddf252ad1be2c89b69c2b068fc378daa952ba7f163c4a11628f55a4df523b3ef60405160405180910390a4611f2d838383612c97565b505050565b6060600082511415611f55576040518060200160405280600081525090506120cc565b60006040518060600160405280604081526020016155c06040913990506000600360028551611f84919061475d565b611f8e91906147b3565b6004611f9a91906147e4565b90506000602082611fab919061475d565b67ffffffffffffffff811115611fea577f4e487b7100000000000000000000000000000000000000000000000000000000600052604160045260246000fd5b6040519080825280601f01601f19166020018201604052801561201c5781602001600182028036833780820191505090505b509050818152600183018586518101602084015b8183101561208b576003830192508251603f8160121c168501518253600182019150603f81600c1c168501518253600182019150603f8160061c168501518253600182019150603f8116850151825360018201915050612030565b6003895106600181146120a557600281146120b5576120c0565b613d3d60f01b60028303526120c0565b603d60f81b60018303525b50505050508093505050505b919050565b60606000600c54836040516020016120e99190614665565b6040516020818303038152906040528051906020012060001c61210c9190614a53565b90506000600d54846040516020016121249190614637565b6040516020818303038152906040528051906020012060001c6121479190614a53565b90506000600e548560405160200161215f9190614609565b6040516020818303038152906040528051906020012060001c6121829190614a53565b90506122a0600884815481106121c1577f4e487b7100000000000000000000000000000000000000000000000000000000600052603260045260246000fd5b90600052602060002001805480602002602001604051908101604052809291908181526020016000905b8282101561229757838290600052602060002001805461220a90614969565b80601f016020809104026020016040519081016040528092919081815260200182805461223690614969565b80156122835780601f1061225857610100808354040283529160200191612283565b820191906000526020600020905b81548152906001019060200180831161226657829003601f168201915b5050505050815260200190600101906121eb565b50505050612c9c565b6123bc600984815481106122dd577f4e487b7100000000000000000000000000000000000000000000000000000000600052603260045260246000fd5b90600052602060002001805480602002602001604051908101604052809291908181526020016000905b828210156123b357838290600052602060002001805461232690614969565b80601f016020809104026020016040519081016040528092919081815260200182805461235290614969565b801561239f5780601f106123745761010080835404028352916020019161239f565b820191906000526020600020905b81548152906001019060200180831161238257829003601f168201915b505050505081526020019060010190612307565b50505050612c9c565b6124d8600a84815481106123f9577f4e487b7100000000000000000000000000000000000000000000000000000000600052603260045260246000fd5b90600052602060002001805480602002602001604051908101604052809291908181526020016000905b828210156124cf57838290600052602060002001805461244290614969565b80601f016020809104026020016040519081016040528092919081815260200182805461246e90614969565b80156124bb5780601f10612490576101008083540402835291602001916124bb565b820191906000526020600020905b81548152906001019060200180831161249e57829003601f168201915b505050505081526020019060010190612423565b50505050612c9c565b6040516020016124ea9392919061405a565b6040516020818303038152906040529350505050919050565b61250c82611ac0565b61254b576040517f08c379a0000000000000000000000000000000000000000000000000000000008152600401612542906144ae565b60405180910390fd5b80600660008481526020019081526020016000209080519060200190612572929190613375565b505050565b6000600f60009054906101000a900473ffffffffffffffffffffffffffffffffffffffff16905081600f60006101000a81548173ffffffffffffffffffffffffffffffffffffffff021916908373ffffffffffffffffffffffffffffffffffffffff1602179055508173ffffffffffffffffffffffffffffffffffffffff168173ffffffffffffffffffffffffffffffffffffffff167f8be0079c531659141344cd1fd0a4f28419497f9722a3daafe3b4186f6b6457e060405160405180910390a35050565b60006011600084815260200190815260200160002060009054906101000a900473ffffffffffffffffffffffffffffffffffffffff1690506000601360008581526020019081526020016000205490506126978282612d4c565b826012600083815260200190815260200160002081905550807fc58c9f48f62f00d6dbb43335e84043f12dbf76dc70abcdd19909664404ca788c846040516126df91906145ee565b60405180910390a250505050565b8173ffffffffffffffffffffffffffffffffffffffff168373ffffffffffffffffffffffffffffffffffffffff16141561275c576040517f08c379a0000000000000000000000000000000000000000000000000000000008152600401612753906143ce565b60405180910390fd5b80600560008573ffffffffffffffffffffffffffffffffffffffff1673ffffffffffffffffffffffffffffffffffffffff16815260200190815260200160002060008473ffffffffffffffffffffffffffffffffffffffff1673ffffffffffffffffffffffffffffffffffffffff16815260200190815260200160002060006101000a81548160ff0219169083151502179055508173ffffffffffffffffffffffffffffffffffffffff168373ffffffffffffffffffffffffffffffffffffffff167f17307eab39ab6107e8899845ad3d59bd9653f200f220920489ca2b5937696c318360405161284d9190614248565b60405180910390a3505050565b612865848484611ccb565b61287184848484612d6a565b6128b0576040517f08c379a00000000000000000000000000000000000000000000000000000000081526004016128a79061430e565b60405180910390fd5b50505050565b606060008214156128fe576040518060400160405280600181526020017f30000000000000000000000000000000000000000000000000000000000000008152509050612a6d565b600082905060005b60008214612930578080612919906149cc565b915050600a8261292991906147b3565b9150612906565b60008167ffffffffffffffff811115612972577f4e487b7100000000000000000000000000000000000000000000000000000000600052604160045260246000fd5b6040519080825280601f01601f1916602001820160405280156129a45781602001600182028036833780820191505090505b50905060006001836129b6919061483e565b90505b60008614612a6557600a866129ce9190614a53565b60306129da919061475d565b60f81b8282806129e99061493f565b935081518110612a22577f4e487b7100000000000000000000000000000000000000000000000000000000600052603260045260246000fd5b60200101907effffffffffffffffffffffffffffffffffffffffffffffffffffffffffffff1916908160001a905350600a86612a5e91906147b3565b95506129b9565b819450505050505b919050565b606060405180602001604052806000815250905090565b6060612a9482611ac0565b612ad3576040517f08c379a0000000000000000000000000000000000000000000000000000000008152600401612aca9061456e565b60405180910390fd5b6000612add612a72565b90506000815111612afd5760405180602001604052806000815250612b28565b80612b0784612f01565b604051602001612b18929190614036565b6040516020818303038152906040525b915050919050565b60007f000000000000000000000000000000000000000000000000000000000000000073ffffffffffffffffffffffffffffffffffffffff16634000aea07f000000000000000000000000000000000000000000000000000000000000000084866000604051602001612ba492919061427e565b6040516020818303038152906040526040518463ffffffff1660e01b8152600401612bd19392919061420a565b602060405180830381600087803b158015612beb57600080fd5b505af1158015612bff573d6000803e3d6000fd5b505050506040513d601f19601f82011682018060405250810190612c239190613722565b506000612c468460003060076000898152602001908152602001600020546130ae565b905060016007600086815260200190815260200160002054612c68919061475d565b6007600086815260200190815260200160002081905550612c8984826130ea565b91505092915050565b505050565b505050565b606060005b82518160ff161015612d465781838260ff1681518110612cea577f4e487b7100000000000000000000000000000000000000000000000000000000600052603260045260246000fd5b6020026020010151604051602001612d029190614154565b604051602081830303815290604052604051602001612d22929190614036565b60405160208183030381529060405291508080612d3e90614a15565b915050612ca1565b50919050565b612d6682826040518060200160405280600081525061311d565b5050565b6000612d8b8473ffffffffffffffffffffffffffffffffffffffff16613178565b15612ef4578373ffffffffffffffffffffffffffffffffffffffff1663150b7a02612db4611b2c565b8786866040518563ffffffff1660e01b8152600401612dd694939291906141be565b602060405180830381600087803b158015612df057600080fd5b505af1925050508015612e2157506040513d601f19601f82011682018060405250810190612e1e91906137d9565b60015b612ea4573d8060008114612e51576040519150601f19603f3d011682016040523d82523d6000602084013e612e56565b606091505b50600081511415612e9c576040517f08c379a0000000000000000000000000000000000000000000000000000000008152600401612e939061430e565b60405180910390fd5b805181602001fd5b63150b7a0260e01b7bffffffffffffffffffffffffffffffffffffffffffffffffffffffff1916817bffffffffffffffffffffffffffffffffffffffffffffffffffffffff191614915050612ef9565b600190505b949350505050565b60606000821415612f49576040518060400160405280600181526020017f300000000000000000000000000000000000000000000000000000000000000081525090506130a9565b600082905060005b60008214612f7b578080612f64906149cc565b915050600a82612f7491906147b3565b9150612f51565b60008167ffffffffffffffff811115612fbd577f4e487b7100000000000000000000000000000000000000000000000000000000600052604160045260246000fd5b6040519080825280601f01601f191660200182016040528015612fef5781602001600182028036833780820191505090505b5090505b600085146130a257600182613008919061483e565b9150600a856130179190614a53565b6030613023919061475d565b60f81b81838151811061305f577f4e487b7100000000000000000000000000000000000000000000000000000000600052603260045260246000fd5b60200101907effffffffffffffffffffffffffffffffffffffffffffffffffffffffffffff1916908160001a905350600a8561309b91906147b3565b9450612ff3565b8093505050505b919050565b6000848484846040516020016130c794939291906142a7565b6040516020818303038152906040528051906020012060001c9050949350505050565b600082826040516020016130ff929190613ff3565b60405160208183030381529060405280519060200120905092915050565b613127838361319b565b6131346000848484612d6a565b613173576040517f08c379a000000000000000000000000000000000000000000000000000000000815260040161316a9061430e565b60405180910390fd5b505050565b6000808273ffffffffffffffffffffffffffffffffffffffff163b119050919050565b600073ffffffffffffffffffffffffffffffffffffffff168273ffffffffffffffffffffffffffffffffffffffff16141561320b576040517f08c379a0000000000000000000000000000000000000000000000000000000008152600401613202906144ee565b60405180910390fd5b61321481611ac0565b15613254576040517f08c379a000000000000000000000000000000000000000000000000000000000815260040161324b9061436e565b60405180910390fd5b61326060008383612c92565b6001600360008473ffffffffffffffffffffffffffffffffffffffff1673ffffffffffffffffffffffffffffffffffffffff16815260200190815260200160002060008282546132b0919061475d565b92505081905550816002600083815260200190815260200160002060006101000a81548173ffffffffffffffffffffffffffffffffffffffff021916908373ffffffffffffffffffffffffffffffffffffffff160217905550808273ffffffffffffffffffffffffffffffffffffffff16600073ffffffffffffffffffffffffffffffffffffffff167fddf252ad1be2c89b69c2b068fc378daa952ba7f163c4a11628f55a4df523b3ef60405160405180910390a461337160008383612c97565b5050565b82805461338190614969565b90600052602060002090601f0160209004810192826133a357600085556133ea565b82601f106133bc57805160ff19168380011785556133ea565b828001600101855582156133ea579182015b828111156133e95782518255916020019190600101906133ce565b5b5090506133f791906133fb565b5090565b5b808211156134145760008160009055506001016133fc565b5090565b600061342b613426846146b8565b614693565b90508281526020810184848401111561344357600080fd5b61344e8482856148fd565b509392505050565b6000613469613464846146e9565b614693565b90508281526020810184848401111561348157600080fd5b61348c8482856148fd565b509392505050565b6000813590506134a38161554c565b92915050565b6000813590506134b881615563565b92915050565b6000815190506134cd81615563565b92915050565b6000813590506134e28161557a565b92915050565b6000813590506134f781615591565b92915050565b60008151905061350c81615591565b92915050565b600082601f83011261352357600080fd5b8135613533848260208601613418565b91505092915050565b600082601f83011261354d57600080fd5b813561355d848260208601613456565b91505092915050565b600081359050613575816155a8565b92915050565b60006020828403121561358d57600080fd5b600061359b84828501613494565b91505092915050565b600080604083850312156135b757600080fd5b60006135c585828601613494565b92505060206135d685828601613494565b9150509250929050565b6000806000606084860312156135f557600080fd5b600061360386828701613494565b935050602061361486828701613494565b925050604061362586828701613566565b9150509250925092565b6000806000806080858703121561364557600080fd5b600061365387828801613494565b945050602061366487828801613494565b935050604061367587828801613566565b925050606085013567ffffffffffffffff81111561369257600080fd5b61369e87828801613512565b91505092959194509250565b600080604083850312156136bd57600080fd5b60006136cb85828601613494565b92505060206136dc858286016134a9565b9150509250929050565b600080604083850312156136f957600080fd5b600061370785828601613494565b925050602061371885828601613566565b9150509250929050565b60006020828403121561373457600080fd5b6000613742848285016134be565b91505092915050565b60006020828403121561375d57600080fd5b600061376b848285016134d3565b91505092915050565b6000806040838503121561378757600080fd5b6000613795858286016134d3565b92505060206137a685828601613566565b9150509250929050565b6000602082840312156137c257600080fd5b60006137d0848285016134e8565b91505092915050565b6000602082840312156137eb57600080fd5b60006137f9848285016134fd565b91505092915050565b60006020828403121561381457600080fd5b600082013567ffffffffffffffff81111561382e57600080fd5b61383a8482850161353c565b91505092915050565b6000806040838503121561385657600080fd5b600083013567ffffffffffffffff81111561387057600080fd5b61387c8582860161353c565b925050602061388d85828601613566565b9150509250929050565b6000602082840312156138a957600080fd5b60006138b784828501613566565b91505092915050565b600080604083850312156138d357600080fd5b60006138e185828601613566565b92505060206138f285828601613566565b9150509250929050565b60008060006060848603121561391157600080fd5b600061391f86828701613566565b935050602061393086828701613566565b925050604061394186828701613566565b9150509250925092565b61395481614872565b82525050565b61396381614884565b82525050565b61397281614890565b82525050565b61398961398482614890565b614a3f565b82525050565b600061399a8261471a565b6139a48185614730565b93506139b481856020860161490c565b6139bd81614b40565b840191505092915050565b60006139d382614725565b6139dd8185614741565b93506139ed81856020860161490c565b6139f681614b40565b840191505092915050565b6000613a0c82614725565b613a168185614752565b9350613a2681856020860161490c565b80840191505092915050565b6000613a3f604083614752565b9150613a4a82614b51565b604082019050919050565b6000613a62604183614752565b9150613a6d82614ba0565b604182019050919050565b6000613a85600983614752565b9150613a9082614c15565b600982019050919050565b6000613aa8603283614741565b9150613ab382614c3e565b604082019050919050565b6000613acb602683614741565b9150613ad682614c8d565b604082019050919050565b6000613aee602583614741565b9150613af982614cdc565b604082019050919050565b6000613b11601c83614741565b9150613b1c82614d2b565b602082019050919050565b6000613b34600683614752565b9150613b3f82614d54565b600682019050919050565b6000613b57602f83614741565b9150613b6282614d7d565b604082019050919050565b6000613b7a602483614741565b9150613b8582614dcc565b604082019050919050565b6000613b9d601983614741565b9150613ba882614e1b565b602082019050919050565b6000613bc0600683614741565b9150613bcb82614e44565b602082019050919050565b6000613be3601883614741565b9150613bee82614e6d565b602082019050919050565b6000613c06602c83614741565b9150613c1182614e96565b604082019050919050565b6000613c29602083614741565b9150613c3482614ee5565b602082019050919050565b6000613c4c602083614752565b9150613c5782614f0e565b602082019050919050565b6000613c6f600783614752565b9150613c7a82614f37565b600782019050919050565b6000613c92603883614741565b9150613c9d82614f60565b604082019050919050565b6000613cb5602a83614741565b9150613cc082614faf565b604082019050919050565b6000613cd8602983614741565b9150613ce382614ffe565b604082019050919050565b6000613cfb602e83614741565b9150613d068261504d565b604082019050919050565b6000613d1e600483614741565b9150613d298261509c565b602082019050919050565b6000613d41602083614741565b9150613d4c826150c5565b602082019050919050565b6000613d64600283614752565b9150613d6f826150ee565b600282019050919050565b6000613d87602083614741565b9150613d9282615117565b602082019050919050565b6000613daa603183614741565b9150613db582615140565b604082019050919050565b6000613dcd602c83614741565b9150613dd88261518f565b604082019050919050565b6000613df0600583614741565b9150613dfb826151de565b602082019050919050565b6000613e13602083614741565b9150613e1e82615207565b602082019050919050565b6000613e36605283614752565b9150613e4182615230565b605282019050919050565b6000613e59602f83614741565b9150613e64826152a5565b604082019050919050565b6000613e7c600483614752565b9150613e87826152f4565b600482019050919050565b6000613e9f601f83614741565b9150613eaa8261531d565b602082019050919050565b6000613ec2602083614752565b9150613ecd82615346565b602082019050919050565b6000613ee5602183614741565b9150613ef08261536f565b604082019050919050565b6000613f08601d83614752565b9150613f13826153be565b601d82019050919050565b6000613f2b602083614752565b9150613f36826153e7565b602082019050919050565b6000613f4e603183614741565b9150613f5982615410565b604082019050919050565b6000613f71600283614752565b9150613f7c8261545f565b600282019050919050565b6000613f94600683614752565b9150613f9f82615488565b600682019050919050565b6000613fb7606783614752565b9150613fc2826154b1565b606782019050919050565b613fd6816148e6565b82525050565b613fed613fe8826148e6565b614a49565b82525050565b6000613fff8285613978565b60208201915061400f8284613fdc565b6020820191508190509392505050565b600061402b8284613a01565b915081905092915050565b60006140428285613a01565b915061404e8284613a01565b91508190509392505050565b600061406582613a55565b915061407082613a32565b915061407b82613f1e565b915061408682613faa565b91506140928286613a01565b915061409d82613e6f565b91506140a882613eb5565b91506140b48285613a01565b91506140bf82613e6f565b91506140ca82613c3f565b91506140d68284613a01565b91506140e182613e6f565b91506140ec82613e6f565b91506140f782613f87565b9150819050949350505050565b600061410f82613a78565b915061411a82613c62565b91506141268285613a01565b915061413182613e29565b915061413d8284613a01565b915061414882613d57565b91508190509392505050565b600061415f82613b27565b915061416b8284613a01565b915061417682613f64565b915081905092915050565b600061418c82613efb565b91506141988284613a01565b915081905092915050565b60006020820190506141b8600083018461394b565b92915050565b60006080820190506141d3600083018761394b565b6141e0602083018661394b565b6141ed6040830185613fcd565b81810360608301526141ff818461398f565b905095945050505050565b600060608201905061421f600083018661394b565b61422c6020830185613fcd565b818103604083015261423e818461398f565b9050949350505050565b600060208201905061425d600083018461395a565b92915050565b60006020820190506142786000830184613969565b92915050565b60006040820190506142936000830185613969565b6142a06020830184613fcd565b9392505050565b60006080820190506142bc6000830187613969565b6142c96020830186613fcd565b6142d6604083018561394b565b6142e36060830184613fcd565b95945050505050565b6000602082019050818103600083015261430681846139c8565b905092915050565b6000602082019050818103600083015261432781613a9b565b9050919050565b6000602082019050818103600083015261434781613abe565b9050919050565b6000602082019050818103600083015261436781613ae1565b9050919050565b6000602082019050818103600083015261438781613b04565b9050919050565b600060208201905081810360008301526143a781613b4a565b9050919050565b600060208201905081810360008301526143c781613b6d565b9050919050565b600060208201905081810360008301526143e781613b90565b9050919050565b6000602082019050818103600083015261440781613bd6565b9050919050565b6000602082019050818103600083015261442781613bf9565b9050919050565b6000602082019050818103600083015261444781613c1c565b9050919050565b6000602082019050818103600083015261446781613c85565b9050919050565b6000602082019050818103600083015261448781613ca8565b9050919050565b600060208201905081810360008301526144a781613ccb565b9050919050565b600060208201905081810360008301526144c781613cee565b9050919050565b600060208201905081810360008301526144e781613d34565b9050919050565b6000602082019050818103600083015261450781613d7a565b9050919050565b6000602082019050818103600083015261452781613d9d565b9050919050565b6000602082019050818103600083015261454781613dc0565b9050919050565b6000602082019050818103600083015261456781613e06565b9050919050565b6000602082019050818103600083015261458781613e4c565b9050919050565b600060208201905081810360008301526145a781613e92565b9050919050565b600060208201905081810360008301526145c781613ed8565b9050919050565b600060208201905081810360008301526145e781613f41565b9050919050565b60006020820190506146036000830184613fcd565b92915050565b600060408201905061461e6000830184613fcd565b818103602083015261462f81613bb3565b905092915050565b600060408201905061464c6000830184613fcd565b818103602083015261465d81613d11565b905092915050565b600060408201905061467a6000830184613fcd565b818103602083015261468b81613de3565b905092915050565b600061469d6146ae565b90506146a9828261499b565b919050565b6000604051905090565b600067ffffffffffffffff8211156146d3576146d2614b11565b5b6146dc82614b40565b9050602081019050919050565b600067ffffffffffffffff82111561470457614703614b11565b5b61470d82614b40565b9050602081019050919050565b600081519050919050565b600081519050919050565b600082825260208201905092915050565b600082825260208201905092915050565b600081905092915050565b6000614768826148e6565b9150614773836148e6565b9250827fffffffffffffffffffffffffffffffffffffffffffffffffffffffffffffffff038211156147a8576147a7614a84565b5b828201905092915050565b60006147be826148e6565b91506147c9836148e6565b9250826147d9576147d8614ab3565b5b828204905092915050565b60006147ef826148e6565b91506147fa836148e6565b9250817fffffffffffffffffffffffffffffffffffffffffffffffffffffffffffffffff048311821515161561483357614832614a84565b5b828202905092915050565b6000614849826148e6565b9150614854836148e6565b92508282101561486757614866614a84565b5b828203905092915050565b600061487d826148c6565b9050919050565b60008115159050919050565b6000819050919050565b60007fffffffff0000000000000000000000000000000000000000000000000000000082169050919050565b600073ffffffffffffffffffffffffffffffffffffffff82169050919050565b6000819050919050565b600060ff82169050919050565b82818337600083830152505050565b60005b8381101561492a57808201518184015260208101905061490f565b83811115614939576000848401525b50505050565b600061494a826148e6565b9150600082141561495e5761495d614a84565b5b600182039050919050565b6000600282049050600182168061498157607f821691505b6020821081141561499557614994614ae2565b5b50919050565b6149a482614b40565b810181811067ffffffffffffffff821117156149c3576149c2614b11565b5b80604052505050565b60006149d7826148e6565b91507fffffffffffffffffffffffffffffffffffffffffffffffffffffffffffffffff821415614a0a57614a09614a84565b5b600182019050919050565b6000614a20826148f0565b915060ff821415614a3457614a33614a84565b5b600182019050919050565b6000819050919050565b6000819050919050565b6000614a5e826148e6565b9150614a69836148e6565b925082614a7957614a78614ab3565b5b828206905092915050565b7f4e487b7100000000000000000000000000000000000000000000000000000000600052601160045260246000fd5b7f4e487b7100000000000000000000000000000000000000000000000000000000600052601260045260246000fd5b7f4e487b7100000000000000000000000000000000000000000000000000000000600052602260045260246000fd5b7f4e487b7100000000000000000000000000000000000000000000000000000000600052604160045260246000fd5b6000601f19601f8301169050919050565b7f3c67207472616e73666f726d3d277472616e736c61746528343320333529272060008201527f66696c6c3d276e6f6e65272066696c6c2d72756c653d276576656e6f6464273e602082015250565b7f3c7376672077696474683d2733383027206865696768743d273438302720786d60008201527f6c6e733d27687474703a2f2f7777772e77332e6f72672f323030302f7376672760208201527f3e00000000000000000000000000000000000000000000000000000000000000604082015250565b7f7b226e616d65223a220000000000000000000000000000000000000000000000600082015250565b7f4552433732313a207472616e7366657220746f206e6f6e20455243373231526560008201527f63656976657220696d706c656d656e7465720000000000000000000000000000602082015250565b7f4f776e61626c653a206e6577206f776e657220697320746865207a65726f206160008201527f6464726573730000000000000000000000000000000000000000000000000000602082015250565b7f4552433732313a207472616e736665722066726f6d20696e636f72726563742060008201527f6f776e6572000000000000000000000000000000000000000000000000000000602082015250565b7f4552433732313a20746f6b656e20616c7265616479206d696e74656400000000600082015250565b7f3c70617468200000000000000000000000000000000000000000000000000000600082015250565b7f4e65656420746f207761697420666f722074686520436861696e6c696e6b206e60008201527f6f646520746f20726573706f6e64210000000000000000000000000000000000602082015250565b7f4552433732313a207472616e7366657220746f20746865207a65726f2061646460008201527f7265737300000000000000000000000000000000000000000000000000000000602082015250565b7f4552433732313a20617070726f766520746f2063616c6c657200000000000000600082015250565b7f626f646965730000000000000000000000000000000000000000000000000000600082015250565b7f746f6b656e55524920697320616c726561647920736574210000000000000000600082015250565b7f4552433732313a206f70657261746f7220717565727920666f72206e6f6e657860008201527f697374656e7420746f6b656e0000000000000000000000000000000000000000602082015250565b7f416c6c2048756d6161616e73207765726520616c7265616479206d696e746564600082015250565b7f3c67207472616e73666f726d3d277472616e736c61746528323220383229273e600082015250565b7f48756d6161616e00000000000000000000000000000000000000000000000000600082015250565b7f4552433732313a20617070726f76652063616c6c6572206973206e6f74206f7760008201527f6e6572206e6f7220617070726f76656420666f7220616c6c0000000000000000602082015250565b7f4552433732313a2062616c616e636520717565727920666f7220746865207a6560008201527f726f206164647265737300000000000000000000000000000000000000000000602082015250565b7f4552433732313a206f776e657220717565727920666f72206e6f6e657869737460008201527f656e7420746f6b656e0000000000000000000000000000000000000000000000602082015250565b7f45524337323155524953746f726167653a2055524920736574206f66206e6f6e60008201527f6578697374656e7420746f6b656e000000000000000000000000000000000000602082015250565b7f6c65677300000000000000000000000000000000000000000000000000000000600082015250565b7f546f6b656e496420686173206e6f74206265656e206d696e7465642079657421600082015250565b7f227d000000000000000000000000000000000000000000000000000000000000600082015250565b7f4552433732313a206d696e7420746f20746865207a65726f2061646472657373600082015250565b7f45524337323155524953746f726167653a2055524920717565727920666f722060008201527f6e6f6e6578697374656e7420746f6b656e000000000000000000000000000000602082015250565b7f4552433732313a20617070726f76656420717565727920666f72206e6f6e657860008201527f697374656e7420746f6b656e0000000000000000000000000000000000000000602082015250565b7f6861697273000000000000000000000000000000000000000000000000000000600082015250565b7f4f776e61626c653a2063616c6c6572206973206e6f7420746865206f776e6572600082015250565b7f222c20226465736372697074696f6e223a2252616e646f6d6c792067656e657260008201527f61746564206f6e2d636861696e2048756d6161616e222c20226174747269627560208201527f746573223a22222c2022696d616765223a220000000000000000000000000000604082015250565b7f4552433732314d657461646174613a2055524920717565727920666f72206e6f60008201527f6e6578697374656e7420746f6b656e0000000000000000000000000000000000602082015250565b7f3c2f673e00000000000000000000000000000000000000000000000000000000600082015250565b7f4f6e6c7920565246436f6f7264696e61746f722063616e2066756c66696c6c00600082015250565b7f3c67207472616e73666f726d3d277472616e736c61746528302031383729273e600082015250565b7f4552433732313a20617070726f76616c20746f2063757272656e74206f776e6560008201527f7200000000000000000000000000000000000000000000000000000000000000602082015250565b7f646174613a6170706c69636174696f6e2f6a736f6e3b6261736536342c000000600082015250565b7f3c67207472616e73666f726d3d277472616e736c617465283832202d3729273e600082015250565b7f4552433732313a207472616e736665722063616c6c6572206973206e6f74206f60008201527f776e6572206e6f7220617070726f766564000000000000000000000000000000602082015250565b7f2f3e000000000000000000000000000000000000000000000000000000000000600082015250565b7f3c2f7376673e0000000000000000000000000000000000000000000000000000600082015250565b7f3c7061746820643d274d3632203635632d342d352d372d31322d372d3139203260008201527f2d32312033312d31372033372d3673352033382d32203430632d3320312d313060208201527f2d312d31362d356c342032394835346c382d33395a272066696c6c3d2723423260408201527f38423637272f3e00000000000000000000000000000000000000000000000000606082015250565b61555581614872565b811461556057600080fd5b50565b61556c81614884565b811461557757600080fd5b50565b61558381614890565b811461558e57600080fd5b50565b61559a8161489a565b81146155a557600080fd5b50565b6155b1816148e6565b81146155bc57600080fd5b5056fe4142434445464748494a4b4c4d4e4f505152535455565758595a6162636465666768696a6b6c6d6e6f707172737475767778797a303132333435363738392b2fa264697066735822122036b7cce1e49ddb3ff5a22044339dbcb41775994e0805aacfc0f389302b11ed2164736f6c63430008010033",
  "devdoc": {
    "kind": "dev",
    "methods": {
      "approve(address,uint256)": {
        "details": "See {IERC721-approve}."
      },
      "balanceOf(address)": {
        "details": "See {IERC721-balanceOf}."
      },
      "getApproved(uint256)": {
        "details": "See {IERC721-getApproved}."
      },
      "isApprovedForAll(address,address)": {
        "details": "See {IERC721-isApprovedForAll}."
      },
      "name()": {
        "details": "See {IERC721Metadata-name}."
      },
      "owner()": {
        "details": "Returns the address of the current owner."
      },
      "ownerOf(uint256)": {
        "details": "See {IERC721-ownerOf}."
      },
      "renounceOwnership()": {
        "details": "Leaves the contract without owner. It will not be possible to call `onlyOwner` functions anymore. Can only be called by the current owner. NOTE: Renouncing ownership will leave the contract without an owner, thereby removing any functionality that is only available to the owner."
      },
      "safeTransferFrom(address,address,uint256)": {
        "details": "See {IERC721-safeTransferFrom}."
      },
      "safeTransferFrom(address,address,uint256,bytes)": {
        "details": "See {IERC721-safeTransferFrom}."
      },
      "setApprovalForAll(address,bool)": {
        "details": "See {IERC721-setApprovalForAll}."
      },
      "supportsInterface(bytes4)": {
        "details": "See {IERC165-supportsInterface}."
      },
      "symbol()": {
        "details": "See {IERC721Metadata-symbol}."
      },
      "tokenURI(uint256)": {
        "details": "See {IERC721Metadata-tokenURI}."
      },
      "transferFrom(address,address,uint256)": {
        "details": "See {IERC721-transferFrom}."
      },
      "transferOwnership(address)": {
        "details": "Transfers ownership of the contract to a new account (`newOwner`). Can only be called by the current owner."
      }
    },
    "version": 1
  },
  "userdoc": {
    "kind": "user",
    "methods": {},
    "version": 1
  },
  "storageLayout": {
    "storage": [
      {
        "astId": 396,
        "contract": "contracts/Humaaans.sol:Humaaans",
        "label": "_name",
        "offset": 0,
        "slot": "0",
        "type": "t_string_storage"
      },
      {
        "astId": 398,
        "contract": "contracts/Humaaans.sol:Humaaans",
        "label": "_symbol",
        "offset": 0,
        "slot": "1",
        "type": "t_string_storage"
      },
      {
        "astId": 402,
        "contract": "contracts/Humaaans.sol:Humaaans",
        "label": "_owners",
        "offset": 0,
        "slot": "2",
        "type": "t_mapping(t_uint256,t_address)"
      },
      {
        "astId": 406,
        "contract": "contracts/Humaaans.sol:Humaaans",
        "label": "_balances",
        "offset": 0,
        "slot": "3",
        "type": "t_mapping(t_address,t_uint256)"
      },
      {
        "astId": 410,
        "contract": "contracts/Humaaans.sol:Humaaans",
        "label": "_tokenApprovals",
        "offset": 0,
        "slot": "4",
        "type": "t_mapping(t_uint256,t_address)"
      },
      {
        "astId": 416,
        "contract": "contracts/Humaaans.sol:Humaaans",
        "label": "_operatorApprovals",
        "offset": 0,
        "slot": "5",
        "type": "t_mapping(t_address,t_mapping(t_address,t_bool))"
      },
      {
        "astId": 1383,
        "contract": "contracts/Humaaans.sol:Humaaans",
        "label": "_tokenURIs",
        "offset": 0,
        "slot": "6",
        "type": "t_mapping(t_uint256,t_string_storage)"
      },
      {
        "astId": 79,
        "contract": "contracts/Humaaans.sol:Humaaans",
        "label": "nonces",
        "offset": 0,
        "slot": "7",
        "type": "t_mapping(t_bytes32,t_uint256)"
      },
      {
        "astId": 2636,
        "contract": "contracts/Humaaans.sol:Humaaans",
        "label": "hairs",
        "offset": 0,
        "slot": "8",
        "type": "t_array(t_array(t_string_storage)dyn_storage)dyn_storage"
      },
      {
        "astId": 2640,
        "contract": "contracts/Humaaans.sol:Humaaans",
        "label": "legs",
        "offset": 0,
        "slot": "9",
        "type": "t_array(t_array(t_string_storage)dyn_storage)dyn_storage"
      },
      {
        "astId": 2644,
        "contract": "contracts/Humaaans.sol:Humaaans",
        "label": "bodies",
        "offset": 0,
        "slot": "10",
        "type": "t_array(t_array(t_string_storage)dyn_storage)dyn_storage"
      },
      {
        "astId": 2649,
        "contract": "contracts/Humaaans.sol:Humaaans",
        "label": "alreadyMinted",
        "offset": 0,
        "slot": "11",
        "type": "t_array(t_array(t_array(t_bool)dyn_storage)dyn_storage)dyn_storage"
      },
      {
        "astId": 2651,
        "contract": "contracts/Humaaans.sol:Humaaans",
        "label": "maxHairs",
        "offset": 0,
        "slot": "12",
        "type": "t_uint256"
      },
      {
        "astId": 2653,
        "contract": "contracts/Humaaans.sol:Humaaans",
        "label": "maxLegs",
        "offset": 0,
        "slot": "13",
        "type": "t_uint256"
      },
      {
        "astId": 2655,
        "contract": "contracts/Humaaans.sol:Humaaans",
        "label": "maxBodies",
        "offset": 0,
        "slot": "14",
        "type": "t_uint256"
      },
      {
        "astId": 273,
        "contract": "contracts/Humaaans.sol:Humaaans",
        "label": "_owner",
        "offset": 0,
        "slot": "15",
        "type": "t_address"
      },
      {
        "astId": 2214,
        "contract": "contracts/Humaaans.sol:Humaaans",
        "label": "tokenCounter",
        "offset": 0,
        "slot": "16",
        "type": "t_uint256"
      },
      {
        "astId": 2238,
        "contract": "contracts/Humaaans.sol:Humaaans",
        "label": "requestIdToSender",
        "offset": 0,
        "slot": "17",
        "type": "t_mapping(t_bytes32,t_address)"
      },
      {
        "astId": 2242,
        "contract": "contracts/Humaaans.sol:Humaaans",
        "label": "tokenIdToRandomNumber",
        "offset": 0,
        "slot": "18",
        "type": "t_mapping(t_uint256,t_uint256)"
      },
      {
        "astId": 2246,
        "contract": "contracts/Humaaans.sol:Humaaans",
        "label": "requestIdToTokenId",
        "offset": 0,
        "slot": "19",
        "type": "t_mapping(t_bytes32,t_uint256)"
      },
      {
        "astId": 2248,
        "contract": "contracts/Humaaans.sol:Humaaans",
        "label": "keyHash",
        "offset": 0,
        "slot": "20",
        "type": "t_bytes32"
      },
      {
        "astId": 2250,
        "contract": "contracts/Humaaans.sol:Humaaans",
        "label": "fee",
        "offset": 0,
        "slot": "21",
        "type": "t_uint256"
      }
    ],
    "types": {
      "t_address": {
        "encoding": "inplace",
        "label": "address",
        "numberOfBytes": "20"
      },
      "t_array(t_array(t_array(t_bool)dyn_storage)dyn_storage)dyn_storage": {
        "base": "t_array(t_array(t_bool)dyn_storage)dyn_storage",
        "encoding": "dynamic_array",
        "label": "bool[][][]",
        "numberOfBytes": "32"
      },
      "t_array(t_array(t_bool)dyn_storage)dyn_storage": {
        "base": "t_array(t_bool)dyn_storage",
        "encoding": "dynamic_array",
        "label": "bool[][]",
        "numberOfBytes": "32"
      },
      "t_array(t_array(t_string_storage)dyn_storage)dyn_storage": {
        "base": "t_array(t_string_storage)dyn_storage",
        "encoding": "dynamic_array",
        "label": "string[][]",
        "numberOfBytes": "32"
      },
      "t_array(t_bool)dyn_storage": {
        "base": "t_bool",
        "encoding": "dynamic_array",
        "label": "bool[]",
        "numberOfBytes": "32"
      },
      "t_array(t_string_storage)dyn_storage": {
        "base": "t_string_storage",
        "encoding": "dynamic_array",
        "label": "string[]",
        "numberOfBytes": "32"
      },
      "t_bool": {
        "encoding": "inplace",
        "label": "bool",
        "numberOfBytes": "1"
      },
      "t_bytes32": {
        "encoding": "inplace",
        "label": "bytes32",
        "numberOfBytes": "32"
      },
      "t_mapping(t_address,t_bool)": {
        "encoding": "mapping",
        "key": "t_address",
        "label": "mapping(address => bool)",
        "numberOfBytes": "32",
        "value": "t_bool"
      },
      "t_mapping(t_address,t_mapping(t_address,t_bool))": {
        "encoding": "mapping",
        "key": "t_address",
        "label": "mapping(address => mapping(address => bool))",
        "numberOfBytes": "32",
        "value": "t_mapping(t_address,t_bool)"
      },
      "t_mapping(t_address,t_uint256)": {
        "encoding": "mapping",
        "key": "t_address",
        "label": "mapping(address => uint256)",
        "numberOfBytes": "32",
        "value": "t_uint256"
      },
      "t_mapping(t_bytes32,t_address)": {
        "encoding": "mapping",
        "key": "t_bytes32",
        "label": "mapping(bytes32 => address)",
        "numberOfBytes": "32",
        "value": "t_address"
      },
      "t_mapping(t_bytes32,t_uint256)": {
        "encoding": "mapping",
        "key": "t_bytes32",
        "label": "mapping(bytes32 => uint256)",
        "numberOfBytes": "32",
        "value": "t_uint256"
      },
      "t_mapping(t_uint256,t_address)": {
        "encoding": "mapping",
        "key": "t_uint256",
        "label": "mapping(uint256 => address)",
        "numberOfBytes": "32",
        "value": "t_address"
      },
      "t_mapping(t_uint256,t_string_storage)": {
        "encoding": "mapping",
        "key": "t_uint256",
        "label": "mapping(uint256 => string)",
        "numberOfBytes": "32",
        "value": "t_string_storage"
      },
      "t_mapping(t_uint256,t_uint256)": {
        "encoding": "mapping",
        "key": "t_uint256",
        "label": "mapping(uint256 => uint256)",
        "numberOfBytes": "32",
        "value": "t_uint256"
      },
      "t_string_storage": {
        "encoding": "bytes",
        "label": "string",
        "numberOfBytes": "32"
      },
      "t_uint256": {
        "encoding": "inplace",
        "label": "uint256",
        "numberOfBytes": "32"
      }
    }
  }
}